:020000040000FA
:100000000C9464000C948C000C948C000C948C0068
:100010000C948C000C948C000C948C000C94E809CB
:100020000C948C000C948C000C948C000C948C0020
:100030000C948C000C948C000C948C000C948C0010
:100040000C949E090C948C000C946A0A0C94440A3B
:100050000C948C000C948C000C948C000C948C00F0
:100060000C948C000C948C000000000024002700ED
:100070002A000000000023002600290000000008DC
:10008000000201000003040700000000000000005F
:10009000010204081020408001020408102001021F
:1000A0000408102000000000250028002B00040494
:1000B0000404040404040202020202020303030310
:1000C000030302009C0AFC1011241FBECFEFD8E0EE
:1000D000DEBFCDBF24E0A8E3B3E001C01D92A33E84
:1000E000B207E1F713E0A0E0B1E0E0E3FDE202C017
:1000F00005900D92A833B107D9F710E0C3E6D0E020
:1001000004C02197FE010E946814C236D107C9F7C6
:100110000E94DA0A0C948B160C940000833081F054
:1001200028F4813099F08230A9F008958730A9F041
:100130008830C9F08430B1F4809180008F7D03C095
:10014000809180008F7780938000089584B58F77A9
:1001500084BD089584B58F7DFBCF8091B0008F77EB
:100160008093B00008958091B0008F7DF9CFCF9338
:10017000DF93282F30E0F901E458FF4F8491F90113
:10018000E057FF4FD491F901E255FF4FC491CC23C2
:10019000A1F081110E948E00EC2FF0E0EE0FFF1F06
:1001A000EE58FF4FA591B491EC91ED2381E090E0E2
:1001B00009F480E0DF91CF91089580E090E0FACFDC
:1001C0001F93CF93DF93282F30E0F901E458FF4FBE
:1001D0008491F901E057FF4FD491F901E255FF4FA7
:1001E000C491CC23A9F0162F81110E948E00EC2F10
:1001F000F0E0EE0FFF1FEC55FF4FA591B4918FB7C4
:10020000F894EC91111108C0D095DE23DC938FBFD8
:10021000DF91CF911F910895DE2BF8CFCF93DF931D
:1002200090E0FC01E057FF4F249182559F4FFC0165
:1002300084918823D1F090E0880F991FFC01E85940
:10024000FF4FA591B491FC01EC55FF4FC591D4919E
:10025000623071F49FB7F8943C91822F809583238C
:100260008C93E8812E2B28839FBFDF91CF91089537
:100270008FB7F894EC912E2B2C938FBFF6CFCF92A3
:10028000DF92EF92FF92CF936C01809102018D304B
:1002900049F08F3F09F44FC0CF91FF90EF90DF906E
:1002A000CF900895E2ECF0E0C491C7FDF5CF61E096
:1002B0008DE00E940E01CC2319F0C23009F0D9C0A4
:1002C000F12CE12C68E478EE81E090E0A701960142
:1002D0000E944914BA01A9014150510961097109EB
:1002E000CC2309F406C1C23009F094C04F3F510538
:1002F0006105710509F00CF4BAC064E274EF80E0A6
:1003000090E0A70196010E944914BA01A901415049
:1003100051096109710995E08091B100887F892BAD
:100320008093B100C13009F4BCC0C23009F4CEC022
:10033000C111B2CF8AC08DE080930201E2ECF0E0FF
:10034000C491CF3F09F4A8CFC13021F150F0C230A1
:1003500009F43EC0C7FDA0CF61E08DE00E940E0110
:10036000ACCF14BC15BC84B5826084BD85B58160FA
:1003700085BDEBEBF0E0E491F0E0EE0FFF1FEC55F4
:10038000FF4F85919491EDE9F0E0E491E09323042F
:10039000C0E08DCF1092800010928100809181008A
:1003A00088608093810080918100816080938100CA
:1003B000EBEBF0E0E491F0E0EE0FFF1FEC55FF4FA8
:1003C00085919491EDE9F0E0E491E09322046FCF00
:1003D0001092B0001092B1008091B00082608093C2
:1003E000B0008091B10081608093B100EBEBF0E050
:1003F000E491F0E0EE0FFF1FEC55FF4F85919491D3
:100400009093210480932004EDE9F0E0E491E093DF
:100410001F044DCF4F3F51056105710541F13CF17E
:1004200062E17AE780E090E0A70196010E9449141A
:10043000BA01A9014150510961097109C11162C094
:1004400094E085B5887F892B85BD47BD8FEF9FEFF1
:10045000DC0180932C0490932D04A0932E04B09380
:100460002F0480916E00826080936E0015CF94E01F
:1004700053CF960150E040E060E072E18AE790E0FF
:100480000E944914BA01A901415051096109710939
:10049000C13009F047CF80918100887F81608093CF
:1004A000810050938900409388008FEF9FEFDC011B
:1004B0008093280490932904A0932A04B0932B04DA
:1004C00080916F00826080936F00E6CE4093B3000E
:1004D0008FEF9FEFDC018093240490932504A09379
:1004E0002604B0932704809170008260809370008E
:1004F000D3CE93E04F3F51056105710511F00CF02B
:100500008FCF9FCF96E008CF1F93CF93DF93182F05
:10051000EB0161E00E940E01209739F460E0812F29
:10052000DF91CF911F910C94E000CF3FD10511F4E2
:1005300061E0F5CFE12FF0E0E458FF4FE491E330C4
:1005400031F140F4E130B1F0E230E1F0C038D105F2
:100550007CF7E4CFE73029F1E83059F1E430B1F726
:1005600080918000806280938000D0938B00C09344
:100570008A0004C084B5806884BDC7BDDF91CF9177
:100580001F91089584B5806284BDC8BDF7CF809166
:100590008000806880938000D0938900C093880099
:1005A000EDCF8091B00080688093B000C093B3001D
:1005B000E5CF8091B00080628093B000C093B4001A
:1005C000DDCF8230910538F0880F991F880F991F71
:1005D00005970197F1F708953FB7F89480911B04B0
:1005E00090911C04A0911D04B0911E0426B5A89BF7
:1005F00005C02F3F19F00196A11DB11D3FBFBA2FB5
:10060000A92F982F8827BC01CD01620F711D811D74
:10061000911D42E0660F771F881F991F4A95D1F7F9
:1006200008958F929F92AF92BF92CF92DF92EF92F6
:10063000FF926B017C010E94EC024B015C01C11432
:10064000D104E104F104B9F00E94EC0268197909BF
:100650008A099B09683E73408105910580F321E07A
:10066000C21AD108E108F10888EE880E83E0981ECE
:10067000A11CB11CE4CFFF90EF90DF90CF90BF9012
:10068000AF909F908F9008950895909102018913E3
:100690000BC0E2ECF0E0E4919FEF90930201E130B7
:1006A00049F028F0E23061F060E00C94E000109234
:1006B0006E00FACF90916F009D7F90936F00F4CF02
:1006C000909170009D7F9093700091E09093B000A6
:1006D0009091B100987F94609093B1001092B30014
:1006E000E3CFAF92BF92CF92DF92EF92FF920F9340
:1006F0001F93CF93DF936C017B018B01040F151FB8
:10070000EB015E01AE18BF08C017D10759F069911F
:10071000D601ED91FC910190F081E02DC601099583
:10072000892B79F7C501DF91CF911F910F91FF9030
:10073000EF90DF90CF90BF90AF900895FC01538D64
:10074000448D252F30E0842F90E0821B930B5417AB
:1007500010F0CF96089501970895FC01918D828D38
:10076000981761F0A28DAE0FBF2FB11D5D968C91D1
:10077000928D9F5F9F73928F90E008958FEF9FEF10
:100780000895FC01918D828D981731F0828DE80FCC
:10079000F11D858D90E008958FEF9FEF0895FC0186
:1007A000918D228D892F90E0805C9F4F821B910953
:1007B0008F739927089580E394E00E94CF0321E08E
:1007C000892B09F420E0822F089580E090E0892BA6
:1007D00029F00E94DB0381110C9400000895FC01B4
:1007E000A48DA80FB92FB11DA35ABF4F2C91848D92
:1007F00090E001968F739927848FA689B7892C93EF
:10080000A089B1898C91837080648C93938D848D41
:10081000981306C00288F389E02D80818F7D808344
:100820000895EF92FF920F931F93CF93DF93EC0104
:1008300081E0888F9B8D8C8D98131AC0E889F98987
:10084000808185FF15C09FB7F894EE89FF8960838A
:10085000E889F98980818370806480839FBF81E00B
:1008600090E0DF91CF911F910F91FF90EF9008954D
:10087000F62E0B8D10E00F5F1F4F0F731127E02E28
:100880008C8D8E110CC00FB607FCFACFE889F98960
:10089000808185FFF5CFCE010E94EF03F1CFEB8D74
:1008A000EC0FFD2FF11DE35AFF4FF0829FB7F89434
:1008B0000B8FEA89FB8980818062CFCFCF93DF9352
:1008C000EC01888D8823B9F0AA89BB89E889F98968
:1008D0008C9185FD03C0808186FD0DC00FB607FC9D
:1008E000F7CF8C9185FFF2CF808185FFEDCFCE01D0
:1008F0000E94EF03E9CFDF91CF910895DF92EF924D
:10090000FF920F931F93CF93DF93D82E05E010E053
:10091000D0E0C0E08BECE82E87E0F82E8D2D0E9411
:10092000B700892B09F42196C7010197F1F701500F
:100930001109A1F781E022970CF480E0DF91CF91BB
:100940001F910F91FF90EF90DF9008952091DD04AB
:100950003091DE04232B39F421E0FC0180818823CF
:1009600061F020E00AC0BC018091D9049091DA04C2
:100970000E947B1621E0892BA1F7822F08950F9307
:100980001F93CF93DF938C01EB01FC018081918158
:100990000097E1F06881798161157105A9F04281C4
:1009A00053812C813D814217530770F00E948416B9
:1009B0008C819D81F801958384831D821C82DF9147
:1009C000CF911F910F9108950E942C1588819981D4
:1009D000F801918380838A819B81938382838C81B8
:1009E0009D8195838483198218821B821A82E5CFA8
:1009F000CF93DF93EC0188819981009711F00E94D9
:100A00002C15198218821D821C821B821A82DF918A
:100A1000CF910895FC0180819181009711F00C9491
:100A20002C1508950F931F93CF93DF93EC018881CA
:100A30009981009759F02A813B812617370730F0BA
:100A400081E0DF91CF911F910F9108958B016F5F2E
:100A50007F4F0E94B515009759F0998388831B83B7
:100A60000A832C813D81232B59F7FC011082E8CFAA
:100A700080E0E7CFEF92FF920F931F93CF93DF9326
:100A80006115710541F480E0DF91CF911F910F91C5
:100A9000FF90EF90089541155105B1F07B01EC01F5
:100AA0000C811D81040F151FB8010E9412058823B7
:100AB00051F3288139818C819D81B701820F931F69
:100AC0000E9484161D830C8381E0DECFCF93DF93D9
:100AD000EC01FB0101900020E9F73197AF01461BC3
:100AE000570B0E943A05811103C0CE010E94F80401
:100AF000CE01DF91CF910895CF93DF93EC01FB01FD
:100B000044815581608171810E943A05811103C041
:100B1000CE010E94F804CE01DF91CF910895EF92AB
:100B2000FF920F931F93CF93DF93EC017B018A0118
:100B3000BA010E94120581110BC0CE010E94F80477
:100B4000CE01DF91CF911F910F91FF90EF9008950B
:100B50001D830C83B701888199810E948416F0CF90
:100B6000FB0101900020E9F73197AF01461B570BBD
:100B70000C948F050F931F93CF93DF93CDB7DEB700
:100B800062970FB6F894DEBF0FBECDBF8C01CB01CC
:100B9000F8011182108213821282158214824AE0B7
:100BA000BE016F5F7F4F0E942F11BE016F5F7F4FAD
:100BB000C8010E94B00562960FB6F894DEBF0FBE62
:100BC000CDBFDF91CF911F910F910895CF93DF9308
:100BD000EC016115710531F00E94B005CE01DF9185
:100BE000CF9108950E94F804F9CFCF93DF93EC01E1
:100BF000FB018617970749F06081718161157105C6
:100C000041F0448155810E948F05CE01DF91CF9143
:100C100008950E94F804F9CFFC011182108213821A
:100C2000128215821482FB0101900020E9F73197AE
:100C3000AF01461B570B0C948F052F923F924F929A
:100C40005F926F927F928F929F92AF92BF92CF925C
:100C5000DF92EF92FF920F931F93CF93DF93CDB765
:100C6000DEB72F970FB6F894DEBF0FBECDBF982F1B
:100C7000862F4B871901ED82FE82692F0E94E000CA
:100C800061E070E080E090E00E941103B401990CF3
:100C9000880B990B0E94801169837A838B839C83D4
:100CA000B101032C000C880B990B0E948011298143
:100CB0003A814B815C810E9441136C877D878E87CE
:100CC0009F87A6019501C601B5010E94D5126F83C9
:100CD000788789879A872D813E81A8016D817E81E1
:100CE000C8010E94DF112F81388549855A850E94ED
:100CF00041132B013C01AC019B010E94D5122C85B4
:100D00003D854E855F850E94E91318160CF073C06F
:100D1000A60195016C857D858E859F850E94DF11DA
:100D20000E94F4136D837E838C01310137FE03C072
:100D30008FEF681A780A75946794F12CE12C2101E1
:100D400046185708E214F3040CF070C0E614F704D8
:100D50000CF05DC0B7010F2C000C880B990B0E94A2
:100D6000801129813A814B815C810E9441132F813E
:100D7000388549855A850E94DF110E94F4135B0172
:100D80006C0120E030E040E85FE3B501C6010E945D
:100D9000791187FF06C0A12CB12C90E8C92E2FE352
:100DA000D22E61E08B850E94E0009501A601698149
:100DB0007A818B819C810E94DF119B01AC0160E0F4
:100DC00074E284E799E40E9441130E94BA134B0134
:100DD0005C01B694A79497948794C4010E94E102A1
:100DE00060E08B850E94E000C4010E94E1028FEF69
:100DF000E81AF80AA7CFA301920169817A818B8151
:100E00009C810E94DF110E94B3133B0196CFAD80FD
:100E1000BE806801E414F5040CF4B3CFB1016E197F
:100E20007F09072E000C880B990B99CF2F960FB6D0
:100E3000F894DEBF0FBECDBFDF91CF911F910F9110
:100E4000FF90EF90DF90CF90BF90AF909F908F90EA
:100E50007F906F905F904F903F902F9008952F92CA
:100E60003F924F925F926F927F928F929F92AF923A
:100E7000BF92CF92DF92EF92FF920F931F93CF9387
:100E8000DF9300D000D000D0CDB7DEB78BE191E08A
:100E90000E94A6048111C1C08FE191E00E94A604C6
:100EA0008823A9F05D9A61E086E00E940E0183E04C
:100EB0000E94B700019769F45E9A8BEE90E001976B
:100EC000F1F75E988BEE90E00197F1F7F0CF5D9827
:100ED000EACF8FE191E00E94A60400E510E08823AC
:100EE00011F000E911E01A8219828FE191E00E946D
:100EF000A60461E0811160E085E00E94E00061E00D
:100F000086E00E94E0006090000170900101C30142
:100F10000E94E10260E086E00E94E000C3010E94BE
:100F2000E10289819A8101969A83898308171907BA
:100F3000E1F68FE191E00E94A6048823D9F15D9A41
:100F40008FE191E00E94A604811136C028E2222E92
:100F5000312C80E090E0A0E7B3E489839A83AB83EF
:100F6000BC83412C512C3AE7632E35E4732E1E824C
:100F70001D8283E00E947E04811130C08FE191E0E8
:100F80000E94A60491E0811101C090E0410163013B
:100F90005201E980FA800B811C8121E030E046E0BB
:100FA00065E0892F0E941D06AD81BE811196BE832A
:100FB000AD83DFCF5D98C4CF88EC282E312C80E044
:100FC00090E0A0EAB2E489839A83AB83BC83412C8E
:100FD000512C90E2692E94E4792EC9CF10923903F6
:100FE000109238038D819E8126960FB6F894DEBF4D
:100FF0000FBECDBFDF91CF911F910F91FF90EF906A
:10100000DF90CF90BF90AF909F908F907F906F9028
:101010005F904F903F902F9008951E821D82E2CFE7
:101020008F929F92AF92BF92CF92DF92EF92FF92F8
:101030000F931F93CF93DF938BE191E00E94A6045F
:101040008823A9F05F9A61E088E00E940E01CBEE50
:10105000D0E082E00E94B700019759F4289ACE01AF
:101060000197F1F72898CE010197F1F7F2CF5F9839
:10107000EACFC0E5D0E08BE191E00E94A60461E0F8
:10108000811160E087E00E94E00061E088E00E945A
:10109000E0000091000110910101C8010E94E102ED
:1010A00060E088E00E94E000C8010E94E102219710
:1010B00011F78BE191E00E94A604882331F15F9A39
:1010C000D0E0C0E082E00E947E04811120C08BE16C
:1010D00091E00E94A60491E0811101C090E088E2B5
:1010E000882E912CA12CB12C28ECC22E24E4D22ED7
:1010F000E12CF12C00E713E421E030E048E067E068
:10110000892F0E941D062196DDCF5F98D9CF1092BE
:101110003B0310923A03CE01DF91CF911F910F91C3
:10112000FF90EF90DF90CF90BF90AF909F908F9007
:10113000089564E670E080E090E00E94110360E0B2
:1011400089E00E94E0000E9410080E942F07109280
:101150003D0310923C0361E089E00C94E0008F9223
:101160009F92AF92BF92CF92DF92EF92FF920F9336
:101170001F93CF93DF938C01613481E0780714F0E3
:1011800060E471E0EB0177FF02C0D0E0C0E0BE0197
:10119000601B710B77FF03C0719561957109072E74
:1011A000000C880B990B0E9480112CE53FE84AEA5D
:1011B00050E40E94DF110E94B31351E00C171D0789
:1011C0000CF050E085E0882E912CA12C90E4B92EF3
:1011D0009CE1C92E96E4D92EE12CF12C0AE714E407
:1011E0009B0148E067E0852F0E941D06CE01DF913C
:1011F000CF911F910F91FF90EF90DF90CF90BF9014
:10120000AF909F908F9008956F927F928F929F9250
:10121000AF92BF92CF92DF92EF92FF920F931F9304
:10122000CF93DF938C013B01EB01C81BD90BD7FF98
:1012300003C0D195C195D1098FE191E00E94A60428
:10124000982F48E250E0882311F048EC50E04C9F82
:1012500090014D9F300D5C9F300D112481E00615EB
:1012600017050CF080E0E12CF12C08EC13E4A12C24
:10127000B12CEAE7CE2EE5E4DE2E992351F0E12CE5
:10128000F12C00EA12E4A12CB12C68E4C62E64E42F
:10129000D62E4A0146E065E00E941D06C301DF919B
:1012A000CF911F910F91FF90EF90DF90CF90BF9063
:1012B000AF909F908F907F906F9008958F929F92A4
:1012C000AF92BF92CF92DF92EF92FF920F931F9354
:1012D000CF93DF93FC01EB01AB01481B590B57FF88
:1012E00003C051954195510988E2849F9001859FE3
:1012F000300D112481E0EC17FD070CF080E098E23E
:10130000892E912CA12CB12C4AE7C42E45E4D42E71
:10131000E12CF12C08EC13E448E067E00E941D0684
:10132000CE01DF91CF911F910F91FF90EF90DF9051
:10133000CF90BF90AF909F908F9008951F920F9283
:101340000FB60F9211242F933F938F939F93AF93D8
:10135000BF938091170490911804A0911904B09143
:101360001A043091160423E0230F2D3758F5019607
:10137000A11DB11D209316048093170490931804A7
:10138000A0931904B0931A0480911B0490911C043B
:10139000A0911D04B0911E040196A11DB11D809362
:1013A0001B0490931C04A0931D04B0931E04BF91D2
:1013B000AF919F918F913F912F910F900FBE0F9002
:1013C0001F90189526E8230F0296A11DB11DD2CFBC
:1013D0001F920F920FB60F9211242F933F934F93AA
:1013E0005F936F937F938F939F93AF93BF93EF938D
:1013F000FF938091240490912504A0912604B0913C
:101400002704892B8A2B8B2BD1F190911F04E0911B
:101410002004F09121048081892780838091240415
:1014200090912504A0912604B0912704181619065E
:101430001A061B069CF48091240490912504A09127
:101440002604B09127040197A109B10980932404CF
:1014500090932504A0932604B0932704FF91EF9165
:10146000BF91AF919F918F917F916F915F914F91BC
:101470003F912F910F900FBE0F901F901895809164
:1014800002010E944503EACF1F920F920FB60F92FE
:1014900011242F933F934F935F936F937F938F9379
:1014A0009F93AF93BF93EF93FF9380E394E00E94E9
:1014B000EF03FF91EF91BF91AF919F918F917F913A
:1014C0006F915F914F913F912F910F900FBE0F90B1
:1014D0001F9018951F920F920FB60F9211242F9301
:1014E0008F939F93EF93FF93E0914004F091410419
:1014F0008081E0914604F091470482FD1BC09081F9
:10150000809149048F5F8F7320914A04821741F0C4
:10151000E0914904F0E0E05DFB4F958F8093490432
:10152000FF91EF919F918F912F910F900FBE0F9090
:101530001F9018958081F4CFE0E3F4E013821282CB
:1015400088EE93E0A0E0B0E084839583A683B78320
:101550008DE091E09183808385EC90E0958784878E
:1015600084EC90E09787868780EC90E0918B808B6D
:1015700081EC90E0938B828B82EC90E0958B848B56
:1015800086EC90E0978B868B118E128E138E148EC4
:1015900066E373E089ED94E00E940C0663E271E07B
:1015A00083ED94E00E940C0666E373E08DEC94E01A
:1015B0000C940C06CF93DF93CDB7DEB7A4970FB68C
:1015C000F894DEBF0FBECDBF789484B5826084BD31
:1015D00084B5816084BD85B5826085BD85B5816037
:1015E00085BD80916E00816080936E0010928100B5
:1015F0008091810082608093810080918100816070
:101600008093810080918000816080938000809130
:10161000B10084608093B1008091B00081608093BC
:10162000B00080917A00846080937A0080917A0083
:10163000826080937A0080917A00816080937A0042
:1016400080917A00806880937A001092C100E091C6
:101650004004F091410482E08083E0913C04F091E9
:101660003D041082E0913E04F0913F0480E18083CC
:1016700010924804E0914404F091450486E0808390
:10168000E0914204F0914304808180618083E09185
:101690004204F0914304808188608083E091420499
:1016A000F0914304808180688083E0914204F0914E
:1016B000430480818F7D808386E480937C008091C9
:1016C0007A00806480937A0080917A0086FDFCCF56
:1016D0006091780070917900072E000C880B990BAF
:1016E0000E9480112AE038E240EA5BE30E94DF11A9
:1016F0004B015C0124EA30E74DE75FE30E9479117A
:101700006BE971E01816D4F422E538EB4EEF5FE395
:10171000C501B4010E9479116BE171E0181674F4EF
:1017200029E23CE54FE350E4C501B4010E94791180
:101730006FE971E0181614F46FE171E0CE010196C3
:101740000E940C06BE016F5F7F4F89ED94E00E94FE
:10175000BF04CE0101960E940A0561E088E00E9464
:101760000E0161E087E00E940E0162E082E00E94CB
:101770000E018BE191E00E94A60481110CC061E092
:1017800086E00E940E0161E085E00E940E0162E0A9
:1017900083E00E940E0161E089E00E940E0161E099
:1017A00089E00E94E0008BE191E00E94A60488237A
:1017B000C1F061E083E00E940E0160E083E00E94DE
:1017C000E00061E08FE00E940E0160E08FE00E9487
:1017D000E00061E085E00E940E0161E086E00E9489
:1017E0000E0161E08DE00E940E0161E08DE00E943B
:1017F000E00061E08DE00E940E0160E08DE00E945B
:10180000E00066E373E0CE014F960E940C068FB7AE
:10181000F8948090170490901804A0901904B09048
:101820001A048FBF66E373E0CE014F960E94B005A5
:1018300010E0F12C2FB7F8948091170490911804C0
:10184000A0911904B0911A042FBF88199909AA0907
:10185000BB0984369105A105B10508F0BCC480E33D
:1018600094E00E94CF03892B29F380E394E00E9447
:10187000AD03FF2091F08A3009F4DFC38D3009F405
:10188000DCC389831A8241E050E0BE016F5F7F4F65
:10189000CE014F960E943A05CDCF182FFF24F39426
:1018A000C9CF163719F463ED74E0D8C3113209F0CB
:1018B0005DC3109211041092100466E373E0CE0130
:1018C00001960E940C0610E000E0E12C8BA19CA187
:1018D0000817190708F04EC08F8D98A1009721F1C5
:1018E000800F911FFC0180818C37F9F489819A81E6
:1018F0000097B1F00E940811E0911004F0911104DA
:10190000EE0FFF1FEE57FC4F7183608366E373E0B9
:10191000CE0101960E94B005E12C0F5F1F4FD6CF7C
:1019200060E070E0CB01E8CF80E0E11017C02091CB
:10193000100430911104A9014F5F5F4F50931104BF
:1019400040931004225C3C4FF901808366E373E00E
:10195000CE0101960E94B005EF2CDFCF8F83188651
:1019600041E050E0BE01695F7F4FCE0101960E94C9
:101970003A05D3CF8D819E81892B89F089819A8107
:10198000009709F456C00E940811E0911004F091EC
:101990001104EE0FFF1FEE57FC4F71836083CE01E1
:1019A00001960E940A05109213041092120480916D
:1019B00012049091130420911004309111048217A5
:1019C00093070CF04FC3FC01EE0FFF1FEC57FC4FC9
:1019D00000811181825C9C4FFC01F08066E373E022
:1019E000CE0149960E940C06EEE9EF0DE93108F0B0
:1019F0009BC10E2E000CFF0BE050F34F0C946814AB
:101A0000D40D940E390DC30D940E940E940E200F28
:101A1000940E940E940E820E940E840FCF0E940E9C
:101A2000940E940E9D0F5C0F700F1D0DE80D330E7C
:101A30005A0E60E070E0CB01A8CFB801012E000C77
:101A4000880B990B0E941103B801CE0101960E94E8
:101A5000BA0563EA71E0CE0107960E940C06BE014A
:101A60006F5F7F4FCE0107960E947C0563E371E0B4
:101A7000E0C00130110509F046C08AE491E00E94FF
:101A80003F0166E970E080E090E00E94110388E881
:101A900091E00E943F0166E970E080E090E00E94E2
:101AA000110383E992E00E943F0166E970E080E063
:101AB00090E00E9411038BE092E00E943F0166E9F2
:101AC00070E080E090E00E9411038BE492E00E94BD
:101AD0003F0166E970E080E090E00E94110380E140
:101AE00093E00E943F0166E970E080E090E00E9490
:101AF00011038DE00E9445036AEA71E0CE01499628
:101B00000E94B00511C18EE692E00E943F016CE296
:101B100071E080E090E00E9411038BE492E00E946B
:101B20003F016CE271E080E090E00E9411038AE2E4
:101B300092E00E943F016CE271E080E090E00E9440
:101B400011038AE0F82E01E012E0C8010E943F0173
:101B500065E070E080E090E00E9411030F5F1F4F8E
:101B60000631F2E01F0789F7FA94F110ECCF8DE00F
:101B70000E94450364EF71E080E090E00E94110351
:101B80006EEB71E0BBCF0130110539F460E089E004
:101B90000E94E00063ED71E0B1CF61E089E00E9456
:101BA000E0006AEE71E0AACFC8010197883E934039
:101BB00060F41093010100930001B801CE01019679
:101BC0000E94BA0562E072E046CF6CE072E096CF08
:101BD0008BE191E00E94A604882361F010933B03FF
:101BE00000933A03B801CE0101960E94BA056EE156
:101BF00072E031CF8FE191E00E94A604882329F1A1
:101C00008EE591E0B8018017910710F5CE0101969D
:101C10000E94BA0562E272E0CE0107960E940C06AD
:101C2000BE016F5F7F4FCE0107960E947C0560EF7B
:101C300072E00E946605BC01CE0149960E94F5053E
:101C4000CE0107960E940A05F6C088EC90E0DACF34
:101C500080913A0390913B030E945E0990933B036D
:101C600080933A03BFCF8BE191E00E94A6048823C2
:101C7000F1F0B801013481E0180738F0CE01019687
:101C80000E94BA0561E372E0C7CF80913C03909156
:101C90003D030E94AF0890933D0380933C03B8013D
:101CA000CE0101960E94BA0560E472E0D4CE64E4ED
:101CB00072E024CF8FE191E00E94A604882369F0AE
:101CC00080E590E0B8018017910750F4CE010196AD
:101CD0000E94BA0560E572E09FCF88EC90E0F2CFF9
:101CE00080913803909139030E940409909339033D
:101CF00080933803B801CE0101960E94BA056FE5C2
:101D000072E0A9CE0130110529F50E94100882E089
:101D10000E94B70066E271E0892B11F068E371E080
:101D2000CE0149960E94E6054D8D5E8D698D7A8DB6
:101D30008DEC94E00E943A05CE0149960E940A0576
:101D40008091120490911304019690931304809350
:101D500012042DCE0230110581F40E941008109259
:101D60003D0310923C0382E00E94B7006DE471E0F5
:101D7000892BB1F26FE571E0D3CF63E672E00330F7
:101D8000110509F0BBCE0E942F0783E00E94B70027
:101D900064E771E0892B21F266E871E0C1CF6091C0
:101DA000380370913903CE0101960E94BA05609103
:101DB0003C0370913D03CE0107960E94BA056091E5
:101DC0003A0370913B03CE010D960E94BA0566E777
:101DD00072E0CE0143960E940C06BE01635F7F4F06
:101DE000CE0143960E947C056AE772E00E94660578
:101DF000BE01695F7F4F0E947C056EE772E00E9422
:101E00006605BE016F5F7F4F0E947C0560EF72E048
:101E10000E946605BC01CE0149960E94F505CE01DF
:101E200043960E940A05CE010D960E940A05CE0136
:101E300007960E940A05CE0101960E940A0574CFFA
:101E40000130110581F482E00E94B70061E070E08A
:101E5000892B11F070E060E0CE0101960E94BA0576
:101E600062E872E0F8CD0230110581F482E00E9450
:101E7000B70061E070E0892B11F070E060E0CE0106
:101E800001960E94BA056DE872E0E5CD63EA72E062
:101E90000330110509F032CE83E00E94B70061E003
:101EA00070E0892B11F070E060E0CE0101960E9495
:101EB000BA0568E972E0CFCD8BE191E00E94A604FB
:101EC00062EC72E0882309F419CE61E0013011055B
:101ED00009F060E083E00E94E00064EB72E00ECE67
:101EE0008BE191E00E94A60461EE72E0882309F480
:101EF00005CE61E00130110509F060E08FE00E943D
:101F0000E00062ED72E0FACD8BE191E00E94A60460
:101F1000882381F00F3F110509F060F4B80185E0D6
:101F20000E948402B801CE0101960E94BA0562EFB8
:101F300072E091CD6AEF72E0E1CD8BE191E00E9419
:101F4000A604882321F00F3F110521F018F068E066
:101F500073E0D4CDB80186E00E948402B801CE01BE
:101F600001960E94BA0566E173E075CD133209F05F
:101F700052C064E670E080E090E00E94110360E0EF
:101F800089E00E94E0000E9410080E942F07109232
:101F90003D0310923C038FE991E00E94A604882340
:101FA00039F16EE670E080913A0390913B030E9414
:101FB0005E0990933B0380933A036FE070E0809159
:101FC0003803909139030E94040990933903809358
:101FD00038036FE070E090E080E00E94AF089093DB
:101FE0003D0380933C0361E089E00E94E0003AC039
:101FF0008FE191E00E94A6048823A9F360E570E0D8
:1020000080913803909139030E9404099093390319
:1020100080933803E8CF1D3319F40E94990822C039
:102020001034D9F310921504109214046EE173E089
:102030008DEC94E00E94B00515C081E090E0909393
:1020400015048093140466E373E08DEC94E00E9421
:10205000B0051F3309F025CC69ED74E08DEC94E0F8
:102060000E94F5058091140490911504029720F0C8
:1020700010921504109214040091D1041091D2040E
:1020800004361105BCF166E373E0CE0101960E94AF
:102090000C060091D1041091D20401151105E9F04C
:1020A0000336110510F003E610E0E091CD04F09145
:1020B000CE04E00FF11FF08010826091CD0470918A
:1020C000CE04CE0101960E94E6058091CD04909148
:1020D000CE04080F191FF801F082BE016F5F7F4F19
:1020E0008DEC94E00E94BF04CE0101960E940A0587
:1020F00003E610E0B801CE0101960E94BA0564E241
:1021000071E00A30110514F066E373E0CE01079622
:102110000E940C06BE016F5F7F4FCE0107960E94A2
:102120007C051E861D86188A1F861A8A198ABC019C
:10213000CE010D960E94F505CE0107960E940A0574
:10214000CE0101960E940A05609114047091150455
:10215000CE0107960E94BA051A8219821C821B8240
:102160001E821D82BE01695F7F4FCE0101960E94D3
:10217000F505BE01635F7F4FCE0101960E947C058D
:102180006DEC74E00E947C0565E373E00E946605D7
:102190001C8A1B8A1E8A1D8A188E1F8ABC01CE01CA
:1021A00043960E94F505CE0101960E940A05CE01D4
:1021B00007960E940A05CE010D960E940A054F89D6
:1021C000588D6B897C8980E394E00E947103CE0175
:1021D00043960E940A05CE014F960E940A0580E0B0
:1021E00090E0892B09F40DCB0E94DB03882309F4CE
:1021F00008CB0E94000005CB8DEC94E00E940A05FC
:1022000083ED94E00E940A0589ED94E00C940A05A0
:102210001F93FC0199278827BC01E8941191103283
:10222000E9F3193010F01E30C8F31B3251F01D32A3
:1022300049F4689406C00E943A11610F711D811D16
:10224000911D119110531A30B0F33EF49095809582
:10225000709561957F4F8F4F9F4F1F910895BB27BA
:102260004A3031F4992322F4BDE2909581959F4F35
:102270000C945011592F482F372F262F660F771F98
:10228000881F991F660F771F881F991F620F731F82
:10229000841F951F660F771F881F991F0895BB27FE
:1022A000FB015527AA27880F991FAA1FA41710F012
:1022B000A41B83955051B9F7A05DAA3308F0A95D1E
:1022C000A193009779F7B111B1931192CB010C94BE
:1022D0006911DC01FC01672F71917723E1F73297D7
:1022E00004C07C916D9370836291AE17BF07C8F3F1
:1022F00008950E94BB1108F481E00895E89409C094
:1023000097FB3EF490958095709561957F4F8F4F28
:102310009F4F9923A9F0F92F96E9BB279395F6953E
:10232000879577956795B795F111F8CFFAF4BB0FBC
:1023300011F460FF1BC06F5F7F4F8F4F9F4F16C020
:10234000882311F096E911C0772321F09EE8872FAA
:10235000762F05C0662371F096E8862F70E060E066
:102360002AF09A95660F771F881FDAF7880F9695DF
:10237000879597F90895990F0008550FAA0BE0E883
:10238000FEEF16161706E807F907C0F01216130637
:10239000E407F50798F0621B730B840B950B39F477
:1023A0000A2661F0232B242B252B21F408950A26DD
:1023B00009F4A140A6958FEF811D811D08950E940B
:1023C000F2110C9463120E94551238F00E945C12B4
:1023D00020F0952311F00C944C120C9452121124FD
:1023E0000C9497120E94741270F3959FC1F3950F8D
:1023F00050E0551F629FF001729FBB27F00DB11D89
:10240000639FAA27F00DB11DAA1F649F6627B00D18
:10241000A11D661F829F2227B00DA11D621F739F01
:10242000B00DA11D621F839FA00D611D221F749F0F
:102430003327A00D611D231F849F600D211D822F56
:10244000762F6A2F11249F5750409AF0F1F088237D
:102450004AF0EE0FFF1FBB1F661F771F881F9150AA
:102460005040A9F79E3F510580F00C944C120C94FB
:1024700097125F3FE4F3983ED4F38695779567957E
:10248000B795F795E7959F5FC1F7FE2B880F911DD4
:102490009695879597F9089597F99F6780E870E07A
:1024A00060E008959FEF80EC089500240A941616CA
:1024B000170618060906089500240A941216130632
:1024C000140605060895092E0394000C11F48823C0
:1024D00052F0BB0F40F4BF2B11F460FF04C06F5FDC
:1024E0007F4F8F4F9F4F089557FD9058440F551FB2
:1024F00059F05F3F71F04795880F97FB991F61F086
:102500009F3F79F087950895121613061406551FFC
:10251000F2CF4695F1DF08C0161617061806991F68
:10252000F1CF86957105610508940895E894BB275D
:1025300066277727CB0197F908952F923F924F9204
:102540005F926F927F928F929F92AF92BF92CF9243
:10255000DF92EF92FF920F931F93CF93DF93CDB74C
:10256000DEB7CA1BDB0B0FB6F894DEBF0FBECDBFC4
:1025700009942A88398848885F846E847D848C8495
:102580009B84AA84B984C884DF80EE80FD800C819E
:102590001B81AA81B981CE0FD11D0FB6F894DEBF81
:1025A0000FBECDBFED0108955058BB27AA270E944A
:1025B000EC120C9463120E94551238F00E945C12C7
:1025C00020F039F49F3F19F426F40C9452120EF4C3
:1025D000E095E7FB0C944C12E92F0E94741258F31B
:1025E000BA17620773078407950720F079F4A6F5F8
:1025F0000C9496120EF4E0950B2EBA2FA02D0B0121
:10260000B90190010C01CA01A0011124FF27591B37
:1026100099F0593F50F4503E68F11A16F040A22F3D
:10262000232F342F4427585FF3CF469537952795AE
:10263000A795F0405395C9F77EF41F16BA0B620BAD
:10264000730B840BBAF09150A1F0FF0FBB1F661FF4
:10265000771F881FC2F70EC0BA0F621F731F841F37
:1026600048F4879577956795B795F7959E3F08F05D
:10267000B0CF9395880F08F09927EE0F979587951F
:1026800008950E9455130C9463120E945C1258F036
:102690000E94551240F029F45F3F29F00C944C122F
:1026A00051110C9497120C9452120E94741268F3F8
:1026B0009923B1F3552391F3951B550BBB27AA27FB
:1026C00062177307840738F09F5F5F4F220F331F35
:1026D000441FAA1FA9F335D00E2E3AF0E0E832D0FD
:1026E00091505040E695001CCAF72BD0FE2F29D000
:1026F000660F771F881FBB1F261737074807AB07D2
:10270000B0E809F0BB0B802DBF01FF2793585F4F46
:102710003AF09E3F510578F00C944C120C949712AD
:102720005F3FE4F3983ED4F3869577956795B79528
:10273000F7959F5FC9F7880F911D9695879597F933
:102740000895E1E0660F771F881FBB1F62177307AC
:102750008407BA0720F0621B730B840BBA0BEE1FC1
:1027600088F7E09508950E94BA136894B1110C940B
:10277000971208950E947C1288F09F5798F0B92F05
:102780009927B751B0F0E1F0660F771F881F991FA6
:102790001AF0BA95C9F714C0B13091F00E949612A0
:1027A000B1E008950C949612672F782F8827B85FB0
:1027B00039F0B93FCCF3869577956795B395D9F7FE
:1027C0003EF490958095709561957F4F8F4F9F4F08
:1027D00008950E94BB1108F48FEF089519F416F4C0
:1027E0000C9452120C9434140E947C12B8F3992366
:1027F000C9F3B6F39F57550B87FF0E94421400247C
:10280000A0E640EA900180585695979528F4805CA0
:10281000660F771F881F20F026173707480730F408
:10282000621B730B840B202931294A2BA695179420
:102830000794202531254A2758F7660F771F881FF0
:1028400020F026173707480730F4620B730B840B10
:10285000200D311D411DA09581F7B901842F91589C
:10286000880F9695879508959F3F31F0915020F4F9
:10287000879577956795B795880F911D969587955C
:1028800097F9089591505040660F771F881FD2F72F
:102890000895052E97FB1EF400940E94601457FDC6
:1028A00007D00E946E1407FC03D04EF40C94601401
:1028B00050954095309521953F4F4F4F5F4F08956C
:1028C00090958095709561957F4F8F4F9F4F08959C
:1028D000EE0FFF1F0590F491E02D0994A1E21A2E4E
:1028E000AA1BBB1BFD010DC0AA1FBB1FEE1FFF1FB4
:1028F000A217B307E407F50720F0A21BB30BE40B04
:10290000F50B661F771F881F991F1A9469F760954A
:102910007095809590959B01AC01BD01CF01089504
:102920000F931F93CF93DF938230910510F482E0D1
:1029300090E0E091E104F091E20430E020E0B0E0CA
:10294000A0E0309799F42115310509F44AC0281BFD
:10295000390B24303105D8F58A819B8161157105C9
:1029600089F1FB0193838283FE0111C04081518173
:102970000281138148175907E0F04817590799F465
:10298000109761F012960C93129713961C9332963F
:10299000CF01DF91CF911F910F9108950093E10432
:1029A0001093E204F4CF2115310551F0421753077B
:1029B00038F0A901DB019A01BD01DF01F801C1CFA7
:1029C000EF01F9CF9093E2048093E104CDCFFE01B3
:1029D000E20FF31F819391932250310939832883A9
:1029E000D7CF2091DF043091E004232B41F42091D4
:1029F0000501309106013093E0042093DF0420911B
:102A00000301309104012115310541F42DB73EB782
:102A10004091070150910801241B350BE091DF0420
:102A2000F091E004E217F307A0F42E1B3F0B2817E8
:102A3000390778F0AC014E5F5F4F2417350748F037
:102A40004E0F5F1F5093E0044093DF0481939193F6
:102A50009FCFF0E0E0E09CCFCF93DF930097E9F0C9
:102A6000FC01329713821282A091E104B091E2043A
:102A7000ED0130E020E01097A1F420813181820F38
:102A8000931F2091DF043091E0042817390709F0E3
:102A900061C0F093E004E093DF04DF91CF910895EB
:102AA000EA01CE17DF07E8F54A815B819E014115F7
:102AB0005105B1F7E901FB83EA8349915991C40FAC
:102AC000D51FEC17FD0761F4808191810296840F78
:102AD000951FE90199838883828193819B838A83EF
:102AE000F0E0E0E012968D919C9113970097B9F574
:102AF0002D913C911197CD010296820F931F209149
:102B0000DF043091E0042817390739F6309751F582
:102B10001092E2041092E104B093E004A093DF0469
:102B2000BCCFD383C28340815181840F951FC817C6
:102B3000D90761F44E5F5F4F88819981480F591F13
:102B4000518340838A819B81938382832115310540
:102B500009F0B0CFF093E204E093E1049ECFFD01D1
:102B6000DC01C0CF13821282D7CFB0E0A0E0EBEB44
:102B7000F5E10C949F128C01009751F4CB010E9457
:102B800090148C01C801CDB7DEB7E0E10C94BB1204
:102B9000FC01E60FF71F9C0122503109E217F307F1
:102BA00008F49DC0D901CD91DC911197C617D707C4
:102BB00098F0C530D10530F3CE01049786179707FA
:102BC00008F3C61BD70B2297C193D1936D937C93C7
:102BD000CF010E942C15D6CF5B01AC1ABD0A4C0167
:102BE0008C0E9D1EA091E104B091E204512C412C69
:102BF000F12CE12C109731F58091DF049091E004E5
:102C00008815990509F05CC04616570608F058C0AB
:102C10008091030190910401009741F48DB79EB714
:102C20004091070150910801841B950BE817F907A3
:102C300008F055C0F093E004E093DF04F9017183DC
:102C40006083A0CF8D919C91119712966C901297F2
:102C500013967C901397A815B90559F56C0142E0BD
:102C6000C40ED11CCA14DB0420F1AC014A195B0963
:102C7000DA011296159780F0628273825183408345
:102C8000D9016D937C93E114F10471F0D70113968F
:102C9000FC93EE93129776CF22968C0F9D1FF9012D
:102CA00091838083F301EFCFF093E204E093E1049A
:102CB00069CF4816590608F42C017D01D3019ACF3B
:102CC000CB010E9490147C01009749F0AE01B8013D
:102CD0000E947216C8010E942C15870153CF10E084
:102CE00000E050CFFB01DC0102C001900D92415089
:102CF0005040D8F70895FB01DC018D9101908019B7
:102D00000110D9F3990B0895FB01DC0101900D929C
:102D10000020E1F7089510E0C3E6D0E004C0FE0112
:102D20000E9468142196C436D107C9F7F894FFCFE2
:102D30003200FF0000E30480000000000011047175
:102D4000039E035E04CF03AD03C103504E45004212
:102D50004544003330005B66696E64686F6D653AA8
:102D6000313A583A4F4B5D005B66696E64686F6D2F
:102D7000653A313A583A4552524F525D005B6669A6
:102D80006E64686F6D653A323A593A4F4B5D005B3D
:102D900066696E64686F6D653A323A593A455252C7
:102DA0004F525D005B66696E64686F6D653A333AD9
:102DB0005A3A4F4B5D005B66696E64686F6D653AA9
:102DC000333A5A3A4552524F525D0053454E0041F4
:102DD000524D005B776169743A005B736F756E6486
:102DE0003A6C6576656C2075703A4F4B5D005B738D
:102DF0006F756E643A67616D65206F7665723A4FE4
:102E00004B5D005B656E61626C652073746570700C
:102E100065723A6F6E3A4F4B5D005B656E61626C36
:102E20006520737465707065723A6F66663A4F4BD1
:102E30005D005B757344656C61793A005B75734442
:102E4000656C61793A4241445F4152475D005B786D
:102E50003A005B783A4F55545F424F554E44533ACF
:102E6000005B793A4F55545F424F554E44533A00F8
:102E70005B793A005B793A4241445F434D445D00DF
:102E80005B7A3A4F55545F424F554E44533A005B7C
:102E90007A3A005B66696E64686F6D653A424144D8
:102EA0005F4152475D005B583A002C593A002C5A5A
:102EB0003A005B6973486F6D653A583A005B697315
:102EC000486F6D653A593A005B6973486F6D653AB2
:102ED0005A3A005B6973486F6D653A4241445F41FD
:102EE00052475D005B72656C61793A6F6E3A4F4B89
:102EF0005D005B72656C61793A4241445F434D44C9
:102F00005D005B72656C6179323A6F6E3A4F4B5D72
:102F1000005B72656C6179323A4241445F434D44D3
:102F20005D005B48426F3A413A005B48426F3A426B
:102F300041445F434D445D005B4842743A42414422
:102F40005F434D445D005B4842743A423A00434F50
:102F50004D4D414E44204E4F54205245434F474E15
:082F6000495A4544000A000033
:107E0000112484B714BE81FFF0D085E080938100F7
:107E100082E08093C00088E18093C10086E0809377
:107E2000C20080E18093C4008EE0C9D0259A86E02C
:107E300020E33CEF91E0309385002093840096BBD3
:107E4000B09BFECF1D9AA8958150A9F7CC24DD24C4
:107E500088248394B5E0AB2EA1E19A2EF3E0BF2EE7
:107E6000A2D0813461F49FD0082FAFD0023811F036
:107E7000013811F484E001C083E08DD089C08234E0
:107E800011F484E103C0853419F485E0A6D080C0E4
:107E9000853579F488D0E82EFF2485D0082F10E0AE
:107EA000102F00270E291F29000F111F8ED06801E7
:107EB0006FC0863521F484E090D080E0DECF843638
:107EC00009F040C070D06FD0082F6DD080E0C81688
:107ED00080E7D80618F4F601B7BEE895C0E0D1E017
:107EE00062D089930C17E1F7F0E0CF16F0E7DF06D8
:107EF00018F0F601B7BEE89568D007B600FCFDCFD4
:107F0000A601A0E0B1E02C9130E011968C91119780
:107F100090E0982F8827822B932B1296FA010C0160
:107F200087BEE89511244E5F5F4FF1E0A038BF0790
:107F300051F7F601A7BEE89507B600FCFDCF97BE46
:107F4000E89526C08437B1F42ED02DD0F82E2BD052
:107F50003CD0F601EF2C8F010F5F1F4F84911BD097
:107F6000EA94F801C1F70894C11CD11CFA94CF0C13
:107F7000D11C0EC0853739F428D08EE10CD085E9AC
:107F80000AD08FE07ACF813511F488E018D01DD067
:107F900080E101D065CF982F8091C00085FFFCCF94
:107FA0009093C60008958091C00087FFFCCF809118
:107FB000C00084FD01C0A8958091C6000895E0E648
:107FC000F0E098E1908380830895EDDF803219F02E
:107FD00088E0F5DFFFCF84E1DECF1F93182FE3DFCA
:107FE0001150E9F7F2DF1F91089580E0E8DFEE27F6
:047FF000FF270994CA
:027FFE00040479
:00000001FF
