:100000000C9464000C948C000C948C000C948C0068
:100010000C948C000C948C000C948C000C94740840
:100020000C948C000C948C000C948C000C948C0020
:100030000C948C000C948C000C948C000C948C0010
:100040000C942A080C948C000C94F6080C94D0089C
:100050000C948C000C948C000C948C000C948C00F0
:100060000C948C000C948C000000000024002700ED
:100070002A000000000023002600290000000008DC
:10008000000201000003040700000000000000005F
:10009000010204081020408001020408102001021F
:1000A0000408102000000000250028002B00040494
:1000B0000404040404040202020202020303030310
:1000C0000303020028099A1011241FBECFEFD8E0C5
:1000D000DEBFCDBF24E0A0E5B2E001C01D92A73095
:1000E000B207E1F712E0A0E0B1E0ECEEF9E202C005
:1000F00005900D92A035B107D9F710E0C3E6D0E026
:1001000004C02197FE010E94B212C236D107C9F77E
:100110000E9472090C94E9140C940000833081F061
:1001200028F4813099F08230A9F008958730A9F041
:100130008830C9F08430B1F4809180008F7D03C095
:10014000809180008F7780938000089584B58F77A9
:1001500084BD089584B58F7DFBCF8091B0008F77EB
:100160008093B00008958091B0008F7DF9CFCF9338
:10017000DF93282F30E0F901E458FF4F8491F90113
:10018000E057FF4FD491F901E255FF4FC491CC23C2
:10019000A1F081110E948E00EC2FF0E0EE0FFF1F06
:1001A000EE58FF4FA591B491EC91ED2381E090E0E2
:1001B00009F480E0DF91CF91089580E090E0FACFDC
:1001C0001F93CF93DF93282F30E0F901E458FF4FBE
:1001D0008491F901E057FF4FD491F901E255FF4FA7
:1001E000C491CC23A9F0162F81110E948E00EC2F10
:1001F000F0E0EE0FFF1FEC55FF4FA591B4918FB7C4
:10020000F894EC91111108C0D095DE23DC938FBFD8
:10021000DF91CF911F910895DE2BF8CFCF93DF931D
:1002200090E0FC01E057FF4F249182559F4FFC0165
:1002300084918823D1F090E0880F991FFC01E85940
:10024000FF4FA591B491FC01EC55FF4FC591D4919E
:10025000623071F49FB7F8943C91822F809583238C
:100260008C93E8812E2B28839FBFDF91CF91089537
:100270008FB7F894EC912E2B2C938FBFF6CFCF92A3
:10028000DF92EF92FF92CF936C01809108018D3045
:1002900049F08F3F09F44FC0CF91FF90EF90DF906E
:1002A000CF900895E2ECF0E0C491C7FDF5CF61E096
:1002B0008DE00E940E01CC2319F0C23009F0D9C0A4
:1002C000F12CE12C68E478EE81E090E0A701960142
:1002D0000E949312BA01A9014150510961097109A3
:1002E000CC2309F406C1C23009F094C04F3F510538
:1002F0006105710509F00CF4BAC064E274EF80E0A6
:1003000090E0A70196010E949312BA01A901415001
:1003100051096109710995E08091B100887F892BAD
:100320008093B100C13009F4BCC0C23009F4CEC022
:10033000C111B2CF8AC08DE080930801E2ECF0E0F9
:10034000C491CF3F09F4A8CFC13021F150F0C230A1
:1003500009F43EC0C7FDA0CF61E08DE00E940E0110
:10036000ACCF14BC15BC84B5826084BD85B58160FA
:1003700085BDEBEBF0E0E491F0E0EE0FFF1FEC55F4
:10038000FF4F85919491EDE9F0E0E491E0933B0318
:10039000C0E08DCF1092800010928100809181008A
:1003A00088608093810080918100816080938100CA
:1003B000EBEBF0E0E491F0E0EE0FFF1FEC55FF4FA8
:1003C00085919491EDE9F0E0E491E0933A036FCFE9
:1003D0001092B0001092B1008091B00082608093C2
:1003E000B0008091B10081608093B100EBEBF0E050
:1003F000E491F0E0EE0FFF1FEC55FF4F85919491D3
:100400009093390380933803EDE9F0E0E491E093B1
:1004100037034DCF4F3F51056105710541F13CF167
:1004200062E17AE780E090E0A70196010E949312D2
:10043000BA01A9014150510961097109C11162C094
:1004400094E085B5887F892B85BD47BD8FEF9FEFF1
:10045000DC018093440390934503A0934603B0933B
:10046000470380916E00826080936E0015CF94E008
:1004700053CF960150E040E060E072E18AE790E0FF
:100480000E949312BA01A9014150510961097109F1
:10049000C13009F047CF80918100887F81608093CF
:1004A000810050938900409388008FEF9FEFDC011B
:1004B0008093400390934103A0934203B09343037E
:1004C00080916F00826080936F00E6CE4093B3000E
:1004D0008FEF9FEFDC0180933C0390933D03A0934B
:1004E0003E03B0933F038091700082608093700060
:1004F000D3CE93E04F3F51056105710511F00CF02B
:100500008FCF9FCF96E008CF1F93CF93DF93182F05
:10051000EB0161E00E940E01209739F460E0812F29
:10052000DF91CF911F910C94E000CF3FD10511F4E2
:1005300061E0F5CFE12FF0E0E458FF4FE491E330C4
:1005400031F140F4E130B1F0E230E1F0C038D105F2
:100550007CF7E4CFE73029F1E83059F1E430B1F726
:1005600080918000806280938000D0938B00C09344
:100570008A0004C084B5806884BDC7BDDF91CF9177
:100580001F91089584B5806284BDC8BDF7CF809166
:100590008000806880938000D0938900C093880099
:1005A000EDCF8091B00080688093B000C093B3001D
:1005B000E5CF8091B00080628093B000C093B4001A
:1005C000DDCF8230910538F0880F991F880F991F71
:1005D00005970197F1F708953FB7F8948091330399
:1005E00090913403A0913503B091360326B5A89BB2
:1005F00005C02F3F19F00196A11DB11D3FBFBA2FB5
:10060000A92F982F8827BC01CD01620F711D811D74
:10061000911D42E0660F771F881F991F4A95D1F7F9
:1006200008958F929F92AF92BF92CF92DF92EF92F6
:10063000FF926B017C010E94EC024B015C01C11432
:10064000D104E104F104B9F00E94EC0268197909BF
:100650008A099B09683E73408105910580F321E07A
:10066000C21AD108E108F10888EE880E83E0981ECE
:10067000A11CB11CE4CFFF90EF90DF90CF90BF9012
:10068000AF909F908F9008950895909108018913DD
:100690000BC0E2ECF0E0E4919FEF90930801E130B1
:1006A00049F028F0E23061F060E00C94E000109234
:1006B0006E00FACF90916F009D7F90936F00F4CF02
:1006C000909170009D7F9093700091E09093B000A6
:1006D0009091B100987F94609093B1001092B30014
:1006E000E3CFAF92BF92CF92DF92EF92FF920F9340
:1006F0001F93CF93DF936C017B018B01040F151FB8
:10070000EB015E01AE18BF08C017D10759F069911F
:10071000D601ED91FC910190F081E02DC601099583
:10072000892B79F7C501DF91CF911F910F91FF9030
:10073000EF90DF90CF90BF90AF900895FC01538D64
:10074000448D252F30E0842F90E0821B930B5417AB
:1007500010F0CF96089501970895FC01918D828D38
:10076000981761F0A28DAE0FBF2FB11D5D968C91D1
:10077000928D9F5F9F73928F90E008958FEF9FEF10
:100780000895FC01918D828D981731F0828DE80FCC
:10079000F11D858D90E008958FEF9FEF0895FC0186
:1007A000918D228D892F90E0805C9F4F821B910953
:1007B0008F739927089588E493E00E94CF0321E086
:1007C000892B09F420E0822F089580E090E0892BA6
:1007D00029F00E94DB0381110C9400000895FC01B4
:1007E000A48DA80FB92FB11DA35ABF4F2C91848D92
:1007F00090E001968F739927848FA689B7892C93EF
:10080000A089B1898C91837080648C93938D848D41
:10081000981306C00288F389E02D80818F7D808344
:100820000895EF92FF920F931F93CF93DF93EC0104
:1008300081E0888F9B8D8C8D98131AC0E889F98987
:10084000808185FF15C09FB7F894EE89FF8960838A
:10085000E889F98980818370806480839FBF81E00B
:1008600090E0DF91CF911F910F91FF90EF9008954D
:10087000F62E0B8D10E00F5F1F4F0F731127E02E28
:100880008C8D8E110CC00FB607FCFACFE889F98960
:10089000808185FFF5CFCE010E94EF03F1CFEB8D74
:1008A000EC0FFD2FF11DE35AFF4FF0829FB7F89434
:1008B0000B8FEA89FB8980818062CFCFCF93DF9352
:1008C000EC01888D8823B9F0AA89BB89E889F98968
:1008D0008C9185FD03C0808186FD0DC00FB607FC9D
:1008E000F7CF8C9185FFF2CF808185FFEDCFCE01D0
:1008F0000E94EF03E9CFDF91CF910895FC0124819D
:100900003581232B39F421E0FB018081882349F0D4
:1009100020E007C0808191810E94D91421E0892BB9
:10092000B9F7822F0895AF92BF92CF92DF92EF92E4
:10093000FF920F931F93CF93DF9361E271E08DEFEE
:1009400093E00E947E0461E0811101C060E085E0D7
:100950000E94E00065E070E080E090E00E941103FA
:10096000C0E0DDE75E0189E0C82ED12C10E000E098
:10097000F12CE12C83E00E94B700019779F50F5F1D
:100980001F4F81E0C81AD108A9F70E151F05B4F052
:1009900061E086E00E94E0000091060110910701ED
:1009A000C8010E94E10260E086E00E94E000C80108
:1009B0000E94E1022197B1F6A12CB12C10925202B3
:1009C00010925102C501DF91CF911F910F91FF90BD
:1009D000EF90DF90CF90BF90AF9008958FEFE81A1F
:1009E000F80ACFCFAF92BF92CF92DF92EF92FF92F1
:1009F0000F931F93CF93DF9365E271E08DEF93E048
:100A00000E947E0461E0811101C060E087E00E94E5
:100A1000E00065E070E080E090E00E941103C0E03B
:100A2000DDE75E0189E0C82ED12C10E000E0F12C5A
:100A3000E12C82E00E94B700019779F50F5F1F4F0C
:100A400081E0C81AD108A9F70E151F05B4F061E0BE
:100A500088E00E94E0000091060110910701C801A2
:100A60000E94E10260E088E00E94E000C8010E946C
:100A7000E1022197B1F6A12CB12C109254021092F0
:100A80005302C501DF91CF911F910F91FF90EF901D
:100A9000DF90CF90BF90AF9008958FEFE81AF80ADB
:100AA000CFCF64E670E080E090E00E94110365E241
:100AB00071E08DEF93E00E947E04882371F060E086
:100AC00083E00E94E00070E060E086E00E94840223
:100AD00070E060E085E00E94840269E271E08DEFE1
:100AE00093E00E947E04811110C061E271E08DEFFD
:100AF00093E00E947E04811108C065E271E08DEFF1
:100B000093E00E947E04882321F060E089E00E9447
:100B1000E00069E271E08DEF93E00E947E048111B4
:100B200007C061E271E08DEF93E00E947E048111C5
:100B30000E9493046DE271E08DEF93E00E947E04C9
:100B4000811102C00E94F20469E271E08DEF93E02E
:100B50000E947E04811110C061E271E08DEF93E08C
:100B60000E947E04811108C065E271E08DEF93E080
:100B70000E947E04882321F061E089E00C94E0006B
:100B800008953F924F925F926F927F928F929F92C1
:100B9000AF92BF92CF92DF92EF92FF920F931F938B
:100BA000CF93DF93C82FD62F342E790165E271E001
:100BB0008DEF93E00E947E0481110CC061E271E030
:100BC0008DEF93E00E947E04882309F453C086E0F1
:100BD000381250C06C2F8D2F0E94E00065E070E04D
:100BE00080E090E00E941103C70165E070E00E9480
:100BF0007F125B0130E020E088E8882E83E1982EA8
:100C000027018FEF481A580A2E153F05B4F56901E0
:100C10008FEFC81AD80A712C612C2A153B052CF4C9
:100C2000C401B6010E947F123B01C701821B930BD6
:100C30008A159B053CF4B201621B730BC4010E9430
:100C40007F123B0161E0832D0E94E000C09106010C
:100C5000D0910701C00FD11FC60DD71DCE010E9434
:100C6000E10260E0832D0E94E000CE010E94E102DB
:100C70009601CACF61E06C27AECFDF91CF911F9173
:100C80000F91FF90EF90DF90CF90BF90AF909F902B
:100C90008F907F906F905F904F903F9008950F934B
:100CA0001F93CF93DF93EB018A01681B790B77FFCA
:100CB00003C0719561957109D7FD21C08C179D07FF
:100CC0008CF488E2869F9001879F300D112448E0C4
:100CD00067E080E00E94C105CE01DF91CF911F91B6
:100CE0000F910895C817D907BCF788E2869F900135
:100CF000879F300D112448E067E081E0EBCFCFEF14
:100D0000DFEFEACF0F931F93CF93DF93EB018A01BD
:100D1000681B790B77FF03C0719561957109D7FD49
:100D200021C08C179D078CF488E2869F9001879FD5
:100D3000300D112446E065E080E00E94C105CE013F
:100D4000DF91CF911F910F910895C817D907BCF774
:100D500088E2869F9001879F300D112446E065E070
:100D600081E0EBCFCFEFDFEFEACF0F931F93CF936D
:100D7000DF938C01EB01FC01808191810097E1F010
:100D80006881798161157105A9F0428153812C81B7
:100D90003D814217530770F00E94E2148C819D81BF
:100DA000F801958384831D821C82DF91CF911F916E
:100DB0000F9108950E948A1388819981F801918387
:100DC00080838A819B81938382838C819D8195839B
:100DD0008483198218821B821A82E5CFCF93DF9316
:100DE000EC0188819981009711F00E948A13198281
:100DF00018821D821C821B821A82DF91CF91089576
:100E0000FC0180819181009711F00C948A13089560
:100E10000F931F93CF93DF93EC0188819981009703
:100E200059F02A813B812617370730F081E0DF91A6
:100E3000CF911F910F9108958B016F5F7F4F0E949B
:100E40001314009759F0998388831B830A832C819C
:100E50003D81232B59F7FC011082E8CF80E0E7CFDA
:100E6000EF92FF920F931F93CF93DF93611571055C
:100E700041F480E0DF91CF911F910F91FF90EF90AF
:100E8000089541155105B1F07B01EC010C811D81E4
:100E9000040F151FB8010E940807882351F3288109
:100EA00039818C819D81B701820F931F0E94E214CA
:100EB0001D830C8381E0DECFCF93DF93EC01FB0138
:100EC00001900020E9F73197AF01461B570B0E94B4
:100ED0003007811103C0CE010E94EE06CE01DF91E2
:100EE000CF910895CF93DF93EC01FB0144815581AD
:100EF000608171810E943007811103C0CE010E9480
:100F0000EE06CE01DF91CF910895CF93DF9300D00D
:100F1000CDB7DEB769831A8241E050E0BE016F5F52
:100F20007F4F0E9430070F900F90DF91CF9108956F
:100F3000FB0101900020E9F73197AF01461B570BE9
:100F40000C943007EF92FF920F931F93CF93DF9390
:100F5000EC017B018A01BA010E94080781110BC0D4
:100F6000CE010E94EE06CE01DF91CF911F910F912D
:100F7000FF90EF9008951D830C83B70188819981BC
:100F80000E94E214F0CFFB0101900020E9F73197B5
:100F9000AF01461B570B0C94A2070F931F93CF93DF
:100FA000DF93CDB7DEB762970FB6F894DEBF0FBE02
:100FB000CDBF8C01CB01F801118210821382128205
:100FC000158214824AE0BE016F5F7F4F0E94D510E8
:100FD000BE016F5F7F4FC8010E94C30762960FB6C4
:100FE000F894DEBF0FBECDBFDF91CF911F910F915F
:100FF0000895CF93DF93EC01FB018617970749F023
:10100000608171816115710541F0448155810E94B3
:10101000A207CE01DF91CF9108950E94EE06F9CF8D
:10102000FC011182108213821282158214820C94A8
:10103000F907FC0111821082138212821582148238
:10104000FB0101900020E9F73197AF01461B570BD8
:101050000C94A2071F920F920FB60F9211242F9398
:101060003F938F939F93AF93BF9380912F03909162
:101070003003A0913103B091320330912E0323E06D
:10108000230F2D3758F50196A11DB11D20932E0376
:1010900080932F0390933003A0933103B0933203D6
:1010A0008091330390913403A0913503B0913603BE
:1010B0000196A11DB11D8093330390933403A09337
:1010C0003503B0933603BF91AF919F918F913F91BC
:1010D0002F910F900FBE0F901F90189526E8230FA9
:1010E0000296A11DB11DD2CF1F920F920FB60F9283
:1010F00011242F933F934F935F936F937F938F931D
:101100009F93AF93BF93EF93FF9380913C03909194
:101110003D03A0913E03B0913F03892B8A2B8B2B7B
:10112000D1F190913703E0913803F0913903808138
:101130008927808380913C0390913D03A0913E03D9
:10114000B0913F03181619061A061B069CF48091ED
:101150003C0390913D03A0913E03B0913F03019762
:10116000A109B10980933C0390933D03A0933E03F2
:10117000B0933F03FF91EF91BF91AF919F918F91FA
:101180007F916F915F914F913F912F910F900FBE83
:101190000F901F901895809108010E944503EACF97
:1011A0001F920F920FB60F9211242F933F934F93DC
:1011B0005F936F937F938F939F93AF93BF93EF93BF
:1011C000FF9388E493E00E94EF03FF91EF91BF91BA
:1011D000AF919F918F917F916F915F914F913F91CF
:1011E0002F910F900FBE0F901F9018951F920F9286
:1011F0000FB60F9211242F938F939F93EF93FF932A
:10120000E0915803F09159038081E0915E03F091E1
:101210005F0382FD1BC09081809161038F5F8F739C
:1012200020916203821741F0E0916103F0E0E85BF6
:10123000FC4F958F80936103FF91EF919F918F9168
:101240002F910F900FBE0F901F9018958081F4CFB3
:10125000E8E4F3E01382128288EE93E0A0E0B0E0CD
:1012600084839583A683B78383E191E09183808310
:1012700085EC90E09587848784EC90E0978786875B
:1012800080EC90E0918B808B81EC90E0938B828B53
:1012900082EC90E0958B848B86EC90E0978B868B2C
:1012A000118E128E138E148E63E371E08DEF93E036
:1012B0000E94190861E371E087EF93E00E9419082A
:1012C00063E371E081EF93E00E94190863E371E04A
:1012D0008BEE93E00E94190863E371E085EE93E0E2
:1012E0000C941908CF93DF93CDB7DEB76E970FB686
:1012F000F894DEBF0FBECDBF789484B5826084BD04
:1013000084B5816084BD85B5826085BD85B5816009
:1013100085BD80916E00816080936E001092810087
:101320008091810082608093810080918100816042
:101330008093810080918000816080938000809103
:10134000B10084608093B1008091B000816080938F
:10135000B00080917A00846080937A0080917A0056
:10136000826080937A0080917A00816080937A0015
:1013700080917A00806880937A001092C10086E4A0
:1013800080937C0080917A00806480937A008091C1
:101390007A0086FDFCCF6091780070917900072E6D
:1013A000000C880B990B0E9426112AE038E240EAD3
:1013B0005BE30E9485116B017C0163E371E0CE0168
:1013C00001960E94190824EA30E74DE75FE3C70160
:1013D000B6010E941F116DE271E01816C4F520E0FD
:1013E00030E040E85FE3C701B6010E947A1287FD52
:1013F0000CC022E538EB4EEF5FE3C701B6010E9457
:101400001F1165E271E0181614F520E030E040E0AD
:1014100050E4C701B6010E947A1287FD0CC029E290
:101420003CE54FE350E4C701B6010E941F1169E299
:1014300071E0181664F420E030E040E450E4C701A5
:10144000B6010E947A1287FD06C061E271E0CE010A
:1014500001960E94C307BE016F5F7F4F8DEF93E03F
:101460000E94B506CE0101960E9400076DEF73E061
:1014700085EE93E00E94F90765EE73E0CE010196D8
:101480000E9410086DE271E0CE0101960E947E0478
:10149000882309F47CC061E08DE00E940E0160E0C9
:1014A0008DE00E94E000CE0101960E940007E091CD
:1014B0005803F091590382E08083E0915403F09146
:1014C00055031082E0915603F091570380E1808329
:1014D00010926003E0915C03F0915D0386E08083ED
:1014E000E0915A03F0915B03808180618083E091F9
:1014F0005A03F0915B03808188608083E0915A03F6
:10150000F0915B03808180688083E0915A03F091C1
:101510005B0380818F7D8083C12C7DE7D72EAA2439
:10152000A394B12C60E0662E60E0762E88E493E010
:101530000E94CF03181619060CF089C166E470E00A
:1015400080E090E00E941103B0922D03A0922C0342
:1015500063E371E08BEE93E00E94C30763E371E005
:1015600081EF93E00E94C30710E088E493E00E94BB
:10157000CF03181619060CF064C088E493E00E94AB
:10158000AD03111158C080932B0311E0EECF61E23F
:1015900071E0CE0101960E947E04182F69E271E08D
:1015A000CE0101960E947E04111171C5811171C591
:1015B00065E271E0CE0101960E947E04882309F461
:1015C00072CF80E590E0909305018093040161E083
:1015D00088E00E940E0161E087E00E940E0161E058
:1015E00086E00E940E0161E085E00E940E0162E04B
:1015F00082E00E940E0182E00E94B7008093010108
:1016000061E089E00E940E0161E083E00E940E012A
:1016100061E08FE00E940E0161E08DE00E940E010A
:1016200061E08DE00E94E00060E083E00E94E00065
:1016300060E08FE07AC5682F81EF93E00E94850714
:10164000A4CF80912B036DEF73E08F3329F08637A1
:1016500009F009C167EF73E08BEE93E00E94F90790
:1016600080912C0390912D03029720F010922D036E
:1016700010922C0363E371E0CE010D960E941908CD
:101680008091EF039091F00384369105C8F163E3F4
:1016900071E0CE0101960E9419080091EF031091AC
:1016A000F0030115110509F10236110510F002E6EB
:1016B00010E0E091EB03F091EC03E00FF11FF080FC
:1016C00010826091EB037091EC03CE0101966115DD
:1016D000710509F4D9C40E94C3078091EB0390916E
:1016E000EC03080F191FF801F082BE016F5F7F4FF6
:1016F0008BEE93E00E94B506CE0101960E94000792
:101700000091EF031091F003B801CE0101960E9401
:10171000CD07BE016F5F7F4FCE010D960E94B506CB
:10172000CE0101960E9400070A301105B4F462E36D
:1017300071E0CE0101960E941908BE01635F7F4FE0
:10174000CE0101960E947207BC01CE010D960E9447
:10175000F907CE0101960E94000763E371E0CE0114
:1017600043960E94190860912C0370912D03CE01BD
:1017700001960E94CD07BE016D5E7F4FCE01079698
:101780000E941008BE016F5F7F4FCE0107960E9436
:101790007207BC01CE0143960E94F907CE0107965D
:1017A0000E940007CE0101960E940007BE01635F00
:1017B0007F4FCE0101960E941008BE016D5E7F4FE3
:1017C000CE0107960E941008BE016F5F7F4FCE01C9
:1017D00007960E947207BC01CE0143960E94F9074A
:1017E000CE0107960E940007CE0101960E940007D5
:1017F000BE016D5E7F4FCE0101960E9410086BEE18
:1018000073E0CE0101960E9472078C016AE00E948B
:101810008507811103C0C8010E94EE06B801CE0100
:1018200043960E94F907CE0101960E940007CE015F
:101830000D960E9400074F89588D6B897C8988E43A
:1018400093E00E947103CE0143960E940007611449
:10185000710409F46BCE0E94DB03882309F45FCE88
:101860000E9400005CCE813209F080C361EF73E01A
:10187000CE0107960E9410081092280310922703A9
:1018800063E371E0CE0101960E9419088B849C8469
:10189000F12CE12C80E0E814F9040CF04CC02B850D
:1018A0003C85E216F30620F4EF81F885309719F5B0
:1018B00010925002E0E5F2E0608100912703109160
:1018C00028036C37F9F489819A810097B9F00E9456
:1018D000AE10000F111FF801E756FD4F71836083B2
:1018E00063E371E0CE0101960E94C30780E02FEF11
:1018F000E21AF20AD0CFEE0DFF1DDECF60E070E0FD
:10190000CB01E7CF811112C0F801EB5AFD4F608384
:1019100063E371E0CE0101960E94C3070F5F1F4F82
:10192000109328030093270381E0E1CFCE010196B5
:101930000E948507F9CF63E371E0CE0101960E9412
:101940007E04811111C089819A81009709F460C0D9
:101950000E94AE10E0912703F0912803EE0FFF1FC5
:10196000E756FD4F71836083CE0101960E94000708
:10197000CE0107960E94000763E371E0CE0149960D
:101980000E94190810922A031092290380912903BA
:1019900090912A03209127033091280382179307FF
:1019A0000CF0DFC2FC01EE0FFF1FE556FD4F00817A
:1019B00011818B5A9D4FFC01F08063E371E0CE01F1
:1019C00043960E941908EEE9EF0DE93108F08FC047
:1019D0000E2E000CFF0BE151F34F0C94B212EB0DE5
:1019E000770D280DD80D770D770D770D070F770D33
:1019F000770D770D7C0E770D710FCB0E770D770D70
:101A0000770D9A0F500F5E0F0C0D1C0E770D560EB2
:101A100060E070E0CB019ECFB801012E000C880B76
:101A2000990B0E941103B801CE0101960E94CD07C7
:101A300064E371E0CE0107960E941908BE016F5F52
:101A40007F4FCE0107960E9472076CE072E011C1D1
:101A50006BE371E0CE0143960E94C307013011058C
:101A600009F062C063E471E0CE0143960E949807DA
:101A70008AE491E00E943F0166E970E080E090E036
:101A80000E94110388E891E00E943F0166E970E03E
:101A900080E090E00E94110383E992E00E943F0100
:101AA00066E970E080E090E00E9411038BE092E034
:101AB0000E943F0166E970E080E090E00E9411031F
:101AC0008BE492E00E943F0166E970E080E090E0E4
:101AD0000E94110380E193E00E943F0166E970E0FB
:101AE00080E090E00E9411038DE00E944503BE015A
:101AF0006D5E7F4FCE0149960E94B506CE0143969A
:101B00000E9400074D8D5E8D698D7A8D8BEE93E07E
:101B10000E9430078091290390912A0301969093A7
:101B20002A038093290332CF63E571E0CE01439607
:101B30000E9498078EE692E00E943F016CE271E0FD
:101B400080E090E00E9411038BE492E00E943F014C
:101B50006CE271E080E090E00E9411038AE292E082
:101B60000E943F016CE271E080E090E00E9411036E
:101B70008AE0F82E01E012E0C8010E943F0165E012
:101B800070E080E090E00E9411030F5F1F4F06316C
:101B9000F2E01F0789F7FA94F110ECCF8DE00E9474
:101BA000450364EF71E080E090E00E9411039FCF55
:101BB00064E671E0CE0143960E94C30760E089E0CD
:101BC0000130110509F488C161E089E00E94E0005C
:101BD0006CE771E02CC0B801CE0101960E94CD07E0
:101BE00064E871E0CE0107960E941908BE016F5F9C
:101BF0007F4FCE0107960E947207BC01CE0143962B
:101C00000E94F907CE0107960E940007CE010196B7
:101C10000E940007C801019765E172E0883E934089
:101C200030F410930701009306016CE072E0CE01DE
:101C300043960E9498075BCF809104019091050123
:101C40008017910714F017FF1CC0B801CE01019650
:101C50000E94CD076EE871E0CE0107960E94190838
:101C6000BE016F5F7F4FCE0107960E9472076DE144
:101C700072E00E945C07BC01CE0143960E94F90706
:101C80000AC150E040E0B8018091530290915402A3
:101C90000E944F069093540280935302B801CE01E4
:101CA00001960E94CD076DE971E0C4CE80910201DA
:101CB000909103018017910714F017FF08C0B80135
:101CC000CE0101960E94CD0761EA71E0C5CF50E0D8
:101CD00040E0B80180915102909152020E94820628
:101CE0009093520280935102B801CE0101960E9456
:101CF000CD0760EB71E09ECEB801CE0101960E9447
:101D0000CD0764EB71E0CE0107960E941908BE0171
:101D10006F5F7F4FCE0107960E9472076EEF71E0F2
:101D20000E945C07BC01CE0143960E94F907CE01D8
:101D300007960E940007CE0101960E94000701301D
:101D4000110531F00330110591F066E172E06FCFBB
:101D50000E94F204F601E81BF90BCF016FEB71E072
:101D600081159D470CF063CF68EC71E060CF0E9455
:101D700093049601281B390BC9016EEC71E08115A3
:101D80009D4714F467ED71E0CE0143960E949807D9
:101D900067ED71E04CCF6091510270915202CE011B
:101DA00001960E94CD076091530270915402CE01BA
:101DB00007960E94CD076DED71E0CE010D960E9451
:101DC0001908BE01695F7F4FCE010D960E94720710
:101DD00061EE71E00E945C07BE016F5F7F4F0E9461
:101DE00072076DE172E00E945C07BC01CE01439670
:101DF0000E94F907CE010D960E940007CE010796BA
:101E00000E940007CE0101960E94000770CE66EE88
:101E100071E0CE0143960E94C30701301105A1F085
:101E20000330110509F091CF83E00E94B70061E013
:101E300070E0892B11F070E060E0CE0101960E9405
:101E4000CD0763EE71E00FC082E00E94B70061E051
:101E500070E0892B11F070E060E0CE0101960E94E5
:101E6000CD076EED71E0CE0107960E941908BE0104
:101E70006F5F7F4FCE0107960E9472076CE072E0A1
:101E80000E945C07FC014481558160817181CE0113
:101E900043960E943007CE0107960E940007B2CFFA
:101EA0006FEE71E0CE0143960E94C30761E083E0CC
:101EB0000130110589F060E083E088CE67EF71E0C2
:101EC000CE0143960E94C30760E08FE00130110508
:101ED00009F07CCE61E08FE00E94E00065E771E0F0
:101EE000A6CE0F3F110509F0F0F4B80186E00E947C
:101EF000840270E060E085E00E948402B801CE01B7
:101F000001960E94CD0760E072E0CE0107960E9424
:101F10001908BE016F5F7F4FCE0107960E947207BE
:101F200068E072E0A6CE61E172E0CE0143960E94C5
:101F3000C307DDCD6BE272E00F3F110509F0A8F792
:101F400070E060E086E00E948402B80185E00E94B3
:101F50008402B801CE0101960E94CD076FE172E0C4
:101F600069CDCE0149960E9400077ACB833209F0F1
:101F700079C064E670E080E090E00E94110369E2BD
:101F800071E08DEF93E00E947E04811110C061E248
:101F900071E08DEF93E00E947E04811108C065E23C
:101FA00071E08DEF93E00E947E04882321F060E0D1
:101FB00089E00E94E0006DE271E08DEF93E00E9405
:101FC0007E04811102C00E94F20469E271E08DEF8B
:101FD00093E00E947E04811107C061E271E08DEF01
:101FE00093E00E947E0481110E94930469E271E0F3
:101FF0008DEF93E00E947E048823E1F050E040E002
:102000006EE670E080915302909154020E944F0658
:10201000909354028093530250E040E06FE070E0F0
:1020200080915102909152020E9482069093520236
:102030008093510261E271E08DEF93E00E947E0493
:10204000882309F40DCB50E040E060E570E080911A
:102050005102909152020E94820690935202809304
:102060005102FECA8D3319F40E945105F9CA803419
:10207000D9F310922D0310922C0369E372E08BEEDA
:1020800093E00E94C307ECCA0E94EE0626CB882389
:10209000A1F086E990E090930501809304018EEB16
:1020A00090E0909303018093020161E271E0CE0120
:1020B00001960E947E04882361F089E591E0909367
:1020C0000501809304018AEF90E0909303018093CF
:1020D000020161E088E00E940E0161E087E00E9459
:1020E0000E0161E086E00E940E0161E085E00E9441
:1020F0000E0162E082E00E940E0182E00E94B700C1
:102100008093010162E083E00E940E0183E00E945F
:10211000B7008093000161E089E00E940E0161E058
:102120008DE00E940E0161E08DE00E94E00061E020
:1021300089E0B7C985EE93E00E9400078BEE93E03B
:102140000E94000781EF93E00E94000787EF93E071
:102150000E9400078DEF93E00C9400071F93FC0191
:1021600099278827BC01E89411911032E9F31930BE
:1021700010F01E30C8F31B3251F01D3249F4689440
:1021800006C00E94E010610F711D811D911D11910B
:1021900010531A30B0F33EF4909580957095619588
:1021A0007F4F8F4F9F4F1F910895BB274A3031F4C7
:1021B000992322F4BDE2909581959F4F0C94F610DF
:1021C000592F482F372F262F660F771F881F991FEB
:1021D000660F771F881F991F620F731F841F951F3B
:1021E000660F771F881F991F0895BB27FB0155278E
:1021F000AA27880F991FAA1FA41710F0A41B839564
:102200005051B9F7A05DAA3308F0A95DA1930097DA
:1022100079F7B111B1931192CB010C940F11DC013C
:10222000FC01672F71917723E1F7329704C07C910D
:102230006D9370836291AE17BF07C8F308950E9433
:10224000611108F481E00895E89409C097FB3EF419
:1022500090958095709561957F4F8F4F9F4F9923F3
:10226000A9F0F92F96E9BB279395F6958795779571
:102270006795B795F111F8CFFAF4BB0F11F460FF31
:102280001BC06F5F7F4F8F4F9F4F16C0882311F089
:1022900096E911C0772321F09EE8872F762F05C09D
:1022A000662371F096E8862F70E060E02AF09A9538
:1022B000660F771F881FDAF7880F9695879597F92D
:1022C0000895990F0008550FAA0BE0E8FEEF1616C7
:1022D0001706E807F907C0F012161306E407F5071A
:1022E00098F0621B730B840B950B39F40A2661F08E
:1022F000232B242B252B21F408950A2609F4A14031
:10230000A6958FEF811D811D08950E9498110C9450
:1023100009120E94FB1138F00E94021220F095234E
:1023200011F00C94F2110C94F81111240C943D123C
:102330000E941A1270F3959FC1F3950F50E0551F3C
:10234000629FF001729FBB27F00DB11D639FAA270A
:10235000F00DB11DAA1F649F6627B00DA11D661F59
:10236000829F2227B00DA11D621F739FB00DA11D7A
:10237000621F839FA00D611D221F749F3327A00D34
:10238000611D231F849F600D211D822F762F6A2FD0
:1023900011249F5750409AF0F1F088234AF0EE0F35
:1023A000FF1FBB1F661F771F881F91505040A9F762
:1023B0009E3F510580F00C94F2110C943D125F3F4A
:1023C000E4F3983ED4F3869577956795B795F7959E
:1023D000E7959F5FC1F7FE2B880F911D9695879516
:1023E00097F9089597F99F6780E870E060E0089595
:1023F0009FEF80EC089500240A941616170618061D
:102400000906089500240A941216130614060506F8
:102410000895092E0394000C11F4882352F0BB0F89
:1024200040F4BF2B11F460FF04C06F5F7F4F8F4FEC
:102430009F4F089557FD9058440F551F59F05F3F27
:1024400071F04795880F97FB991F61F09F3F79F0D6
:1024500087950895121613061406551FF2CF469558
:10246000F1DF08C0161617061806991FF1CF8695DA
:102470007105610508940895E894BB2766277727BE
:10248000CB0197F908952F923F924F925F926F92EE
:102490007F928F929F92AF92BF92CF92DF92EF92F4
:1024A000FF920F931F93CF93DF93CDB7DEB7CA1B75
:1024B000DB0B0FB6F894DEBF0FBECDBF09942A88A0
:1024C000398848885F846E847D848C849B84AA8448
:1024D000B984C884DF80EE80FD800C811B81AA81D5
:1024E000B981CE0FD11D0FB6F894DEBF0FBECDBFA0
:1024F000ED0108950E94611108F48FEF089597FB94
:10250000072E16F4009407D077FD09D00E94B81268
:1025100007FC05D03EF4909581959F4F08957095E6
:1025200061957F4F0895052E97FB1EF400940E943D
:10253000AA1257FD07D00E94CC1207FC03D04EF41C
:102540000C94AA1250954095309521953F4F4F4FCE
:102550005F4F089590958095709561957F4F8F4F4F
:102560009F4F0895EE0FFF1F0590F491E02D099401
:10257000AA1BBB1B51E107C0AA1FBB1FA617B707A9
:1025800010F0A61BB70B881F991F5A95A9F78095C5
:102590009095BC01CD010895A1E21A2EAA1BBB1B88
:1025A000FD010DC0AA1FBB1FEE1FFF1FA217B3071F
:1025B000E407F50720F0A21BB30BE40BF50B661F35
:1025C000771F881F991F1A9469F7609570958095F9
:1025D00090959B01AC01BD01CF0108950F931F930E
:1025E000CF93DF938230910510F482E090E0E09188
:1025F0000504F091060430E020E0B0E0A0E0309760
:1026000099F42115310509F44AC0281B390B2430EF
:102610003105D8F58A819B816115710589F1FB012E
:1026200093838283FE0111C0408151810281138115
:1026300048175907E0F04817590799F4109761F0C7
:1026400012960C93129713961C933296CF01DF913A
:10265000CF911F910F9108950093050410930604E4
:10266000F4CF2115310551F04217530738F0A90175
:10267000DB019A01BD01DF01F801C1CFEF01F9CF04
:102680009093060480930504CDCFFE01E20FF31F63
:10269000819391932250310939832883D7CF209198
:1026A000030430910404232B41F420910B01309159
:1026B0000C0130930404209303042091090130910C
:1026C0000A012115310541F42DB73EB740910D01A6
:1026D00050910E01241B350BE0910304F09104048A
:1026E000E217F307A0F42E1B3F0B2817390778F0E9
:1026F000AC014E5F5F4F2417350748F04E0F5F1F48
:102700005093040440930304819391939FCFF0E08E
:10271000E0E09CCFCF93DF930097E9F0FC01329784
:1027200013821282A0910504B0910604ED0130E0FD
:1027300020E01097A1F420813181820F931F209116
:102740000304309104042817390709F061C0F0939D
:102750000404E0930304DF91CF910895EA01CE17BA
:10276000DF07E8F54A815B819E0141155105B1F70C
:10277000E901FB83EA8349915991C40FD51FEC17F6
:10278000FD0761F4808191810296840F951FE90114
:1027900099838883828193819B838A83F0E0E0E040
:1027A00012968D919C9113970097B9F52D913C91BC
:1027B0001197CD010296820F931F2091030430914F
:1027C00004042817390739F6309751F5109206049A
:1027D00010920504B0930404A0930304BCCFD383E8
:1027E000C28340815181840F951FC817D90761F4B6
:1027F0004E5F5F4F88819981480F591F51834083F5
:102800008A819B81938382832115310509F0B0CFA2
:10281000F0930604E09305049ECFFD01DC01C0CFD8
:1028200013821282D7CFB0E0A0E0E9E1F4E10C948A
:1028300045128C01009751F4CB010E94EE128C01DD
:10284000C801CDB7DEB7E0E10C946112FC01E60FE0
:10285000F71F9C0122503109E217F30708F49DC0CD
:10286000D901CD91DC911197C617D70798F0C530E3
:10287000D10530F3CE0104978617970708F3C61BDE
:10288000D70B2297C193D1936D937C93CF010E9474
:102890008A13D6CF5B01AC1ABD0A4C018C0E9D1E6B
:1028A000A0910504B0910604512C412CF12CE12C8F
:1028B000109731F5809103049091040488159905CF
:1028C00009F05CC04616570608F058C0809109010F
:1028D00090910A01009741F48DB79EB740910D0188
:1028E00050910E01841B950BE817F90708F055C0AD
:1028F000F0930404E0930304F90171836083A0CF93
:102900008D919C91119712966C90129713967C90D2
:102910001397A815B90559F56C0142E0C40ED11CF6
:10292000CA14DB0420F1AC014A195B09DA011296E2
:10293000159780F06282738251834083D9016D9331
:102940007C93E114F10471F0D7011396FC93EE939C
:10295000129776CF22968C0F9D1FF9019183808369
:10296000F301EFCFF0930604E093050469CF481616
:10297000590608F42C017D01D3019ACFCB010E94A6
:10298000EE127C01009749F0AE01B8010E94D0140C
:10299000C8010E948A13870153CF10E000E050CF96
:1029A000FB01DC0102C001900D9241505040D8F76C
:1029B0000895FB01DC018D91019080190110D9F37C
:1029C000990B0895FB01DC0101900D920020E1F7C5
:1029D000089510E0C3E6D0E004C0FE010E94B212E8
:0C29E0002196C436D107C9F7F894FFCF48
:1029EC000101900190013200FF00000704800000FB
:1029FC00000000110471039E035E04CF03AD03C1FC
:102A0C000342454400504E450041524D0053454E43
:102A1C00003230005B776169743A005B736F756EDE
:102A2C00643A00736F756E643A6C6576656C2075EC
:102A3C00705D00736F756E643A67616D65206F76BB
:102A4C0065725D005B656E61626C652073746570A8
:102A5C007065723A006F6E3A4F4B5D006F66663A66
:102A6C004F4B5D005B757344656C61793A005B7824
:102A7C003A4F55545F424F554E44533A005B783AA7
:102A8C00005B7A3A4F55545F424F554E44533A00CF
:102A9C005B7A3A005B66696E64686F6D653A0058E4
:102AAC003A4552524F525D00583A4F4B5D005A3ADC
:102ABC004552524F525D005A3A4F4B5D005B583AAB
:102ACC00002C205A3A005B6973486F6D653A005BC5
:102ADC0072656C61793A005B72656C6179323A00AF
:102AEC005B48426F3A413A003A423A303A4F4B5DBA
:102AFC00005B48426F3A4241445F4152475D005B84
:102B0C004842743A413A303A423A005B4842743A8D
:102B1C004241445F4152475D00434F4D4D414E444D
:102B2C00204E4F54205245434F474E495A4544007E
:00000001FF
