:020000040000FA
:100000000C9463000C948B000C948B000C948B006C
:100010000C948B000C948B000C948B000C948B0034
:100020000C948B000C948B000C948B000C948B0024
:100030000C948B000C948B000C948B000C948B0014
:100040000C94D70A0C948B000C94470B0C94210B46
:100050000C948B000C948B000C948B000C948B00F4
:100060000C948B000C948B000000000024002700EF
:100070002A0000000000250028002B0000000000DE
:1000800023002600290004040404040404040202DA
:100090000202020203030303030301020408102007
:1000A0004080010204081020010204081020000012
:1000B0000008000201000003040700000000000027
:1000C0000000790BDD0E11241FBECFEFD8E0DEBF9C
:1000D000CDBF24E0A2E5B2E001C01D92AC35B2076D
:1000E000E1F712E0A0E0B1E0E6EFF8E202C005902F
:1000F0000D92A235B107D9F710E0C2E6D0E004C0F6
:100100002197FE010E945712C136D107C9F70E94FC
:10011000AB0B0C946E140C940000833081F028F427
:10012000813099F08230A9F008958730A9F08830A5
:10013000C9F08430B1F4809180008F7D03C080913C
:1001400080008F7780938000089584B58F7784BD79
:10015000089584B58F7DFBCF8091B0008F77809319
:10016000B00008958091B0008F7DF9CFCF93DF93D9
:10017000282F30E0F901E255FF4F8491F901E6564E
:10018000FF4FD491F901EA57FF4FC491CC23A1F05E
:1001900081110E948D00EC2FF0E0EE0FFF1FE4585C
:1001A000FF4FA591B491EC91ED2381E090E009F42B
:1001B00080E0DF91CF91089580E090E0FACF1F9327
:1001C000CF93DF93282F30E0F901E255FF4F849160
:1001D000F901E656FF4FD491F901EA57FF4FC49158
:1001E000CC23A9F0162F81110E948D00EC2FF0E096
:1001F000EE0FFF1FEE58FF4FA591B4918FB7F89403
:10020000EC91111108C0D095DE23DC938FBFDF91F4
:10021000CF911F910895DE2BF8CFCF93DF9390E01D
:10022000FC01E656FF4F24918A579F4FFC018491B1
:100230008823D1F090E0880F991FFC01E859FF4F07
:10024000A591B491FC01EE58FF4FC591D491623055
:1002500071F49FB7F8943C91822F809583238C93FF
:10026000E8812E2B28839FBFDF91CF9108958FB710
:10027000F894EC912E2B2C938FBFF6CF1F93CF9336
:10028000DF93182FEB0161E00E940D01209739F4F4
:1002900060E0812FDF91CF911F910C94DF00CF3F61
:1002A000D10511F461E0F5CFE12FF0E0E255FF4F09
:1002B000E491E33031F140F4E130B1F0E230E1F0CB
:1002C000C038D1057CF7E4CFE73029F1E83059F1A7
:1002D000E430B1F780918000806280938000D093F9
:1002E0008B00C0938A0004C084B5806884BDC7BDFC
:1002F000DF91CF911F91089584B5806284BDC8BD00
:10030000F7CF80918000806880938000D09389002F
:10031000C0938800EDCF8091B00080688093B000DA
:10032000C093B300E5CF8091B00080628093B000AD
:10033000C093B400DDCF8230910538F0880F991F4B
:10034000880F991F05970197F1F708953FB7F89423
:100350008091B1039091B203A091B303B091B40323
:1003600026B5A89B05C02F3F19F00196A11DB11D10
:100370003FBFBA2FA92F982F8827BC01CD01620F4C
:10038000711D811D911D42E0660F771F881F991F07
:100390004A95D1F708958F929F92AF92BF92CF92D4
:1003A000DF92EF92FF926B017C010E94A6014B014C
:1003B0005C01C114D104E104F104B9F00E94A6016A
:1003C000681979098A099B09683E7340810591057E
:1003D00080F321E0C21AD108E108F10888EE880E06
:1003E00083E0981EA11CB11CE4CFFF90EF90DF903A
:1003F000CF90BF90AF909F908F9008952FB7F894B3
:100400006091AD037091AE038091AF039091B00302
:100410002FBF0895AF92BF92CF92DF92EF92FF92DB
:100420000F931F93CF93DF936C017B018B01040F1C
:10043000151FEB015E01AE18BF08C017D10759F0B8
:100440006991D601ED91FC910190F081E02DC601FA
:100450000995892B79F7C501DF91CF911F910F91F4
:10046000FF90EF90DF90CF90BF90AF900895FC0188
:10047000538D448D252F30E0842F90E0821B930B09
:10048000541710F0CF96089501970895FC01918DAF
:10049000828D981761F0A28DAE0FBF2FB11D5D96B2
:1004A0008C91928D9F5F9F73928F90E008958FEF54
:1004B0009FEF0895FC01918D828D981731F0828D08
:1004C000E80FF11D858D90E008958FEF9FEF08955F
:1004D000FC01918D228D892F90E0805C9F4F821BC3
:1004E00091098F739927089585EB93E00E94680224
:1004F00021E0892B09F420E0822F089580E090E02C
:10050000892B29F00E94740281110C940000089537
:10051000FC01A48DA80FB92FB11DA35ABF4F2C9178
:10052000848D90E001968F739927848FA689B7896F
:100530002C93A089B1898C91837080648C93938D66
:10054000848D981306C00288F389E02D80818F7D09
:1005500080830895EF92FF920F931F93CF93DF93C1
:10056000EC0181E0888F9B8D8C8D98131AC0E889EF
:10057000F989808185FF15C09FB7F894EE89FF89BE
:100580006083E889F98980818370806480839FBF5C
:1005900081E090E0DF91CF911F910F91FF90EF905C
:1005A0000895F62E0B8D10E00F5F1F4F0F7311276C
:1005B000E02E8C8D8E110CC00FB607FCFACFE889A7
:1005C000F989808185FFF5CFCE010E948802F1CFA5
:1005D000EB8DEC0FFD2FF11DE35AFF4FF0829FB71B
:1005E000F8940B8FEA89FB8980818062CFCFCF930B
:1005F000DF93EC01888D8823B9F0AA89BB89E8894B
:10060000F9898C9185FD03C0808186FD0DC00FB6F0
:1006100007FCF7CF8C9185FFF2CF808185FFEDCF6E
:10062000CE010E948802E9CFDF91CF910895CF9348
:10063000C82F0E94B600892B31F48C2F0E94B6007F
:1006400021E0892B09F020E0822FCF91089520919D
:10065000560430915704232B39F421E0FC018081AA
:10066000882361F020E00AC0BC018091520490917F
:1006700053040E945E1421E0892BA1F7822F089574
:100680004F925F926F927F928F929F92AF92BF92A2
:10069000CF92DF92EF92FF920F931F93CF93DF934E
:1006A0008AE191E00E94270310E000E08111B5C0CB
:1006B0000E94FE014B015C018EE191E00E94270344
:1006C0008111CFC05D98C9E1D0E091ECC92E94EDC5
:1006D000D92EEE24E394F12C83E00E94B60001971A
:1006E00001F55E9ACE010E949B015E98CE010E94A8
:1006F0009B0121E0C21AD108E108F10859F00E94DB
:10070000FE01681979098A099B09613A7F408105D0
:10071000910510F361E089E00E94DF000FEF1FEF09
:100720007CC08EE191E00E94270300E510E0882361
:1007300011F000E911E0D0E0C0E08EE191E00E940C
:10074000270381115DC05D9A5E9A809100019091AE
:1007500001010E949B015E9880910001909101012E
:100760000E949B0121960C171D0739F78EE191E03D
:100770000E942703C4E6D0E0882311F0C8EED3E03E
:100780000E94FE014B015C018EE191E00E94270373
:100790008823C1F15D9AC12CD12C76018CE3482EBF
:1007A000512C612C712C5E9ACE010E949B015E98A7
:1007B000CE010E949B0183E00E94B6008C01892B30
:1007C00019F18EE191E00E942703811138C02FEFCB
:1007D000C21AD20AE20AF20A81E6C8168AEED806DE
:1007E000E104F10409F496CF0E94FE016819790929
:1007F0008A099B09613A7F4081059105A0F28ACF61
:100800005D98A2CF5D98C7CF83E00E94170388232D
:10081000C1F21092530210925202C801DF91CF919F
:100820001F910F91FF90EF90DF90CF90BF90AF900E
:100830009F908F907F906F905F904F900895C132FE
:1008400083E0D80720F2C701B601A30192010E94FC
:100850003512672B682B692B09F0B9CFC055D10928
:10086000B6CF5D9ACCE3D0E030CF8F929F92AF921B
:10087000BF92CF92DF92EF92FF920F931F93CF938D
:10088000DF930E94FE016B017C018EE191E00E94EA
:100890002703C9E1D0E0882311F0C0E5D0E08AE168
:1008A00091E00E942703882369F15F9A21E8822E54
:1008B00028E3922EAA24A394B12C82E00E94B600D1
:1008C000019711F5289ACE010E949B012898CE012C
:1008D0000E949B0121E0821A9108A108B10859F0F9
:1008E0000E94FE016C197D098E099F09613A7F40C3
:1008F0008105910510F361E089E00E94DF000FEFB0
:100900001FEF60C05F98D2CFC0E5D0E08AE191E0F0
:100910000E942703811149C05F9A289A80910001A3
:10092000909101010E949B01289880910001909173
:1009300001010E949B01219749F70E94FE014B0192
:100940005C018AE191E00E942703882381F15F9A8C
:100950008EE191E00E94270394E6E92EF12C882392
:1009600021F080E9E82EFF24F394289AC7010E9421
:100970009B012898C7010E949B0182E00E94B6005B
:100980008C01892BB1F0C03385E7D80709F4B3CFC8
:100990000E94FE012196681979098A099B09613A2A
:1009A0007F408105910508F3A6CF5F98B6CF5F9889
:1009B000CFCF82E00E941703882329F310925502BB
:1009C00010925402C801DF91CF911F910F91FF90B7
:1009D000EF90DF90CF90BF90AF909F908F90089551
:1009E00060E089E00E94DF008AE191E00E94270335
:1009F000882381F060E083E00E94DF0070E060E027
:100A000085E00E943E0170E060E086E00E943E01C9
:100A10000C9435040E944003FBCF0F931F93CF9398
:100A2000DF93EC0188819981009759F02A813B81FD
:100A30002617370730F081E0DF91CF911F910F919A
:100A400008958B016F5F7F4F0E948213009759F0CA
:100A5000998388831B830A832C813D81232B59F73B
:100A6000FC011082E8CF80E0E7CFEF92FF920F9376
:100A70001F93CF93DF936115710541F480E0DF91FF
:100A8000CF911F910F91FF90EF900895411551055F
:100A9000B1F07B01EC010C811D81040F151FB80121
:100AA0000E940D05882351F3288139818C819D8115
:100AB000B701820F931F0E9467141D830C8381E08E
:100AC000DECFCF93DF93EC0188819981009711F0FD
:100AD0000E94F912198218821D821C821B821A82BE
:100AE000DF91CF910895CF93DF93EC01FB0101904B
:100AF0000020E9F73197AF01461B570B0E943505DF
:100B0000811103C0CE010E946105CE01DF91CF911A
:100B10000895CF93DF93EC01FB01448155816081FF
:100B200071810E943505811103C0CE010E946105CB
:100B3000CE01DF91CF910895EF92FF920F931F9313
:100B4000CF93DF93EC017B018A01BA010E940D056E
:100B500081110BC0CE010E946105CE01DF91CF91C2
:100B60001F910F91FF90EF9008951D830C83B701A3
:100B7000888199810E946714F0CFFB0101900020C9
:100B8000E9F73197AF01461B570B0C949C050F9367
:100B90001F93CF93DF93CDB7DEB762970FB6F8946C
:100BA000DEBF0FBECDBF8C01CB01F80111821082D8
:100BB00013821282158214824AE0BE016F5F7F4F5A
:100BC0000E94FF0EBE016F5F7F4FC8010E94BD05EE
:100BD00062960FB6F894DEBF0FBECDBFDF91CF9106
:100BE0001F910F910895CF93DF93EC01FB018617BE
:100BF000970749F0608171816115710541F0448169
:100C000055810E949C05CE01DF91CF9108950E94ED
:100C10006105F9CFFC0111821082138212821582C4
:100C20001482FB0101900020E9F73197AF01461BC8
:100C3000570B0C949C05FC0180819181009711F069
:100C40000C94F91208950F931F93CF93DF93CDB7B0
:100C5000DEB729970FB6F894DEBF0FBECDBF8B016C
:100C6000682F85EB93E00E94AA02F801848119861F
:100C70006AE00E942912805D8F83905D9887BE0193
:100C8000695F7F4FCE0101960E940A064D815E8109
:100C900069817A8185EB93E00E940A02CE01019678
:100CA0000E941B06F801448155816081718185EBAA
:100CB00093E00E940A026AE085EB93E00E94AA0298
:100CC00029960FB6F894DEBF0FBECDBFDF91CF914E
:100CD0001F910F9108952F923F924F925F926F92C2
:100CE0007F928F929F92AF92BF92CF92DF92EF92BC
:100CF000FF920F931F93CF93DF93CDB7DEB72F975C
:100D00000FB6F894DEBF0FBECDBF982F862F4B874E
:100D10001901ED82FE82692F0E94DF0061E070E020
:100D200080E090E00E94CB01B401990C880B990BF4
:100D30000E94430F69837A838B839C83B101032CC8
:100D4000000C880B990B0E94430F29813A814B813B
:100D50005C810E9421116C877D878E879F87A60109
:100D60009501C601B5010E94B5106F837887898708
:100D70009A872D813E81A8016D817E81C8010E94E4
:100D8000A20F2F81388549855A850E9421112B0198
:100D90003C01AC019B010E94B5102C853D854E8520
:100DA0005F850E94C91118160CF073C0A601950149
:100DB0006C857D858E859F850E94A20F0E94D4112F
:100DC0006D837E838C01310137FE03C08FEF681A7B
:100DD000780A75946794F12CE12C21014618570884
:100DE000E214F3040CF070C0E614F7040CF05DC0DC
:100DF000B7010F2C000C880B990B0E94430F29811F
:100E00003A814B815C810E9421112F81388549856F
:100E10005A850E94A20F0E94D4115B016C0120E050
:100E200030E040E85FE3B501C6010E943C0F87FF58
:100E300006C0A12CB12C90E8C92E2FE3D22E61E080
:100E40008B850E94DF009501A60169817A818B81E3
:100E50009C810E94A20F9B01AC0160E074E284E7D8
:100E600099E40E9421110E949A114B015C01B694F1
:100E7000A79497948794C4010E949B0160E08B859E
:100E80000E94DF00C4010E949B018FEFE81AF80A5C
:100E9000A7CFA301920169817A818B819C810E94F5
:100EA000A20F0E9493113B0196CFAD80BE806801D6
:100EB000E414F5040CF4B3CFB1016E197F09072EC9
:100EC000000C880B990B99CF2F960FB6F894DEBFC4
:100ED0000FBECDBFDF91CF911F910F91FF90EF908B
:100EE000DF90CF90BF90AF909F908F907F906F904A
:100EF0005F904F903F902F9008958F929F92AF9266
:100F0000BF92CF92DF92EF92FF920F931F93CF93F6
:100F1000DF938C01EB016733714014F0C6E3D1E03D
:100F2000D7FF02C0D0E0C0E0BE01601B710B77FFAD
:100F300003C0719561957109072E000C880B990B00
:100F40000E94430F28EF33E545E551E40E94A20FCC
:100F50000E94931151E00C171D070CF450E08DE036
:100F6000882E912CA12C90E4B92E9CE9C92E95E4F1
:100F7000D92EE12CF12C06E114E49B0148E067E056
:100F8000852F0E946B06CE01DF91CF911F910F91AB
:100F9000FF90EF90DF90CF90BF90AF909F908F9099
:100FA00008958F929F92AF92BF92CF92DF92EF926D
:100FB000FF920F931F93CF93DF938C01EB018EE190
:100FC00091E00E94270368E270E0882311F068EC4A
:100FD00070E0AE01401B510B57FF03C05195419586
:100FE0005109811129C081E00C171D070CF080E028
:100FF000E12CF12C0AEF13E4A12CB12CEAE7CE2E60
:10100000E5E4DE2E649F9001659F300D749F300DE6
:1010100011244B0146E065E00E946B06CE01DF9192
:10102000CF911F910F91FF90EF90DF90CF90BF90E5
:10103000AF909F908F90089581E00C171D070CF4DE
:1010400080E0E12CF12C00EA12E4A12CB12C28E480
:10105000C22E24E4D22ED6CF8F929F92AF92BF920F
:10106000CF92DF92EF92FF920F931F93CF93DF9374
:10107000FC01EB01AB01481B590B57FF03C0519515
:101080004195510988E2849F9001859F300D11247C
:1010900081E0EC17FD070CF080E098E2892E912C9E
:1010A000A12CB12C4AE7C42E45E4D42EE12CF12C1E
:1010B0000AEF13E448E067E00E946B06CE01DF917F
:1010C000CF911F910F91FF90EF90DF90CF90BF9045
:1010D000AF909F908F900895DF92EF92FF920F93C1
:1010E0001F93CF93DF93CDB7DEB768970FB6F89411
:1010F000DEBF0FBECDBF7C01D62E8A0169E372E050
:101100000E940A06EEE9ED0DE93108F04DC00E2E01
:10111000000CFF0BE257F74F0C945712F308D4085A
:10112000CF08E308D408D408D408370AD408D40870
:10113000D408CD09D408A50AE909D408D408D408EC
:10114000BE0A730A8C0AA70809097E09A509B80115
:10115000012E000C880B990B0E94CB01B801CE0127
:1011600007960E94C70562E271E0CE0101960E94D7
:101170000A06BE01695F7F4FCE0101960E94890574
:1011800064E371E00E947305BC01C7010E94F3058E
:10119000CE0101960E941B06CE01079686C069E229
:1011A00071E0C7010E94BD05C70168960FB6F894AB
:1011B000DEBF0FBECDBFDF91CF911F910F91FF908A
:1011C000EF90DF90089561E00115110509F060E0EE
:1011D00089E00E94DF00B801CE0107960E94C70592
:1011E00069E371E0C2CFB801093E134014F068EE24
:1011F00073E01616170614F061E070E070930101B9
:1012000060930001CE0107960E94C70562E471E079
:10121000ACCF8AE191E00E942703882361F010930C
:10122000550200935402B801CE0107960E94C705EB
:101230006CE471E09ACF8EE191E00E942703811166
:1012400037C084EB90E0B80180179107A0F5CE017C
:1012500043960E94C70560E571E0CE010D960E949D
:101260000A06BE016D5E7F4FCE010D960E94890574
:1012700065EF71E00E94730500E011E0BC01C70159
:101280000E94F305002341F0CE0101960E941B0647
:10129000CE0107960E941B06112309F485CFCE01CB
:1012A0000D960E941B06CE0143960E941B067CCF22
:1012B0008EE591E0C8CF80915402909155020E9432
:1012C0002C089093550280935402B801CE010796E2
:1012D0000E94C7056CE471E0CE0101960E940A06E7
:1012E000BE01695F7F4FCE0101960E94890564E3CC
:1012F00071E00E94730501E010E0C0CF8AE191E047
:101300000E9427038823F1F0B801073381E0180712
:1013100038F0CE0143960E94C70568E571E09DCF85
:101320008091290390912A030E947D0790932A03BC
:1013300080932903B801CE0107960E94C70560E695
:1013400071E0CACF64E671E02CCF8EE191E00E949B
:10135000270381110DC08EEB90E0B8018017910733
:1013600050F4CE0143960E94C70560E771E075CF47
:1013700080E590E0F2CF80915202909153020E945A
:10138000D1079093530280935202B801CE01079681
:101390000E94C70568E771E09FCFC80101970297D7
:1013A00068F40E9435040230110571F0B801CE01D5
:1013B00007960E94C7056CE771E0D7CE0330110590
:1013C000A9F70E944003F2CF10922A03109229033A
:1013D000EDCF6091520270915302CE0143960E946C
:1013E000C7056091290370912A03CE010D960E94D2
:1013F000C7056091540270915502CE0107960E9474
:10140000C70567E871E0CE0101960E940A06BE0199
:10141000695F7F4FCE0101960E9489056BE871E0FC
:101420000E947305BE01635F7F4F0E9489056FE8CC
:1014300071E00E947305BE016D5E7F4F0E948905B9
:1014400065EF71E00E947305BC01C7010E94F305BE
:10145000CE0101960E941B06CE0107960E941B0634
:10146000CE010D960E941B06CE0143961ECF013081
:10147000110581F482E00E94B60061E070E0892BE2
:1014800011F070E060E0CE0107960E94C70563E9A5
:1014900071E06BCE0230110581F482E00E94B6004B
:1014A00061E070E0892B11F070E060E0CE010796FA
:1014B0000E94C7056EE971E058CE64EB71E003301D
:1014C000110509F06ECE83E00E94B60061E070E085
:1014D000892B11F070E060E0CE0107960E94C705ED
:1014E00069EA71E042CE8AE191E00E9427038823F5
:1014F00081F061E00115110509F460E083E00E94CC
:10150000DF00B801CE0107960E94C70565EC71E0C7
:101510002CCE6DEC71E045CE8AE191E00E9427036C
:10152000882381F061E00115110509F460E08FE086
:101530000E94DF00B801CE0107960E94C7056DED3D
:1015400071E013CE66EE71E02CCE8AE191E00E944C
:101550002703882381F00F3F110509F060F4B801DB
:1015600085E00E943E01B801CE0107960E94C705A2
:1015700067EF71E0FACD6DEF71E013CE8AE191E093
:101580000E942703882321F00F3F110521F018F056
:101590006BE072E006CEB80186E00E943E01B80121
:1015A000CE0107960E94C70569E172E0DECD1F9269
:1015B0000F920FB60F9211242F933F938F939F9307
:1015C000AF93BF938091AD039091AE03A091AF0311
:1015D000B091B0033091AC0323E0230F2D3758F5C1
:1015E0000196A11DB11D2093AC038093AD03909390
:1015F000AE03A093AF03B093B0038091B103909179
:10160000B203A091B303B091B4030196A11DB11D23
:101610008093B1039093B203A093B303B093B40348
:10162000BF91AF919F918F913F912F910F900FBEDE
:101630000F901F90189526E8230F0296A11DB11D4B
:10164000D2CF1F920F920FB60F9211242F933F9378
:101650004F935F936F937F938F939F93AF93BF93BA
:10166000EF93FF9385EB93E00E948802FF91EF9147
:10167000BF91AF919F918F917F916F915F914F91AA
:101680003F912F910F900FBE0F901F9018951F92B2
:101690000F920FB60F9211242F938F939F93EF9376
:1016A000FF93E091C503F091C6038081E091CB03E5
:1016B000F091CC0382FD1BC090818091CE038F5F9F
:1016C0008F732091CF03821741F0E091CE03F0E0B9
:1016D000EB54FC4F958F8093CE03FF91EF919F9138
:1016E0008F912F910F900FBE0F901F9018958081B2
:1016F000F4CFE5EBF3E01382128288EE93E0A0E0F2
:10170000B0E084839583A683B7838CE091E09183D6
:10171000808385EC90E09587848784EC90E09787C0
:10172000868780EC90E0918B808B81EC90E0938BAE
:10173000828B82EC90E0958B848B86EC90E0978B8B
:10174000868B118E128E138E148E69E372E082E501
:1017500094E00C940A06CF93DF93CDB7DEB72C97B5
:101760000FB6F894DEBF0FBECDBF789484B582600B
:1017700084BD84B5816084BD85B5826085BD85B535
:10178000816085BD80916E00816080936E001092B3
:10179000810080918100826080938100809181002E
:1017A00081608093810080918000816080938000BF
:1017B0008091B10084608093B1008091B00081601D
:1017C0008093B00080917A00846080937A00809149
:1017D0007A00826080937A0080917A0081608093A1
:1017E0007A0080917A00806880937A001092C1001C
:1017F000E091C503F091C60382E08083E091C103CC
:10180000F091C2031082E091C303F091C40380E120
:1018100080831092CD03E091C903F091CA0386E062
:101820008083E091C703F091C80380818061808349
:10183000E091C703F091C803808188608083E091C4
:10184000C703F091C803808180688083E091C7035B
:10185000F091C80380818F7D808386E480937C0033
:1018600080917A00806480937A0080917A0086FD6E
:10187000FCCF6091780070917900072E000C880BE6
:10188000990B0E94430F2AE038E240EA5BE30E9492
:10189000A20F6B017C0124EA30E74DE75FE30E9471
:1018A0003C0F63E372E01816D4F422E538EB4EEFF8
:1018B0005FE3C701B6010E943C0F6AE171E01816B0
:1018C00074F429E23CE54FE350E4C701B6010E94FD
:1018D0003C0F6FE272E0181614F46EE171E082E5DD
:1018E00094E00E94BD0561E089E00E940D0161E085
:1018F00089E00E94DF0061E088E00E940D0161E064
:1019000087E00E940D0162E082E00E940D018AE101
:1019100091E00E94270381110CC061E086E00E94E3
:101920000D0161E085E00E940D0162E083E00E940C
:101930000D018AE191E00E942703882381F061E094
:1019400083E00E940D0161E08FE00E940D0161E0E3
:1019500085E00E940D0161E086E00E940D0161E0DA
:101960008DE00E940D0161E08DE00E94DF0085EBBB
:1019700093E00E946802892B09F412C285EB93E080
:101980000E944602E091AB038A3019F08D3009F0D5
:10199000FBC1EE2361F3F0E0E55DFC4F1082109196
:1019A0002B031F3341F462E574E081E30E942306B8
:1019B0001092AB03DCCF67E372E0163709F473C013
:1019C0001D36C1F58CE293E00E94E10E7C01019787
:1019D0000297E0F40E9435048C0182E0E816F104DD
:1019E000F9F00115110519F16FE172E0CE010196D0
:1019F0000E940A0680E3012B09F481E3BE016F5FB8
:101A00007F4F0E942306CE01019696C110E000E0B0
:101A100093E0E916F10459F40E9440038C01E1CFF0
:101A20000115110509F710922A03109229036AE2A1
:101A300072E0DCCF133209F052C060E089E00E940E
:101A4000DF000E9440030E94350410922A03109286
:101A500029038FE292E00E942703882369F16EE652
:101A600070E080915402909155020E942C0890934E
:101A70005502809354026FE070E080915202909181
:101A800053020E94D107909353028093520270E058
:101A900060E090E080E00E947D0790932A038093AD
:101AA00029036AE272E0CE0101960E940A06BE0195
:101AB0006F5F7F4F81E3A5CF8EE191E00E94270306
:101AC000882379F36EE170E0809152029091530285
:101AD0000E94D1079093530280935202E2CF1D33AC
:101AE00019F40E94F004DDCF1034D9F3113209F05B
:101AF00089C01092280366E5C62E62E0D62E72EEEB
:101B0000A72E72E0B72EF12CACE2B3E08C918823C3
:101B100019F0E6E4FE122DC0F092280369E372E0AA
:101B2000CE0107960E940A0610E08091280318173C
:101B300008F0FAC0812F90E0FC01EE0FFF1FEA5A77
:101B4000FD4F408151818E519D4FFC016081CE013E
:101B500001960E946C084D815E8169817A81CE0177
:101B600007960E943505CE0101960E941B061F5F55
:101B7000DCCF8D01ED90F0E2EF16D9F38CE7E8169B
:101B8000C1F38E2D0E2C000C990B0E944214892B50
:101B900019F2F501E1925F01F80181818D3201F1C5
:101BA0000F5F1F4FE12CF80120E030E0A901DF01B9
:101BB0000191002E000C110B005311090A30110580
:101BC000A0F4AAE0B0E00E946310012E000C220BEA
:101BD000330BA9019801260F371F481F591FE7CF64
:101BE0000E5F1F4FEE24E394DECFC901EE2021F0FB
:101BF00088279927821B930BF601819391936F019C
:101C0000F39484CF6CE770E08BE293E00E9453146E
:101C1000892B09F494C01092280336E5A32E32E0F4
:101C2000B32E42EEC42E42E0D42EF12C0BE213E090
:101C3000F801E080EE2019F0F6E4FF122DC0F092DA
:101C4000280369E372E0CE0107960E940A0610E0BD
:101C500080912803181708F067C0812F90E0FC01DD
:101C6000EE0FFF1FEA5AFD4F408151818E519D4F6B
:101C7000FC016081CE0101960E946C084D815E815D
:101C800069817A81CE0107960E943505CE010196C1
:101C90000E941B061F5FDCCF8E2D0E2C000C990BB3
:101CA0000E944214892B59F2F601E1926F01F8016A
:101CB00081818D3211F10F5F1F4FE12C480120E02F
:101CC00030E0A9018401F4018081FFEF8F1A9F0A9F
:101CD000E82F082E000CFF0BF097EA30F10590F08A
:101CE000B901E1101CC0F501619371935F018C375C
:101CF00011F40F5F1F4FF3949BCF0E5F1F4FEE2425
:101D0000E394DCCFAAE0B0E00E9463109F01FF0FD4
:101D1000440B550B260F371F481F591FD3CF66277B
:101D20007727621B730BDFCFBE01695F7F4F81E3B3
:101D30000E942306CE0107960E941B0639CE812FF2
:101D4000012E000C990B0E944214892B91F0809176
:101D50002C03882359F08CE293E00E94E10EAC0141
:101D6000612FCE0101960E946C08A1CE90E080E028
:101D7000F6CF6AE372E0CE0101960E940A06BE0128
:101D80006F5F7F4F80E33DCEEF3708F0F0CD91E0FD
:101D90009E0F9093AB03F0E0E55DFC4F8083E7CDB1
:101DA00080E090E0892B09F4E2CD0E947402882340
:101DB00009F4DDCD0E940000DACD82E594E00C94B8
:101DC0001B06FC0188279927E89421912032E9F32A
:101DD000293010F02E30C8F32B3241F02D3239F477
:101DE000689404C00E940A0F820F911D2191205314
:101DF0002A30C0F31EF4909581959F4F0895BB271C
:101E00004A3031F4992322F4BDE2909581959F4F99
:101E10000C94130F7AE0979F902D879F802D910D42
:101E200011240895BB27FB015527AA27880F991F66
:101E3000AA1FA41710F0A41B83955051B9F7A05DF9
:101E4000AA3308F0A95DA193009779F7B111B19376
:101E50001192CB010C942C0FDC01FC01672F7191C6
:101E60007723E1F7329704C07C916D937083629180
:101E7000AE17BF07C8F308950E947E0F08F481E0F3
:101E80000895E89409C097FB3EF49095809570956D
:101E900061957F4F8F4F9F4F9923A9F0F92F96E9B6
:101EA000BB279395F695879577956795B795F1112B
:101EB000F8CFFAF4BB0F11F460FF1BC06F5F7F4FC8
:101EC0008F4F9F4F16C0882311F096E911C07723DA
:101ED00021F09EE8872F762F05C0662371F096E8E3
:101EE000862F70E060E02AF09A95660F771F881FB2
:101EF000DAF7880F9695879597F90895990F000856
:101F0000550FAA0BE0E8FEEF16161706E807F907CB
:101F1000C0F012161306E407F50798F0621B730B66
:101F2000840B950B39F40A2661F0232B242B252BE7
:101F300021F408950A2609F4A140A6958FEF811D8A
:101F4000811D08950E94B50F0C9429100E941B104A
:101F500038F00E94221020F0952311F00C941210FA
:101F60000C94181011240C945D100E943A1070F318
:101F7000959FC1F3950F50E0551F629FF001729F2E
:101F8000BB27F00DB11D639FAA27F00DB11DAA1F3D
:101F9000649F6627B00DA11D661F829F2227B00D8A
:101FA000A11D621F739FB00DA11D621F839FA00D15
:101FB000611D221F749F3327A00D611D231F849F65
:101FC000600D211D822F762F6A2F11249F575040BC
:101FD0009AF0F1F088234AF0EE0FFF1FBB1F661F37
:101FE000771F881F91505040A9F79E3F510580F000
:101FF0000C9412100C945D105F3FE4F3983ED4F300
:10200000869577956795B795F795E7959F5FC1F7A3
:10201000FE2B880F911D9695879597F9089599271E
:102020008827089597F99F6780E870E060E0089539
:102030009FEF80EC089500240A94161617061806E0
:102040000906089500240A941216130614060506BC
:102050000895092E0394000C11F4882352F0BB0F4D
:1020600040F4BF2B11F460FF04C06F5F7F4F8F4FB0
:102070009F4F089557FD9058440F551F59F05F3FEB
:1020800071F04795880F97FB991F61F09F3F79F09A
:1020900087950895121613061406551FF2CF46951C
:1020A000F1DF08C0161617061806991FF1CF86959E
:1020B0007105610508940895E894BB276627772782
:1020C000CB0197F908950E94A510A59F900DB49F8C
:1020D000900DA49F800D911D112408952F923F9281
:1020E0004F925F926F927F928F929F92AF92BF9228
:1020F000CF92DF92EF92FF920F931F93CF93DF93D4
:10210000CDB7DEB7CA1BDB0B0FB6F894DEBF0FBE30
:10211000CDBF09942A88398848885F846E847D847D
:102120008C849B84AA84B984C884DF80EE80FD807F
:102130000C811B81AA81B981CE0FD11D0FB6F894F5
:10214000DEBF0FBECDBFED010895A29FB001B39FCA
:10215000C001A39F700D811D1124911DB29F700DB0
:10216000811D1124911D08955058BB27AA270E9454
:10217000CC100C9429100E941B1038F00E942210E1
:1021800020F039F49F3F19F426F40C9418100EF443
:10219000E095E7FB0C941210E92F0E943A1058F3D7
:1021A000BA17620773078407950720F079F4A6F53C
:1021B0000C945C100EF4E0950B2EBA2FA02D0B01A1
:1021C000B90190010C01CA01A0011124FF27591B7C
:1021D00099F0593F50F4503E68F11A16F040A22F82
:1021E000232F342F4427585FF3CF469537952795F3
:1021F000A795F0405395C9F77EF41F16BA0B620BF2
:10220000730B840BBAF09150A1F0FF0FBB1F661F38
:10221000771F881FC2F70EC0BA0F621F731F841F7B
:1022200048F4879577956795B795F7959E3F08F0A1
:10223000B0CF9395880F08F09927EE0F9795879563
:1022400008950E9435110C9429100E94221058F014
:102250000E941B1040F029F45F3F29F00C941210EB
:1022600051110C945D100C9418100E943A1068F3F0
:102270009923B1F3552391F3951B550BBB27AA273F
:1022800062177307840738F09F5F5F4F220F331F79
:10229000441FAA1FA9F335D00E2E3AF0E0E832D041
:1022A00091505040E695001CCAF72BD0FE2F29D044
:1022B000660F771F881FBB1F261737074807AB0716
:1022C000B0E809F0BB0B802DBF01FF2793585F4F8B
:1022D0003AF09E3F510578F00C9412100C945D106A
:1022E0005F3FE4F3983ED4F3869577956795B7956D
:1022F000F7959F5FC9F7880F911D9695879597F978
:102300000895E1E0660F771F881FBB1F62177307F0
:102310008407BA0720F0621B730B840BBA0BEE1F05
:1023200088F7E09508950E949A116894B1110C9471
:102330005D1008950E94421088F09F5798F0B92FC1
:102340009927B751B0F0E1F0660F771F881F991FEA
:102350001AF0BA95C9F714C0B13091F00E945C1020
:10236000B1E008950C945C10672F782F8827B85F30
:1023700039F0B93FCCF3869577956795B395D9F742
:102380003EF490958095709561957F4F8F4F9F4F4C
:1023900008950E947E0F08F48FEF089519F416F443
:1023A0000C9418100C9414120E944210B8F3992344
:1023B000C9F3B6F39F57550B87FF0E9422120024E2
:1023C000A0E640EA900180585695979528F4805CE5
:1023D000660F771F881F20F026173707480730F44D
:1023E000621B730B840B202931294A2BA695179465
:1023F0000794202531254A2758F7660F771F881F35
:1024000020F026173707480730F4620B730B840B54
:10241000200D311D411DA09581F7B901842F9158E0
:10242000880F9695879508959F3F31F0915020F43D
:10243000879577956795B795880F911D96958795A0
:1024400097F9089591505040660F771F881FD2F773
:102450000895991B79E004C0991F961708F0961B00
:10246000881F7A95C9F780950895A1E21A2EAA1BB4
:10247000BB1BFD010DC0AA1FBB1FEE1FFF1FA21734
:10248000B307E407F50720F0A21BB30BE40BF50B31
:10249000661F771F881F991F1A9469F760957095BA
:1024A000809590959B01AC01BD01CF010895EE0F81
:1024B000FF1F0590F491E02D09940F931F93CF9384
:1024C000DF938230910510F482E090E0E0915A04AD
:1024D000F0915B0430E020E0B0E0A0E0309799F4A8
:1024E0002115310509F44AC0281B390B2430310568
:1024F000D8F58A819B816115710589F1FB01938370
:102500008283FE0111C040815181028113814817ED
:102510005907E0F04817590799F4109761F012969F
:102520000C93129713961C933296CF01DF91CF91A3
:102530001F910F91089500935A0410935B04F4CFF8
:102540002115310551F04217530738F0A901DB017D
:102550009A01BD01DF01F801C1CFEF01F9CF9093DE
:102560005B0480935A04CDCFFE01E20FF31F8193E9
:1025700091932250310939832883D7CF2091580471
:1025800030915904232B41F420910401309105012D
:102590003093590420935804209102013091030193
:1025A0002115310541F42DB73EB7409106015091F8
:1025B0000701241B350BE0915804F0915904E217F0
:1025C000F307A0F42E1B3F0B2817390778F0AC0156
:1025D0004E5F5F4F2417350748F04E0F5F1F509333
:1025E000590440935804819391939FCFF0E0E0E029
:1025F0009CCFCF93DF930097E9F0FC0132971382D1
:102600001282A0915A04B0915B04ED0130E020E009
:102610001097A1F420813181820F931F20915804DB
:10262000309159042817390709F061C0F093590413
:10263000E0935804DF91CF910895EA01CE17DF07A8
:10264000E8F54A815B819E0141155105B1F7E90129
:10265000FB83EA8349915991C40FD51FEC17FD07FD
:1026600061F4808191810296840F951FE90199831D
:102670008883828193819B838A83F0E0E0E01296D5
:102680008D919C9113970097B9F52D913C911197DD
:10269000CD010296820F931F209158043091590466
:1026A0002817390739F6309751F510925B041092CC
:1026B0005A04B0935904A0935804BCCFD383C28367
:1026C00040815181840F951FC817D90761F44E5F6F
:1026D0005F4F88819981480F591F518340838A81B8
:1026E0009B81938382832115310509F0B0CFF0934C
:1026F0005B04E0935A049ECFFD01DC01C0CF13823E
:102700001282D7CFB0E0A0E0E8E8F3E10C947010BB
:102710008C01009751F4CB010E945D128C01C8011D
:10272000CDB7DEB7E0E10C948C10FC01E60FF71F8B
:102730009C0122503109E217F30708F49DC0D9012A
:10274000CD91DC911197C617D70798F0C530D10508
:1027500030F3CE0104978617970708F3C61BD70BF3
:102760002297C193D1936D937C93CF010E94F9126C
:10277000D6CF5B01AC1ABD0A4C018C0E9D1EA091F8
:102780005A04B0915B04512C412CF12CE12C109790
:1027900031F580915804909159048815990509F0F4
:1027A0005CC04616570608F058C08091020190910F
:1027B0000301009741F48DB79EB7409106015091F7
:1027C0000701841B950BE817F90708F055C0F09333
:1027D0005904E0935804F90171836083A0CF8D916F
:1027E0009C91119712966C90129713967C90139768
:1027F000A815B90559F56C0142E0C40ED11CCA14E4
:10280000DB0420F1AC014A195B09DA011296159735
:1028100080F06282738251834083D9016D937C93EF
:10282000E114F10471F0D7011396FC93EE93129723
:1028300076CF22968C0F9D1FF90191838083F3013F
:10284000EFCFF0935B04E0935A0469CF4816590622
:1028500008F42C017D01D3019ACFCB010E945D12B7
:102860007C01009749F0AE01B8010E944A14C801EA
:102870000E94F912870153CF10E000E050CF85FD90
:102880000C940F10806291110C940F1081568A5194
:10289000D8F70895FB01DC0102C001900D92415070
:1028A0005040D8F70895FC018191861721F08823C4
:1028B000D9F7992708953197CF010895FB01DC01DD
:1028C0008D91019080190110D9F3990B0895FB01A6
:1028D000DC0101900D920020E1F7089510E0C2E6BE
:1028E000D0E004C0FE010E9457122196C336D107E2
:1028F000C9F7F894FFCF320000005C0480000000AC
:102900000000AA020A023702F702680246025A02CF
:10291000504E4500424544005B776169743A005B64
:10292000736F756E643A737475623A4F4B5D005BFA
:10293000656E61626C653A005B757344656C6179C4
:102940003A005B783A005B783A4F55543A005B792D
:102950003A4F55543A005B793A005B793A42414428
:102960005F434D445D005B7A3A4F55543A005B7AC1
:102970003A005B66696E64686F6D653A005B583A51
:10298000002C593A002C5A3A005B6973486F6D6508
:102990003A583A005B6973486F6D653A593A005B83
:1029A0006973486F6D653A5A3A005B6973486F6D99
:1029B000653A4241445F4152475D005B72656C611C
:1029C000793A005B72656C61793A4241445F434DEC
:1029D000445D005B72656C6179323A005B72656CD4
:1029E0006179323A4241445F434D445D005B484265
:1029F0006F3A005B48426F3A4241445F434D445D49
:102A0000005B4842743A4241445F434D445D005B81
:102A10004842743A005B484F4D455F4552525D0055
:102A20004F4B4F4B0041524D0053454E0034300048
:102A3000434F4D4D414E44204E4F54205245434F3D
:082A4000474E495A45440000CD
:107E0000112484B714BE81FFF0D085E080938100F7
:107E100082E08093C00088E18093C10086E0809377
:107E2000C20080E18093C4008EE0C9D0259A86E02C
:107E300020E33CEF91E0309385002093840096BBD3
:107E4000B09BFECF1D9AA8958150A9F7CC24DD24C4
:107E500088248394B5E0AB2EA1E19A2EF3E0BF2EE7
:107E6000A2D0813461F49FD0082FAFD0023811F036
:107E7000013811F484E001C083E08DD089C08234E0
:107E800011F484E103C0853419F485E0A6D080C0E4
:107E9000853579F488D0E82EFF2485D0082F10E0AE
:107EA000102F00270E291F29000F111F8ED06801E7
:107EB0006FC0863521F484E090D080E0DECF843638
:107EC00009F040C070D06FD0082F6DD080E0C81688
:107ED00080E7D80618F4F601B7BEE895C0E0D1E017
:107EE00062D089930C17E1F7F0E0CF16F0E7DF06D8
:107EF00018F0F601B7BEE89568D007B600FCFDCFD4
:107F0000A601A0E0B1E02C9130E011968C91119780
:107F100090E0982F8827822B932B1296FA010C0160
:107F200087BEE89511244E5F5F4FF1E0A038BF0790
:107F300051F7F601A7BEE89507B600FCFDCF97BE46
:107F4000E89526C08437B1F42ED02DD0F82E2BD052
:107F50003CD0F601EF2C8F010F5F1F4F84911BD097
:107F6000EA94F801C1F70894C11CD11CFA94CF0C13
:107F7000D11C0EC0853739F428D08EE10CD085E9AC
:107F80000AD08FE07ACF813511F488E018D01DD067
:107F900080E101D065CF982F8091C00085FFFCCF94
:107FA0009093C60008958091C00087FFFCCF809118
:107FB000C00084FD01C0A8958091C6000895E0E648
:107FC000F0E098E1908380830895EDDF803219F02E
:107FD00088E0F5DFFFCF84E1DECF1F93182FE3DFCA
:107FE0001150E9F7F2DF1F91089580E0E8DFEE27F6
:047FF000FF270994CA
:027FFE00040479
:00000001FF
