:100000000C9464000C948C000C948C000C948C0068
:100010000C948C000C948C000C948C000C94D20DDD
:100020000C948C000C948C000C948C000C948C0020
:100030000C948C000C948C000C948C000C948C0010
:100040000C94880D0C948C000C94540E0C942E0E71
:100050000C948C000C948C000C948C000C948C00F0
:100060000C948C000C948C000000000024002700ED
:100070002A000000000023002600290000000008DC
:10008000000201000003040700000000000000005F
:10009000010204081020408001020408102001021F
:1000A0000408102000000000250028002B00040494
:1000B0000404040404040202020202020303030310
:1000C00003030200860E7C1611241FBECFEFD8E07A
:1000D000DEBFCDBF24E0A0E7B2E001C01D92AF3A81
:1000E000B207E1F712E0A0E0B1E0E0E4F8E302C01B
:1000F00005900D92A037B107D9F710E0C3E6D0E024
:1001000004C02197FE010E94F019C236D107C9F739
:100110000E94DC0E0C94131C0C940000833081F0C0
:1001200028F4813099F08230A9F008958730A9F041
:100130008830C9F08430B1F4809180008F7D03C095
:10014000809180008F7780938000089584B58F77A9
:1001500084BD089584B58F7DFBCF8091B0008F77EB
:100160008093B00008958091B0008F7DF9CFCF9338
:10017000DF93282F30E0F901E458FF4F8491F90113
:10018000E057FF4FD491F901E255FF4FC491CC23C2
:10019000A1F081110E948E00EC2FF0E0EE0FFF1F06
:1001A000EE58FF4FA591B491EC91ED2381E090E0E2
:1001B00009F480E0DF91CF91089580E090E0FACFDC
:1001C0001F93CF93DF93282F30E0F901E458FF4FBE
:1001D0008491F901E057FF4FD491F901E255FF4FA7
:1001E000C491CC23A9F0162F81110E948E00EC2F10
:1001F000F0E0EE0FFF1FEC55FF4FA591B4918FB7C4
:10020000F894EC91111108C0D095DE23DC938FBFD8
:10021000DF91CF911F910895DE2BF8CFCF93DF931D
:1002200090E0FC01E057FF4F249182559F4FFC0165
:1002300084918823D1F090E0880F991FFC01E85940
:10024000FF4FA591B491FC01EC55FF4FC591D4919E
:10025000623071F49FB7F8943C91822F809583238C
:100260008C93E8812E2B28839FBFDF91CF91089537
:100270008FB7F894EC912E2B2C938FBFF6CFCF92A3
:10028000DF92EF92FF92CF936C01809106018D3047
:1002900049F08F3F09F44FC0CF91FF90EF90DF906E
:1002A000CF900895E2ECF0E0C491C7FDF5CF61E096
:1002B0008DE00E940E01CC2319F0C23009F0D9C0A4
:1002C000F12CE12C68E478EE81E090E0A701960142
:1002D0000E94D119BA01A90141505109610971095E
:1002E000CC2309F406C1C23009F094C04F3F510538
:1002F0006105710509F00CF4BAC064E274EF80E0A6
:1003000090E0A70196010E94D119BA01A9014150BC
:1003100051096109710995E08091B100887F892BAD
:100320008093B100C13009F4BCC0C23009F4CEC022
:10033000C111B2CF8AC08DE080930601E2ECF0E0FB
:10034000C491CF3F09F4A8CFC13021F150F0C230A1
:1003500009F43EC0C7FDA0CF61E08DE00E940E0110
:10036000ACCF14BC15BC84B5826084BD85B58160FA
:1003700085BDEBEBF0E0E491F0E0EE0FFF1FEC55F4
:10038000FF4F85919491EDE9F0E0E491E0935B03F8
:10039000C0E08DCF1092800010928100809181008A
:1003A00088608093810080918100816080938100CA
:1003B000EBEBF0E0E491F0E0EE0FFF1FEC55FF4FA8
:1003C00085919491EDE9F0E0E491E0935A036FCFC9
:1003D0001092B0001092B1008091B00082608093C2
:1003E000B0008091B10081608093B100EBEBF0E050
:1003F000E491F0E0EE0FFF1FEC55FF4F85919491D3
:100400009093590380935803EDE9F0E0E491E09371
:1004100057034DCF4F3F51056105710541F13CF147
:1004200062E17AE780E090E0A70196010E94D1198D
:10043000BA01A9014150510961097109C11162C094
:1004400094E085B5887F892B85BD47BD8FEF9FEFF1
:10045000DC018093640390936503A0936603B093DB
:10046000670380916E00826080936E0015CF94E0E8
:1004700053CF960150E040E060E072E18AE790E0FF
:100480000E94D119BA01A9014150510961097109AC
:10049000C13009F047CF80918100887F81608093CF
:1004A000810050938900409388008FEF9FEFDC011B
:1004B0008093600390936103A0936203B0936303FE
:1004C00080916F00826080936F00E6CE4093B3000E
:1004D0008FEF9FEFDC0180935C0390935D03A0930B
:1004E0005E03B0935F038091700082608093700020
:1004F000D3CE93E04F3F51056105710511F00CF02B
:100500008FCF9FCF96E008CF1F93CF93DF93182F05
:10051000EB0161E00E940E01209739F460E0812F29
:10052000DF91CF911F910C94E000CF3FD10511F4E2
:1005300061E0F5CFE12FF0E0E458FF4FE491E330C4
:1005400031F140F4E130B1F0E230E1F0C038D105F2
:100550007CF7E4CFE73029F1E83059F1E430B1F726
:1005600080918000806280938000D0938B00C09344
:100570008A0004C084B5806884BDC7BDDF91CF9177
:100580001F91089584B5806284BDC8BDF7CF809166
:100590008000806880938000D0938900C093880099
:1005A000EDCF8091B00080688093B000C093B3001D
:1005B000E5CF8091B00080628093B000C093B4001A
:1005C000DDCF3FB7F8948091530390915403A091ED
:1005D0005503B091560326B5A89B05C02F3F19F0CF
:1005E0000196A11DB11D3FBFBA2FA92F982F8827B3
:1005F000BC01CD01620F711D811D911D42E0660F8E
:10060000771F881F991F4A95D1F708958F929F925F
:10061000AF92BF92CF92DF92EF92FF926B017C017B
:100620000E94E1024B015C01C114D104E104F10418
:10063000B9F00E94E102681979098A099B09683EAC
:1006400073408105910580F321E0C21AD108E108C9
:10065000F10888EE880E83E0981EA11CB11CE4CF3F
:10066000FF90EF90DF90CF90BF90AF909F908F90D2
:10067000089508959091060189130BC0E2ECF0E013
:10068000E4919FEF90930601E13049F028F0E230C9
:1006900061F060E00C94E00010926E00FACF90914F
:1006A0006F009D7F90936F00F4CF909170009D7FBD
:1006B0009093700091E09093B0009091B100987F7A
:1006C00094609093B1001092B300E3CFAF92BF92C9
:1006D000CF92DF92EF92FF920F931F93CF93DF930E
:1006E0006C017B018B01040F151FEB015E01AE183D
:1006F000BF08C017D10759F06991D601ED91FC915F
:100700000190F081E02DC6010995892B79F7C5018B
:10071000DF91CF911F910F91FF90EF90DF90CF90DD
:10072000BF90AF900895FC01538D448D252F30E08C
:10073000842F90E0821B930B541710F0CF960895EE
:1007400001970895FC01918D828D981761F0A28D1B
:10075000AE0FBF2FB11D5D968C91928D9F5F9F73E1
:10076000928F90E008958FEF9FEF0895FC01918D97
:10077000828D981731F0828DE80FF11D858D90E004
:1007800008958FEF9FEF0895FC01918D228D892FA1
:1007900090E0805C9F4F821B91098F739927089589
:1007A00088E693E00E94C40321E0892B09F420E04D
:1007B000822F089580E090E0892B29F00E94D003D9
:1007C00081110C9400000895FC01A48DA80FB92F8D
:1007D000B11DA35ABF4F2C91848D90E001968F7369
:1007E0009927848FA689B7892C93A089B1898C9188
:1007F000837080648C93938D848D981306C00288D7
:10080000F389E02D80818F7D80830895EF92FF92A0
:100810000F931F93CF93DF93EC0181E0888F9B8D23
:100820008C8D98131AC0E889F989808185FF15C0DD
:100830009FB7F894EE89FF896083E889F989808100
:100840008370806480839FBF81E090E0DF91CF91CF
:100850001F910F91FF90EF900895F62E0B8D10E0F1
:100860000F5F1F4F0F731127E02E8C8D8E110CC060
:100870000FB607FCFACFE889F989808185FFF5CFAB
:10088000CE010E94E403F1CFEB8DEC0FFD2FF11DA3
:10089000E35AFF4FF0829FB7F8940B8FEA89FB89E8
:1008A00080818062CFCFCF93DF93EC01888D882346
:1008B000B9F0AA89BB89E889F9898C9185FD03C0C3
:1008C000808186FD0DC00FB607FCF7CF8C9185FFA8
:1008D000F2CF808185FFEDCFCE010E94E403E9CF06
:1008E000DF91CF910895CF93DF93FC0127812223DD
:1008F00059F1EC0161E080850E940E0161E089857B
:100900000E940E018F81843011F08830B1F461E0D3
:100910008A850E940E0161E08B850E940E018FA5E1
:100920008F3F91F061E00E940E016EA581E0682783
:100930008FA5DF91CF910C94E000833011F08630C9
:1009400071F761E08A85E9CFDF91CF910895CF9368
:10095000DF93FC0127812223A9F0EC010190F081B3
:10096000E02D0284F385E02D60E009958FA58F3F8F
:1009700049F061E00E940E016EA58FA5DF91CF9135
:100980000C94E000DF91CF910895DC01ED91FC9192
:1009900022853385477055276627772741505109AF
:1009A00061097109473051056105710560F4FA016B
:1009B000E452FB4F0C94F019E604E804EA04EC045A
:1009C000EE04F004F20461E0F901099465E0FCCF63
:1009D00064E0FACF66E0F8CF62E0F6CF6AE0F4CFE9
:1009E00068E0F2CF69E0F0CFCF93DF93EC01CB0169
:1009F000BA0126E030E040E050E00E94D1196230B8
:100A000071058105910589F16CF461157105810508
:100A10009105D1F06130710581059105F9F0DF9103
:100A2000CF910895643071058105910561F124F13C
:100A3000653071058105910591F7E881F98102849E
:100A4000F385E02D66E006C0E881F9810284F38534
:100A5000E02D64E0CE01DF91CF910994E881F98126
:100A60000284F385E02D65E0F5CFE881F981028409
:100A7000F385E02D61E0EECFE881F9810284F38512
:100A8000E02D63E0E7CFE881F9810284F385E02D72
:100A900062E0E0CFDC01ED91FC910284F385E02D72
:100AA0004370552766277727423051056105710548
:100AB00071F0433051056105710559F04130510520
:100AC0006105710511F065E0099466E0FDCF6AE00B
:100AD000FBCF69E0F9CFCF93DF93EC01CB01BA01F3
:100AE00023E030E040E050E00E94D1196130710510
:100AF0008105910599F06230710581059105A9F094
:100B0000672B682B692BC1F4E881F9810284F38596
:100B1000E02D64E0CE01DF91CF910994E881F98165
:100B20000284F385E02D61E0F5CFE881F98102844C
:100B3000F385E02D62E0EECFDF91CF910895DC01E7
:100B4000ED91FC910284F385E02D437055276627D3
:100B50007727423051056105710571F04330510529
:100B60006105710559F0413051056105710511F0BC
:100B700062E0099463E0FDCF61E0FBCF60E0F9CF74
:100B8000CF93DF93EC01E881F9810284F385E02DB6
:100B90008A8160E0811162E0CE010995E881F981E6
:100BA0000284F385E02D8A8161E0811163E0CE014A
:100BB00009958CA59DA58230910538F0880F991F65
:100BC000880F991F05970197F1F7E881F981028451
:100BD000F385E02D8A8160E0811162E0CE01DF9132
:100BE000CF910994CF93DF93EC0120E030E0A9018D
:100BF000688D798D8A8D9B8D0E94711918162CF441
:100C0000E8A9F9A9DF91CF910994EAA9FBA9FACF44
:100C1000CF92DF92EF92FF920F931F93CF93DF93C8
:100C2000DC011796CC91C43039F0C83059F1C3308B
:100C300019F0C63049F1C2E08C01085F1F4FF12C5A
:100C4000E12CC62ED12CD1E0F8016481C6010E2C16
:100C500002C0959587950A94E2F780FD6D270F5F96
:100C60001F4F80810E94E000BFEFEB1AFB0AEC16D9
:100C700058F3DF91CF911F910F91FF90EF90DF908C
:100C8000CF900895C4E0D8CFC3E0D6CFDC0117964B
:100C9000EC911797E93008F038C0F0E0EE5AF94FC0
:100CA0000C94F0195B06610667066D0673068506EF
:100CB000790685067F06ED91FC910684F785E02D87
:100CC0000994ED91FC910088F189E02DF9CFED9127
:100CD000FC910288F389E02DF3CFED91FC9104881B
:100CE000F589E02DEDCFED91FC910688F789E02D97
:100CF000E7CFED91FC91008CF18DE02DE1CFED91EE
:100D0000FC91028CF38DE02DDBCF08954F925F9222
:100D10006F927F92AF92BF92CF92DF92EF92FF924B
:100D20000F931F93CF93DF93EC015A018B019A012C
:100D3000AB01688D798D8A8D9B8D0E940117882368
:100D400079F14C8C5D8C6E8C7F8C73016201F7FAAB
:100D5000F094F7F8F094A7019601B501C8010E943C
:100D6000011787FD0CC0A3019201B501C8010E94C3
:100D7000711973016201181614F06501780120E001
:100D800030E0A901C701B6010E940117811117C007
:100D90001B821C821D821E82C88ED98EEA8EFB8E1B
:100DA000DF91CF911F910F91FF90EF90DF90CF9047
:100DB000BF90AF907F906F905F904F900895A70184
:100DC000960160E074E284E799E40E94C9189F7775
:100DD0000E9442196B837C838D839E8311E020E007
:100DE00030E0A901C701B6010E94711918160CF074
:100DF00010E01A83D1CF4F925F926F927F928F92C1
:100E00009F92AF92BF92CF92DF92EF92FF920F9399
:100E10001F93CF93DF93EC01CC88DD88EE88FF88A9
:100E200088899989AA89BB89C81AD90AEA0AFB0A5A
:100E3000688D798D8A8D9B8D9B01AC010E9467170F
:100E40004B015C0168A179A18AA19BA19B01AC0126
:100E50000E945D189B01AC01C501B4010E94C91834
:100E60000E943B19C114D104E104F10409F0B6C099
:100E700062307105810591050CF0D0C01B821C8287
:100E80001D821E82188E198E1A8E1B8E1CAA1DAAF8
:100E90001EAA1FAAC12CD12C7601C701B601DF9171
:100EA000CF911F910F91FF90EF90DF90CF90BF9067
:100EB000AF909F908F907F906F905F904F9008952C
:100EC0001016110612061306B4F46C157D058E0576
:100ED0009F051CF42A812111A1C09B01AC01882728
:100EE0009927DC01821B930BA40BB50B8CAB9DAB3C
:100EF000AEABBFAB93C0011511052105310509F457
:100F00008DC06C157D058E059F050CF087C08A810C
:100F1000882309F483C030952095109501951F4FC3
:100F20002F4F3F4F0CAB1DAB2EAB3FAB77C0011526
:100F300011052105310509F471C088249924540153
:100F40008C189D08AE08BF08681579058A059B05B1
:100F50000CF064C08A81811161C0DDCFCCACDDAC06
:100F6000EEACFFACA7019601C701B6010E945D1867
:100F70002B013C01C501B4010E94081720E030E0BC
:100F800040E850E40E94671720E030E040E85FE36B
:100F90000E945D189B01AC01C301B2010E94C918F7
:100FA0009B01AC01C701B6010E945C183B016C01BA
:100FB000FE01E05CFF4FE080F18002811381970128
:100FC000A8010E947119181614F473018601C70153
:100FD000D8018CAF9DAFAEAFBFAF3AC00CA91DA971
:100FE0002EA93FA91C141D041E041F040CF468CF75
:100FF00010161106120613060CF099CF00271127C0
:1010000098010C191D092E093F0960177107820705
:1010100093070CF062CF2A8121115FCF8CA89DA885
:10102000AEA8BFA881149104A104B10409F096CF21
:1010300088AD99ADAAADBBAD8CAF9DAFAEAFBFAF24
:1010400081E01C141D041E041F040CF080E08A8340
:101050003FEF831A930AA30AB30A8CAA9DAAAEAAE9
:10106000BFAA8CAC9DACAEACBFACC501B4010E94B4
:1010700042196B017C01CB82DC82ED82FE82A501EC
:10108000940160E074E284E799E40E94C918688FD3
:10109000798F8A8F9B8F2A812111FFCE9058688F7C
:1010A000798F8A8F9B8FF9CECF92DF92EF92FF924A
:1010B000CF93DF93EC01688D798D8A8D9B8D9B0199
:1010C000AC010E9467176B017C0168A179A18AA11C
:1010D0009BA19B01AC010E945D189B01AC01C70163
:1010E000B6010E94C9180E943B196CAB7DAB8EAB58
:1010F0009FABCE01DF91CF91FF90EF90DF90CF902B
:101100000C94FB06CF92DF92EF92FF92CF93DF9386
:10111000FC014381548165817681452B462B472B09
:1011200041F480E0DF91CF91FF90EF90DF90CF907E
:101130000895EC010E94E1026B017C0188A599A54C
:10114000AAA5BBA5B701A601481B590B6A0B7B0BCF
:101150008B819C81AD81BE81481759076A077B0747
:1011600000F388899989AA89BB892A812223A1F061
:101170000196A11DB11D888B998BAA8BBB8B4889C9
:1011800059896A897B89CE010E944606C8A6D9A6DC
:10119000EAA6FBA681E0C6CF0197A109B109EBCF72
:1011A0000F931F93CF93DF93EC010E948208882353
:1011B00019F0CE010E94FB0620E030E0A901688D05
:1011C000798D8A8D9B8D0E940117811114C081E059
:1011D0000C891D892E893F89488959896A897B89AB
:1011E000041715072607370709F480E0DF91CF9130
:1011F0001F910F91089581E0F9CF0F931F93CF9323
:10120000DF93EC0197FD4AC08091040190910501A4
:101210008C179D070CF442C0BE010D2E000C880BEC
:10122000990B0E94081720E030E040E252E40E944F
:1012300067170E943B190091630410916404209188
:10124000650430916604601771078207930761F0A7
:1012500060936304709364048093650490936604C0
:101260008FE494E00E94FB06409163045091640473
:10127000609165047091660480915F0490916004B0
:10128000A0916104B0916204481759076A077B076F
:1012900039F08FE494E00E94D008E6CFCFEFDFEF83
:1012A000CE01DF91CF911F910F9108950F931F935E
:1012B000CF93DF93EC0197FD4AC08091020190919A
:1012C00003018C179D070CF442C0BE010D2E000CCB
:1012D000880B990B0E94081720E030E040E252E4AE
:1012E0000E9467170E943B1900911F04109120046F
:1012F000209121043091220460177107820793071F
:1013000061F060931F0470932004809321049093F4
:1013100022048BE094E00E94FB0640911F04509150
:101320002004609121047091220480911B0490910B
:101330001C04A0911D04B0911E04481759076A07A8
:101340007B0739F08BE094E00E94D008E6CFCFEF26
:10135000DFEFCE01DF91CF911F910F910895089596
:1013600040E050E066E973EC8BE094E00E94860672
:1013700083E00E94B700892B29F08BE094E00E9463
:101380008208F6CF10921B0410921C0410921D04C8
:1013900010921E0410923F041092400410924104D7
:1013A0001092420410920E0410920F041092100436
:1013B0001092110410922304109224041092250418
:1013C0001092260480E590E0A0E0B0E080931F0436
:1013D00090932004A0932104B09322048BE094E026
:1013E0000E94FB0640911F0450912004609121044B
:1013F0007091220480911B0490911C04A0911D0403
:10140000B0911E04481759076A077B0729F08BE043
:1014100094E00E94D008E6CF90E080E0089540E09C
:1014200050E066E973EC8FE494E00E94860682E067
:101430000E94B700892B29F08FE494E00E94820873
:10144000F6CF10925F041092600410926104109223
:101450006204109283041092840410928504109206
:101460008604109252041092530410925404109265
:101470005504109267041092680410926904109247
:101480006A0480E590E0A0E0B0E08093630490936C
:101490006404A0936504B09366048FE494E00E9412
:1014A000FB0640916304509164046091650470915F
:1014B000660480915F0490916004A0916104B091F2
:1014C0006204481759076A077B0729F08FE494E004
:1014D0000E94D008E6CF90E080E00895FC012481CE
:1014E0003581232B39F421E0FB018081882349F0E9
:1014F00020E007C0808191810E94031C21E0892B9C
:10150000B9F7822F089564E670E080E090E00E94D1
:1015100006036FE371E085EA94E00E946E0A882377
:1015200071F060E083E00E94E00070E060E086E03F
:101530000E94840270E060E085E00E94840263E41F
:1015400071E085EA94E00E946E0A811110C067E4A0
:1015500071E085EA94E00E946E0A811108C06FE391
:1015600071E085EA94E00E946E0A882321F060E031
:1015700089E00E94E00063E471E085EA94E00E9463
:101580006E0A811107C067E471E085EA94E00E9469
:101590006E0A81110E94B0096BE471E085EA94E063
:1015A0000E946E0A811102C00E940F0A63E471E07A
:1015B00085EA94E00E946E0A811110C067E471E030
:1015C00085EA94E00E946E0A811108C06FE371E021
:1015D00085EA94E00E946E0A882321F061E089E0A8
:1015E0000C94E00008950F931F93CF93DF938C0129
:1015F000EB01FC01808191810097E1F068817981A4
:1016000061157105A9F0428153812C813D814217FA
:10161000530770F00E940C1C8C819D81F80195830A
:1016200084831D821C82DF91CF911F910F910895B9
:101630000E94B41A88819981F801918380838A81FC
:101640009B81938382838C819D819583848319827E
:1016500018821B821A82E5CFCF93DF93EC01888139
:101660009981009711F00E94B41A198218821D8284
:101670001C821B821A82DF91CF910895FC01808128
:101680009181009711F00C94B41A08950C94B41A37
:101690000F931F93CF93DF93EC018881998100977B
:1016A00059F02A813B812617370730F081E0DF911E
:1016B000CF911F910F9108958B016F5F7F4F0E9413
:1016C0003D1B009759F0998388831B830A832C81E3
:1016D0003D81232B59F7FC011082E8CF80E0E7CF52
:1016E000EF92FF920F931F93CF93DF9361157105D4
:1016F00041F480E0DF91CF911F910F91FF90EF9027
:10170000089541155105B1F07B01EC010C811D815B
:10171000040F151FB8010E94480B882351F328813C
:1017200039818C819D81B701820F931F0E940C1C0F
:101730001D830C8381E0DECFCF93DF93EC01FB01AF
:1017400001900020E9F73197AF01461B570B0E942B
:10175000700B811103C0CE010E942C0BCE01DF91D2
:10176000CF910895CF93DF93EC01FB014481558124
:10177000608171810E94700B811103C0CE010E94B3
:101780002C0BCE01DF91CF910895CF93DF9300D042
:10179000CDB7DEB769831A8241E050E0BE016F5FCA
:1017A0007F4F0E94700B0F900F90DF91CF910895A3
:1017B000FB0101900020E9F73197AF01461B570B61
:1017C0000C94700BEF92FF920F931F93CF93DF93C4
:1017D000EC017B018A01BA010E94480B81110BC008
:1017E000CE010E942C0BCE01DF91CF911F910F9162
:1017F000FF90EF9008951D830C83B7018881998134
:101800000E940C1CF0CFFB0101900020E9F73197FA
:10181000AF01461B570B0C94E20B0F931F93CF9312
:10182000DF93CDB7DEB762970FB6F894DEBF0FBE79
:10183000CDBF8C01CB01F80111821082138212827C
:10184000158214824AE0BE016F5F7F4F0E94B71677
:10185000BE016F5F7F4FC8010E94030C62960FB6F6
:10186000F894DEBF0FBECDBFDF91CF911F910F91D6
:101870000895CF93DF93EC01FB018617970749F09A
:10188000608171816115710541F0448155810E942B
:10189000E20BCE01DF91CF9108950E942C0BF9CF7E
:1018A000FC011182108213821282158214820C9420
:1018B000390CFC011182108213821282158214826B
:1018C000FB0101900020E9F73197AF01461B570B50
:1018D0000C94E20B4F925F926F927F928F929F9245
:1018E000AF92BF92CF92DF92EF92FF92CF93DF93AE
:1018F000EC016A017B0120E030E0A901CB01B601D7
:101900000E94011787FF04C0F7FAF094F7F8F094EB
:1019100088A099A0AAA0BBA0A7019601C501B40107
:101920000E940117882309F44DC06CA97DA98EA9D6
:101930009FA90E9408172B013C01A7019601C50130
:10194000B4010E94C9189B01AC01C301B2010E94FD
:1019500067170E943B196CAB7DAB8EAB9FABA701A9
:10196000960160E070E080E090E40E94C9180E9457
:101970007C1926E53EE04DE25FE30E94671720E018
:1019800034E244E759E40E94671768AF79AF8AAF41
:101990009BAFC8A2D9A2EAA2FBA2E881F981008488
:1019A000F185E02DCE01DF91CF91FF90EF90DF9098
:1019B000CF90BF90AF909F908F907F906F905F90EF
:1019C0004F900994DF91CF91FF90EF90DF90CF90EF
:1019D000BF90AF909F908F907F906F905F904F904F
:1019E0000895CF92DF92EF92FF920F931F93CF93C0
:1019F000DF93EC0181E191E09983888381E08F831B
:101A0000188A198A1A8A1B8A1C8A1D8A1E8A1F8AAA
:101A1000188E198E1A8E1B8E1C8E1D8E1E8E1F8E7A
:101A200018A219A21AA21BA2C12CD12C80E8E82E60
:101A30008FE3F82ECCA2DDA2EEA2FFA21B821C82B5
:101A40001D821E8281E090E09DA78CA78FEF8FA75B
:101A500018A619A61AA61BA66887498784E08A8754
:101A600085E08B871EA61CAA1DAA1EAA1FAA18AE57
:101A700019AE1AAE1BAE1CAE1DAE1EAE1FAE8E0151
:101A8000005C1F4FF801C082D182E282F3821A8289
:101A90001C861D861E861F86CE010E947304B70118
:101AA000A601CE010E946A0CA70196016C8D7D8D66
:101AB0008E8D9F8D0E940117882309F1CC8EDD8EBB
:101AC000EE8EFF8E80E094E2A4E7B9E4F801808313
:101AD0009183A283B3838CA99DA9AEA9BFA918162F
:101AE00019061A061B065CF4CE01DF91CF911F91F7
:101AF0000F91FF90EF90DF90CF900C945408DF91FE
:101B0000CF911F910F91FF90EF90DF90CF900895AC
:101B10001F920F920FB60F9211242F933F938F9322
:101B20009F93AF93BF9380914F0390915003A091E7
:101B30005103B091520330914E0323E0230F2D3710
:101B400058F50196A11DB11D20934E0380934F03BC
:101B500090935003A0935103B09352038091530389
:101B600090915403A0915503B09156030196A11D85
:101B7000B11D8093530390935403A0935503B093E6
:101B80005603BF91AF919F918F913F912F910F90ED
:101B90000FBE0F901F90189526E8230F0296A11DE7
:101BA000B11DD2CF1F920F920FB60F9211242F9317
:101BB0003F934F935F936F937F938F939F93AF93D5
:101BC000BF93EF93FF9380915C0390915D03A0918D
:101BD0005E03B0915F03892B8A2B8B2BD1F19091FF
:101BE0005703E0915803F09159038081892780833E
:101BF00080915C0390915D03A0915E03B0915F03BF
:101C0000181619061A061B069CF480915C03909125
:101C10005D03A0915E03B0915F030197A109B10933
:101C200080935C0390935D03A0935E03B0935F0386
:101C3000FF91EF91BF91AF919F918F917F916F91A4
:101C40005F914F913F912F910F900FBE0F901F907A
:101C50001895809106010E943A03EACF1F920F92D5
:101C60000FB60F9211242F933F934F935F936F936F
:101C70007F938F939F93AF93BF93EF93FF9388E6E8
:101C800093E00E94E403FF91EF91BF91AF919F9188
:101C90008F917F916F915F914F913F912F910F9015
:101CA0000FBE0F901F9018951F920F920FB60F92B4
:101CB00011242F938F939F93EF93FF93E0917803D9
:101CC000F09179038081E0917E03F0917F0382FDA2
:101CD0001BC09081809181038F5F8F73209182035D
:101CE000821741F0E0918103F0E0E859FC4F958FB5
:101CF00080938103FF91EF919F918F912F910F908E
:101D00000FBE0F901F9018958081F4CFE8E6F3E0A6
:101D10001382128288EE93E0A0E0B0E08483958382
:101D2000A683B78381E391E09183808385EC90E083
:101D30009587848784EC90E09787868780EC90E095
:101D4000918B808B81EC90E0938B828B82EC90E086
:101D5000958B848B86EC90E0978B868B118E128E00
:101D6000138E148E6FE672E085EA94E00E94590C9F
:101D70006FE471E08FE994E00E94590C6FE672E025
:101D800089E994E00E94590C6FE672E083E994E0DF
:101D90000E94590C47E068E08FE494E00E94F10C47
:101DA00045E066E08BE094E00E94F10C6FE672E0A3
:101DB00085E094E00C94590CCF93DF93CDB7DEB758
:101DC0006E970FB6F894DEBF0FBECDBF789484B582
:101DD000826084BD84B5816084BD85B5826085BD27
:101DE00085B5816085BD80916E00816080936E00B5
:101DF00010928100809181008260809381008091A7
:101E00008100816080938100809180008160809357
:101E100080008091B10084608093B1008091B00017
:101E200081608093B00080917A00846080937A0012
:101E300080917A00826080937A0080917A0081603C
:101E400080937A0080917A00806880937A00109263
:101E5000C10086E480937C0080917A008064809346
:101E60007A0080917A0086FDFCCF609178007091B5
:101E70007900072E000C880B990B0E9408172AE0A6
:101E800038E240EA5BE30E9467176B017C016FE672
:101E900072E0CE0101960E94590C24EA30E74DE72A
:101EA0005FE3C701B6010E9401176BE471E01816E9
:101EB000C4F520E030E040E85FE3C701B6010E94CE
:101EC000711987FD0CC022E538EB4EEF5FE3C701C7
:101ED000B6010E9401176FE371E0181614F520E0B7
:101EE00030E040E050E4C701B6010E94711987FD5F
:101EF0000CC029E23CE54FE350E4C701B6010E9463
:101F0000011763E471E0181664F420E030E040E467
:101F100050E4C701B6010E94711987FD06C067E44D
:101F200071E0CE0101960E94030CBE016F5F7F4FEE
:101F300085EA94E00E94F30ACE0101960E943E0BCE
:101F400065EA74E085E094E00E94390C65E074E095
:101F5000CE0101960E94500C6BE471E0CE01019617
:101F60000E946E0A882309F416C161E08DE00E9488
:101F70000E0160E08DE00E94E000CE0101960E941B
:101F80003E0BE0917803F091790382E08083E09149
:101F90007403F09175031082E0917603F09177035A
:101FA00080E1808310928003E0917C03F0917D03B7
:101FB00086E08083E0917A03F0917B0380818061E9
:101FC0008083E0917A03F0917B0380818860808335
:101FD000E0917A03F0917B03808180688083E091B7
:101FE0007A03F0917B0380818F7D808361E089E0BB
:101FF0000E940E0160E089E00E94E00062E082E061
:102000000E940E0162E083E00E940E0120E030E0B9
:102010004AE754E460916B0470916C0480916D0404
:1020200090916E040E940117882329F180E090E0CE
:10203000AAE7B4E480936B0490936C04A0936D04BE
:10204000B0936E0480938F0490939004A0939104B6
:10205000B09392048091830490918404A0918504AC
:10206000B0918604181619061A061B0624F48FE48C
:1020700094E00E94540840E050E06AEF73E48FE47B
:1020800094E00E94860640E050E066E973E48FE445
:1020900094E00E946A0C20E030E04AE754E460914A
:1020A0002704709128048091290490912A040E94A9
:1020B0000117882329F180E090E0AAE7B4E4809337
:1020C000270490932804A0932904B0932A048093B2
:1020D0004B0490934C04A0934D04B0934E04809114
:1020E0003F0490914004A0914104B091420418161D
:1020F00019061A061B0624F48BE094E00E9454088B
:1021000040E050E06AEF73E48BE094E00E948606C2
:1021100040E050E066E973E48BE094E00E946A0CD2
:10212000C12C7DE7D72EAA24A394B12C60E0662EA3
:1021300060E0762E88E693E00E94C4031816190624
:102140000CF089C166E470E080E090E00E94060334
:10215000B0924D03A0924C036FE672E083E994E0E5
:102160000E94030C6FE672E089E994E00E94030C80
:1021700010E088E693E00E94C403181619060CF0DC
:1021800064C088E693E00E94A203111158C08093B6
:102190004B0311E0EECF67E471E0CE0101960E949F
:1021A0006E0A182F63E471E0CE0101960E946E0A58
:1021B00011114FC581114FC56FE371E0CE0101963A
:1021C0000E946E0A882309F4D8CE80E590E09093AF
:1021D00005018093040161E088E00E940E0161E046
:1021E00087E00E940E0161E086E00E940E0161E03E
:1021F00085E00E940E0162E082E00E940E0182E012
:102200000E94B7008093010161E089E00E940E0105
:1022100061E083E00E940E0161E08FE00E940E0108
:1022200061E08DE00E940E0161E08DE00E94E0001F
:1022300060E083E00E94E00060E08FE058C5682F16
:1022400089E994E00E94C50BA4CF80914B0365EA15
:1022500074E08F3329F0863709F009C16FE974E023
:1022600083E994E00E94390C80914C0390914D03D6
:10227000029720F010924D0310924C036FE672E02B
:10228000CE010D960E94590C80919704909198046C
:1022900084369105C8F16FE672E0CE0101960E9486
:1022A000590C00919704109198040115110509F13A
:1022B0000236110510F002E610E0E0919304F0916F
:1022C0009404E00FF11FF0801082609193047091EC
:1022D0009404CE0101966115710509F4B7C40E94FA
:1022E000030C8091930490919404080F191FF80136
:1022F000F082BE016F5F7F4F83E994E00E94F30A92
:10230000CE0101960E943E0B009197041091980413
:10231000B801CE0101960E940D0CBE016F5F7F4F88
:10232000CE010D960E94F30ACE0101960E943E0B4B
:102330000A301105B4F46EE672E0CE0101960E94F7
:10234000590CBE01635F7F4FCE0101960E94B20B14
:10235000BC01CE010D960E94390CCE0101960E945F
:102360003E0B6FE672E0CE0143960E94590C6091DD
:102370004C0370914D03CE0101960E940D0CBE01DD
:102380006D5E7F4FCE0107960E94500CBE016F5FBD
:102390007F4FCE0107960E94B20BBC01CE0143963F
:1023A0000E94390CCE0107960E943E0BCE01019689
:1023B0000E943E0BBE01635F7F4FCE0101960E94DB
:1023C000500CBE016D5E7F4FCE0107960E94500CEF
:1023D000BE016F5F7F4FCE0107960E94B20BBC011A
:1023E000CE0143960E94390CCE0107960E943E0B07
:1023F000CE0101960E943E0BBE016D5E7F4FCE0165
:1024000001960E94500C63E974E0CE0101960E948F
:10241000B20B8C016AE00E94C50B811103C0C80198
:102420000E942C0BB801CE0143960E94390CCE01BC
:1024300001960E943E0BCE010D960E943E0B4F89E5
:10244000588D6B897C8988E693E00E946603CE01F3
:1024500043960E943E0B6114710409F46BCE0E94F6
:10246000D003882309F45FCE0E9400005CCE813245
:1024700009F070C369E974E0CE0107960E94500C20
:1024800010924803109247036FE672E0CE01019666
:102490000E94590C8B849C84F12CE12C80E0E81480
:1024A000F9040CF04CC02B853C85E216F30620F4B1
:1024B000EF81F885309719F510927002E0E7F2E0AD
:1024C000608100914703109148036C37F9F48981CA
:1024D0009A810097B9F00E949016000F111FF80121
:1024E000E754FD4F718360836FE672E0CE01019681
:1024F0000E94030C80E02FEFE21AF20AD0CFEE0D1B
:10250000FF1DDECF60E070E0CB01E7CF811112C08C
:10251000F801EB58FD4F60836FE672E0CE01019643
:102520000E94030C0F5F1F4F109348030093470353
:1025300081E0E1CFCE0101960E94C50BF9CF6FE695
:1025400072E0CE0101960E946E0A811111C089814C
:102550009A81009709F460C00E949016E0914703A9
:10256000F0914803EE0FFF1FE754FD4F7183608326
:10257000CE0101960E943E0BCE0107960E943E0BB3
:102580006FE672E0CE0149960E94590C10924A0300
:10259000109249038091490390914A032091470387
:1025A00030914803821793070CF0CFC2FC01EE0F65
:1025B000FF1FE554FD4F008111818B589D4FFC0199
:1025C000F0806FE672E0CE0143960E94590CEEE96E
:1025D000EF0DE93108F08FC00E2E000CFF0BED500F
:1025E000FD4E0C94F019EF137B132C13DC137B13AB
:1025F0007B137B13FB147B137B137B1370147B13F4
:102600006515BF147B137B137B138E154415521570
:1026100010131C147B13501460E070E0CB019ECFAC
:10262000B801012E000C880B990B0E940603B8011B
:10263000CE0101960E940D0C62E571E0CE01079675
:102640000E94590CBE016F5F7F4FCE0107960E941A
:10265000B20B6AE272E00DC169E571E0CE0143960A
:102660000E94030C0130110509F062C061E671E0BF
:10267000CE0143960E94D80B8AE491E00E943F016C
:1026800066E970E080E090E00E94060388E891E04F
:102690000E943F0166E970E080E090E00E9406033E
:1026A00083E992E00E943F0166E970E080E090E0FB
:1026B0000E9406038BE092E00E943F0166E970E011
:1026C00080E090E00E9406038BE492E00E943F01CC
:1026D00066E970E080E090E00E94060380E193E00C
:1026E0000E943F0166E970E080E090E00E940603EE
:1026F0008DE00E943A03BE016D5E7F4FCE01499688
:102700000E94F30ACE0143960E943E0B4D8D5E8DD2
:10271000698D7A8D83E994E00E94700B8091490362
:1027200090914A03019690934A038093490332CFD4
:1027300061E771E0CE0143960E94D80B8EE692E0ED
:102740000E943F016CE271E080E090E00E9406038D
:102750008BE492E00E943F016CE271E080E090E047
:102760000E9406038AE292E00E943F016CE271E05F
:1027700080E090E00E9406038AE0F82E01E012E07B
:10278000C8010E943F0165E070E080E090E00E9497
:1027900006030F5F1F4F0631F2E01F0789F7FA9417
:1027A000F110ECCF8DE00E943A0364EF71E080E01D
:1027B00090E00E9406039FCF62E871E0CE0143964D
:1027C0000E94030C60E089E00130110509F478C132
:1027D00061E089E00E94E0006AE971E028C0B80188
:1027E000CE0101960E940D0C62EA71E0CE010796BF
:1027F0000E94590CBE016F5F7F4FCE0107960E9469
:10280000B20BBC01CE0143960E94390CCE01079653
:102810000E943E0BCE0101960E943E0B0150110911
:102820006AE272E0083E134010F063E372E0CE010A
:1028300043960E94D80B5FCF8091040190910501CF
:102840008017910714F017FF1CC0B801CE01019644
:102850000E940D0C6CEA71E0CE0107960E94590CA3
:10286000BE016F5F7F4FCE0107960E94B20B6BE3F4
:1028700072E00E949C0BBC01CE0143960E94390C71
:10288000FEC0C8010E94FD089093740280937302F9
:10289000B801CE0101960E940D0C6BEB71E0CECE1B
:1028A00080910201909103018017910714F017FFA6
:1028B00008C0B801CE0101960E940D0C6FEB71E0CB
:1028C000CBCFC8010E945609909372028093710287
:1028D000B801CE0101960E940D0C6EEC71E0AECEF7
:1028E000B801CE0101960E940D0C62ED71E0CE019F
:1028F00007960E94590CBE016F5F7F4FCE0107966D
:102900000E94B20B6CE172E00E949C0BBC01CE01F4
:1029100043960E94390CCE0107960E943E0BCE01D1
:1029200001960E943E0B0130110531F00330110574
:1029300091F064E372E07BCF0E940F0AF601E81B7E
:10294000F90BCF016DED71E081159D470CF06FCF54
:1029500066EE71E06CCF0E94B0099601281B390B1E
:10296000C9016CEE71E081159D4714F465EF71E0CB
:10297000CE0143960E94D80B65EF71E058CF60916D
:10298000710270917202CE0101960E940D0C60914D
:10299000730270917402CE0107960E940D0C6BEFCA
:1029A00071E0CE010D960E94590CBE01695F7F4F08
:1029B000CE010D960E94B20B6FEF71E00E949C0B4E
:1029C000BE016F5F7F4F0E94B20B6BE372E00E940B
:1029D0009C0BBC01CE0143960E94390CCE010D9692
:1029E0000E943E0BCE0107960E943E0BCE0101963F
:1029F0000E943E0B80CE64E072E0CE0143960E94BE
:102A0000030C01301105A1F00330110509F091CF3D
:102A100083E00E94B70061E070E0892B11F070E064
:102A200060E0CE0101960E940D0C61E072E00FC0E3
:102A300082E00E94B70061E070E0892B11F070E045
:102A400060E0CE0101960E940D0C6CEF71E0CE01AA
:102A500007960E94590CBE016F5F7F4FCE0107960B
:102A60000E94B20B6AE272E00E949C0BFC0144815E
:102A7000558160817181CE0143960E94700BCE0119
:102A800007960E943E0BB2CF6DE072E0CE014396F6
:102A90000E94030C61E083E00130110589F060E0E1
:102AA00083E098CE65E172E0CE0143960E94030C6C
:102AB00060E08FE00130110509F08CCE61E08FE01D
:102AC0000E94E00063E971E0B2CE0F3F110509F00A
:102AD000F0F4B80186E00E94840270E060E085E0D6
:102AE0000E948402B801CE0101960E940D0C6EE195
:102AF00072E0CE0107960E94590CBE016F5F7F4FB6
:102B0000CE0107960E94B20B66E272E0B2CE6FE28F
:102B100072E0CE0143960E94030CEDCD69E472E0B1
:102B20000F3F110509F0A8F770E060E086E00E9411
:102B30008402B80185E00E948402B801CE010196AA
:102B40000E940D0C6DE372E079CDCE0149960E9492
:102B50003E0B8ACB833209F067C064E670E080E008
:102B600090E00E94060363E471E085EA94E00E942D
:102B70006E0A811110C067E471E085EA94E00E945A
:102B80006E0A811108C06FE371E085EA94E00E944B
:102B90006E0A882321F060E089E00E94E0006BE487
:102BA00071E085EA94E00E946E0A811102C00E94E1
:102BB0000F0A63E471E085EA94E00E946E0A8111D5
:102BC00007C067E471E085EA94E00E946E0A811113
:102BD0000E94B00963E471E085EA94E00E946E0A05
:102BE000882381F08EE690E00E94FD0890937402A5
:102BF000809373028FE090E00E94560990937202D6
:102C00008093710267E471E085EA94E00E946E0AA5
:102C1000882309F429CB80E590E00E94560990931F
:102C200072028093710220CB8D3319F40E94830AC3
:102C30001BCB8034D9F310924D0310924C0367E5FF
:102C400072E083E994E00E94030C0ECB0E942C0BEF
:102C500048CB8823A1F086E990E09093050180930A
:102C600004018EEB90E0909303018093020167E4EE
:102C700071E0CE0101960E946E0A882361F089E519
:102C800091E090930501809304018AEF90E0909386
:102C900003018093020161E088E00E940E0161E07F
:102CA00087E00E940E0161E086E00E940E0161E073
:102CB00085E00E940E0162E082E00E940E0182E047
:102CC0000E94B7008093010162E083E00E940E0140
:102CD00083E00E94B7008093000161E089E00E94D8
:102CE0000E0161E08DE00E940E0161E08DE00E9426
:102CF000E00061E089E03FC985E094E00E943E0B7E
:102D000083E994E00E943E0B89E994E00E943E0B27
:102D10008FE994E00E943E0B85EA94E00C943E0B10
:102D20001F93FC0199278827BC01E8941191103268
:102D3000E9F3193010F01E30C8F31B3251F01D3288
:102D400049F4689406C00E94C216610F711D811D6E
:102D5000911D119110531A30B0F33EF49095809567
:102D6000709561957F4F8F4F9F4F1F910895BB279F
:102D70004A3031F4992322F4BDE2909581959F4F1A
:102D80000C94D816592F482F372F262F660F771FF0
:102D9000881F991F660F771F881F991F620F731F67
:102DA000841F951F660F771F881F991F0895BB27E3
:102DB000FB015527AA27880F991FAA1FA41710F0F7
:102DC000A41B83955051B9F7A05DAA3308F0A95D03
:102DD000A193009779F7B111B1931192CB010C94A3
:102DE000F116DC01FC01672F71917723E1F732972F
:102DF00004C07C916D9370836291AE17BF07C8F3D6
:102E000008950E94431708F481E00895E89409C0EA
:102E100097FB3EF490958095709561957F4F8F4F0D
:102E20009F4F9923A9F0F92F96E9BB279395F69523
:102E3000879577956795B795F111F8CFFAF4BB0FA1
:102E400011F460FF1BC06F5F7F4F8F4F9F4F16C005
:102E5000882311F096E911C0772321F09EE8872F8F
:102E6000762F05C0662371F096E8862F70E060E04B
:102E70002AF09A95660F771F881FDAF7880F9695C4
:102E8000879597F90895990F0008550FAA0BE0E868
:102E9000FEEF16161706E807F907C0F0121613061C
:102EA000E407F50798F0621B730B840B950B39F45C
:102EB0000A2661F0232B242B252B21F408950A26C2
:102EC00009F4A140A6958FEF811D811D08950E94F0
:102ED0007A170C94EB170E94DD1738F00E94E41764
:102EE00020F0952311F00C94D4170C94DA171124C8
:102EF0000C941F180E94FC1770F3959FC1F3950F57
:102F000050E0551F629FF001729FBB27F00DB11D6D
:102F1000639FAA27F00DB11DAA1F649F6627B00DFD
:102F2000A11D661F829F2227B00DA11D621F739FE6
:102F3000B00DA11D621F839FA00D611D221F749FF4
:102F40003327A00D611D231F849F600D211D822F3B
:102F5000762F6A2F11249F5750409AF0F1F0882362
:102F60004AF0EE0FFF1FBB1F661F771F881F91508F
:102F70005040A9F79E3F510580F00C94D4170C9453
:102F80001F185F3FE4F3983ED4F3869577956795D5
:102F9000B795F795E7959F5FC1F7FE2B880F911DB9
:102FA0009695879597F9089597F99F6780E870E05F
:102FB00060E008959FEF80EC089500240A941616AF
:102FC000170618060906089500240A941216130617
:102FD000140605060895092E0394000C11F48823A5
:102FE00052F0BB0F40F4BF2B11F460FF04C06F5FC1
:102FF0007F4F8F4F9F4F089557FD9058440F551F97
:1030000059F05F3F71F04795880F97FB991F61F06A
:103010009F3F79F087950895121613061406551FE1
:10302000F2CF4695F1DF08C0161617061806991F4D
:10303000F1CF86957105610508940895E894BB2742
:1030400066277727CB0197F908952F923F924F92E9
:103050005F926F927F928F929F92AF92BF92CF9228
:10306000DF92EF92FF920F931F93CF93DF93CDB731
:10307000DEB7CA1BDB0B0FB6F894DEBF0FBECDBFA9
:1030800009942A88398848885F846E847D848C847A
:103090009B84AA84B984C884DF80EE80FD800C8183
:1030A0001B81AA81B981CE0FD11D0FB6F894DEBF66
:1030B0000FBECDBFED0108955058BB27AA270E942F
:1030C00074180C94EB170E94DD1738F00E94E41777
:1030D00020F039F49F3F19F426F40C94DA170EF41B
:1030E000E095E7FB0C94D417E92F0E94FC1758F3E6
:1030F000BA17620773078407950720F079F4A6F5DD
:103100000C941E180EF4E0950B2EBA2FA02D0B0177
:10311000B90190010C01CA01A0011124FF27591B1C
:1031200099F0593F50F4503E68F11A16F040A22F22
:10313000232F342F4427585FF3CF46953795279593
:10314000A795F0405395C9F77EF41F16BA0B620B92
:10315000730B840BBAF09150A1F0FF0FBB1F661FD9
:10316000771F881FC2F70EC0BA0F621F731F841F1C
:1031700048F4879577956795B795F7959E3F08F042
:10318000B0CF9395880F08F09927EE0F9795879504
:1031900008950E94DD180C94EB170E94E41758F074
:1031A0000E94DD1740F029F45F3F29F00C94D417FA
:1031B00051110C941F180C94DA170E94FC1768F335
:1031C0009923B1F3552391F3951B550BBB27AA27E0
:1031D00062177307840738F09F5F5F4F220F331F1A
:1031E000441FAA1FA9F335D00E2E3AF0E0E832D0E2
:1031F00091505040E695001CCAF72BD0FE2F29D0E5
:10320000660F771F881FBB1F261737074807AB07B6
:10321000B0E809F0BB0B802DBF01FF2793585F4F2B
:103220003AF09E3F510578F00C94D4170C941F1877
:103230005F3FE4F3983ED4F3869577956795B7950D
:10324000F7959F5FC9F7880F911D9695879597F918
:103250000895E1E0660F771F881FBB1F6217730791
:103260008407BA0720F0621B730B840BBA0BEE1FA6
:1032700088F7E09508950E9442196894B1110C9462
:103280001F1808950E94041888F09F5798F0B92FCE
:103290009927B751B0F0E1F0660F771F881F991F8B
:1032A0001AF0BA95C9F714C0B13091F00E941E18F7
:1032B000B1E008950C941E18672F782F8827B85F07
:1032C00039F0B93FCCF3869577956795B395D9F7E3
:1032D0003EF490958095709561957F4F8F4F9F4FED
:1032E00008950E94431708F48FEF089519F416F417
:1032F0000C94DA170C94BC190E940418B8F39923A3
:10330000C9F3B6F39F57550B87FF0E94CA190024D3
:10331000A0E640EA900180585695979528F4805C85
:10332000660F771F881F20F026173707480730F4ED
:10333000621B730B840B202931294A2BA695179405
:103340000794202531254A2758F7660F771F881FD5
:1033500020F026173707480730F4620B730B840BF5
:10336000200D311D411DA09581F7B901842F915881
:10337000880F9695879508959F3F31F0915020F4DE
:10338000879577956795B795880F911D9695879541
:1033900097F9089591505040660F771F881FD2F714
:1033A0000895052E97FB1EF400940E94E81957FD1E
:1033B00007D00E94F61907FC03D04EF40C94E819CC
:1033C00050954095309521953F4F4F4F5F4F089551
:1033D00090958095709561957F4F8F4F9F4F089581
:1033E000EE0FFF1F0590F491E02D0994A1E21A2E33
:1033F000AA1BBB1BFD010DC0AA1FBB1FEE1FFF1F99
:10340000A217B307E407F50720F0A21BB30BE40BE8
:10341000F50B661F771F881F991F1A9469F760952F
:103420007095809590959B01AC01BD01CF010895E9
:103430000F931F93CF93DF938230910510F482E0B6
:1034400090E0E091AD04F091AE0430E020E0B0E017
:10345000A0E0309799F42115310509F44AC0281BE2
:10346000390B24303105D8F58A819B8161157105AE
:1034700089F1FB0193838283FE0111C04081518158
:103480000281138148175907E0F04817590799F44A
:10349000109761F012960C93129713961C93329624
:1034A000CF01DF91CF911F910F9108950093AD044B
:1034B0001093AE04F4CF2115310551F04217530794
:1034C00038F0A901DB019A01BD01DF01F801C1CF8C
:1034D000EF01F9CF9093AE048093AD04CDCFFE0100
:1034E000E20FF31F8193919322503109398328838E
:1034F000D7CF2091AB043091AC04232B41F4209121
:10350000090130910A013093AC042093AB0420915F
:103510000701309108012115310541F42DB73EB75F
:1035200040910B0150910C01241B350BE091AB0431
:10353000F091AC04E217F307A0F42E1B3F0B281701
:10354000390778F0AC014E5F5F4F2417350748F01C
:103550004E0F5F1F5093AC044093AB048193919343
:103560009FCFF0E0E0E09CCFCF93DF930097E9F0AE
:10357000FC01329713821282A091AD04B091AE0487
:10358000ED0130E020E01097A1F420813181820F1D
:10359000931F2091AB043091AC042817390709F030
:1035A00061C0F093AC04E093AB04DF91CF91089538
:1035B000EA01CE17DF07E8F54A815B819E014115DC
:1035C0005105B1F7E901FB83EA8349915991C40F91
:1035D000D51FEC17FD0761F4808191810296840F5D
:1035E000951FE90199838883828193819B838A83D4
:1035F000F0E0E0E012968D919C9113970097B9F559
:103600002D913C911197CD010296820F931F20912D
:10361000AB043091AC042817390739F6309751F5CF
:103620001092AE041092AD04B093AC04A093AB041E
:10363000BCCFD383C28340815181840F951FC817AB
:10364000D90761F44E5F5F4F88819981480F591FF8
:10365000518340838A819B81938382832115310525
:1036600009F0B0CFF093AE04E093AD049ECFFD011E
:10367000DC01C0CF13821282D7CFB0E0A0E0E3E438
:10368000FBE10C9427188C01009751F4CB010E94A8
:10369000181A8C01C801CDB7DEB7E0E10C944318CD
:1036A000FC01E60FF71F9C0122503109E217F307D6
:1036B00008F49DC0D901CD91DC911197C617D707A9
:1036C00098F0C530D10530F3CE01049786179707DF
:1036D00008F3C61BD70B2297C193D1936D937C93AC
:1036E000CF010E94B41AD6CF5B01AC1ABD0A4C01BF
:1036F0008C0E9D1EA091AD04B091AE04512C412CB6
:10370000F12CE12C109731F58091AB049091AC0431
:103710008815990509F05CC04616570608F058C090
:103720008091070190910801009741F48DB79EB7F1
:1037300040910B0150910C01841B950BE817F90780
:1037400008F055C0F093AC04E093AB04F901718329
:103750006083A0CF8D919C91119712966C901297D7
:1037600013967C901397A815B90559F56C0142E0A2
:10377000C40ED11CCA14DB0420F1AC014A195B0948
:10378000DA011296159780F062827382518340832A
:10379000D9016D937C93E114F10471F0D701139674
:1037A000FC93EE93129776CF22968C0F9D1FF90112
:1037B00091838083F301EFCFF093AE04E093AD04E7
:1037C00069CF4816590608F42C017D01D3019ACF20
:1037D000CB010E94181A7C01009749F0AE01B80194
:1037E0000E94FA1BC8010E94B41A870153CF10E04F
:1037F00000E050CFFB01DC0102C001900D9241506E
:103800005040D8F70895FB01DC018D91019080199B
:103810000110D9F3990B0895FB01DC0101900D9281
:103820000020E1F7089510E0C3E6D0E004C0FE01F7
:103830000E94F0192196C436D107C9F7F894FFCF3A
:10384000010190019001FF0000AF04800000000022
:1038500000A7047304AF09460BFB0608064606F2F0
:1038600005C0059F056B054A05F404C5040000006A
:10387000000604660393035304C403A203B6035073
:103880004E450041524D004245440053454E0032E2
:1038900035005B776169743A005B736F756E643AEB
:1038A00000736F756E643A6C6576656C2075705D3B
:1038B00000736F756E643A67616D65206F7665722F
:1038C0005D005B656E61626C652073746570706528
:1038D000723A006F6E3A4F4B5D006F66663A4F4B1F
:1038E0005D005B757344656C61793A005B783A4FB3
:1038F00055545F424F554E44533A005B783A005B53
:103900007A3A4F55545F424F554E44533A005B7AD2
:103910003A005B66696E64686F6D653A00583A45B7
:1039200052524F525D00583A4F4B5D005A3A455241
:10393000524F525D005A3A4F4B5D005B583A002C93
:10394000205A3A005B6973486F6D653A005B726597
:103950006C61793A005B72656C6179323A005B4860
:10396000426F3A413A003A423A303A4F4B5D005B7F
:1039700048426F3A4241445F4152475D005B4842D2
:10398000743A413A303A423A005B4842743A424112
:10399000445F4152475D00434F4D4D414E44204EE0
:1039A0004F54205245434F474E495A45440030003A
:00000001FF
