:100000000C9463000C948B000C948B000C948B006C
:100010000C948B000C948B000C948B000C948B0034
:100020000C948B000C948B000C948B000C948B0024
:100030000C948B000C948B000C948B000C948B0014
:100040000C945E0B0C948B000C94CE0B0C94A80BB0
:100050000C948B000C948B000C948B000C948B00F4
:100060000C948B000C948B000000000024002700EF
:100070002A0000000000250028002B0000000000DE
:1000800023002600290004040404040404040202DA
:100090000202020203030303030301020408102007
:1000A0004080010204081020010204081020000012
:1000B0000008000201000003040700000000000027
:1000C0000000000C640F11241FBECFEFD8E0DEBF8C
:1000D000CDBF24E0ACEAB2E001C01D92AA3BB2075A
:1000E000E1F712E0A0E0B1E0E0ECF9E202C0059037
:1000F0000D92AC3AB107D9F710E0C2E6D0E004C0E7
:100100002197FE010E94BC12C136D107C9F70E9497
:10011000320C0C94D3140C940000833081F028F43A
:10012000813099F08230A9F008958730A9F08830A5
:10013000C9F08430B1F4809180008F7D03C080913C
:1001400080008F7780938000089584B58F7784BD79
:10015000089584B58F7DFBCF8091B0008F77809319
:10016000B00008958091B0008F7DF9CFCF93DF93D9
:10017000282F30E0F901E255FF4F8491F901E6564E
:10018000FF4FD491F901EA57FF4FC491CC23A1F05E
:1001900081110E948D00EC2FF0E0EE0FFF1FE4585C
:1001A000FF4FA591B491EC91ED2381E090E009F42B
:1001B00080E0DF91CF91089580E090E0FACF1F9327
:1001C000CF93DF93282F30E0F901E255FF4F849160
:1001D000F901E656FF4FD491F901EA57FF4FC49158
:1001E000CC23A9F0162F81110E948D00EC2FF0E096
:1001F000EE0FFF1FEE58FF4FA591B4918FB7F89403
:10020000EC91111108C0D095DE23DC938FBFDF91F4
:10021000CF911F910895DE2BF8CFCF93DF9390E01D
:10022000FC01E656FF4F24918A579F4FFC018491B1
:100230008823D1F090E0880F991FFC01E859FF4F07
:10024000A591B491FC01EE58FF4FC591D491623055
:1002500071F49FB7F8943C91822F809583238C93FF
:10026000E8812E2B28839FBFDF91CF9108958FB710
:10027000F894EC912E2B2C938FBFF6CF1F93CF9336
:10028000DF93182FEB0161E00E940D01209739F4F4
:1002900060E0812FDF91CF911F910C94DF00CF3F61
:1002A000D10511F461E0F5CFE12FF0E0E255FF4F09
:1002B000E491E33031F140F4E130B1F0E230E1F0CB
:1002C000C038D1057CF7E4CFE73029F1E83059F1A7
:1002D000E430B1F780918000806280938000D093F9
:1002E0008B00C0938A0004C084B5806884BDC7BDFC
:1002F000DF91CF911F91089584B5806284BDC8BD00
:10030000F7CF80918000806880938000D09389002F
:10031000C0938800EDCF8091B00080688093B000DA
:10032000C093B300E5CF8091B00080628093B000AD
:10033000C093B400DDCF8230910538F0880F991F4B
:10034000880F991F05970197F1F708953FB7F89423
:1003500080910F0490911004A0911104B0911204A7
:1003600026B5A89B05C02F3F19F00196A11DB11D10
:100370003FBFBA2FA92F982F8827BC01CD01620F4C
:10038000711D811D911D42E0660F771F881F991F07
:100390004A95D1F708958F929F92AF92BF92CF92D4
:1003A000DF92EF92FF926B017C010E94A6014B014C
:1003B0005C01C114D104E104F104B9F00E94A6016A
:1003C000681979098A099B09683E7340810591057E
:1003D00080F321E0C21AD108E108F10888EE880E06
:1003E00083E0981EA11CB11CE4CFFF90EF90DF903A
:1003F000CF90BF90AF909F908F9008952FB7F894B3
:1004000060910B0470910C0480910D0490910E0486
:100410002FBF0895AF92BF92CF92DF92EF92FF92DB
:100420000F931F93CF93DF936C017B018B01040F1C
:10043000151FEB015E01AE18BF08C017D10759F0B8
:100440006991D601ED91FC910190F081E02DC601FA
:100450000995892B79F7C501DF91CF911F910F91F4
:10046000FF90EF90DF90CF90BF90AF900895FC0188
:10047000538D448D252F30E0842F90E0821B930B09
:10048000541710F0CF96089501970895FC01918DAF
:10049000828D981761F0A28DAE0FBF2FB11D5D96B2
:1004A0008C91928D9F5F9F73928F90E008958FEF54
:1004B0009FEF0895FC01918D828D981731F0828D08
:1004C000E80FF11D858D90E008958FEF9FEF08955F
:1004D000FC01918D228D892F90E0805C9F4F821BC3
:1004E00091098F739927089583E194E00E9468022F
:1004F00021E0892B09F420E0822F089580E090E02C
:10050000892B29F00E94740281110C940000089537
:10051000FC01A48DA80FB92FB11DA35ABF4F2C9178
:10052000848D90E001968F739927848FA689B7896F
:100530002C93A089B1898C91837080648C93938D66
:10054000848D981306C00288F389E02D80818F7D09
:1005500080830895EF92FF920F931F93CF93DF93C1
:10056000EC0181E0888F9B8D8C8D98131AC0E889EF
:10057000F989808185FF15C09FB7F894EE89FF89BE
:100580006083E889F98980818370806480839FBF5C
:1005900081E090E0DF91CF911F910F91FF90EF905C
:1005A0000895F62E0B8D10E00F5F1F4F0F7311276C
:1005B000E02E8C8D8E110CC00FB607FCFACFE889A7
:1005C000F989808185FFF5CFCE010E948802F1CFA5
:1005D000EB8DEC0FFD2FF11DE35AFF4FF0829FB71B
:1005E000F8940B8FEA89FB8980818062CFCFCF930B
:1005F000DF93EC01888D8823B9F0AA89BB89E8894B
:10060000F9898C9185FD03C0808186FD0DC00FB6F0
:1006100007FCF7CF8C9185FFF2CF808185FFEDCF6E
:10062000CE010E948802E9CFDF91CF910895CF9348
:10063000C82F0E94B600892B31F48C2F0E94B6007F
:1006400021E0892B09F020E0822FCF91089520919D
:10065000B4043091B504232B39F421E0FC018081EE
:10066000882361F020E00AC0BC018091B004909121
:10067000B1040E94C31421E0892BA1F7822F0895B1
:100680008F929F92AF92BF92CF92DF92EF92FF92A2
:100690000F931F93CF93DF938AE191E00E9427038A
:1006A000882321F08091AF028823F1F08EE191E060
:1006B0000E942703811118C00E94FE014B015C01BA
:1006C0008AE191E00E942703811150C05D98C8E241
:1006D000D0E04FC08AE191E00E942703882339F0DF
:1006E0001092B1021092B00290E080E06EC05D9A6C
:1006F000C0E5D0E05E9A80910001909101010E94D6
:100700009B015E9880910001909101010E949B01E4
:10071000219781F70E94FE016B017C015D980BE837
:1007200011E05E9AC8010197F1F75E98C801019740
:10073000F1F783E00E94B600892B91F0C0368AEE73
:10074000D80709F43CC00E94FE0121966C197D096E
:100750008E099F09613777418105910510F32FC0FC
:1007600083E00E941703882349F3BACF5D9ACCE354
:10077000D0E081ECC82E84EDD82EEE24E394F12C49
:1007800083E00E94B600019709F0A4CF5E9ACE01E3
:100790000E949B015E98CE010E949B0121E0C21A3B
:1007A000D108E108F10859F00E94FE0168197909A1
:1007B0008A099B09613777418105910508F361E05A
:1007C00089E00E94DF008FEF9FEFDF91CF911F91B3
:1007D0000F91FF90EF90DF90CF90BF90AF909F90E0
:1007E0008F9008958F929F92AF92BF92CF92DF9297
:1007F000EF92FF920F931F93CF93DF938AE191E0E3
:100800000E942703882339F08091AE0210E000E0B7
:10081000882309F4A0C00E94FE016B017C018AE1DB
:1008200091E00E942703C8E2D0E0882311F0C4E6DB
:10083000D0E08EE191E00E942703882369F15F9A5E
:1008400021E8822E28E3922EAA24A394B12C82E0E0
:100850000E94B600019711F5289ACE010E949B01D3
:100860002898CE010E949B0121E0821A9108A108DC
:10087000B10859F00E94FE016C197D098E099F098B
:10088000613777418105910510F361E089E00E94AD
:10089000DF000FEF1FEF5FC05F98D2CFC0E5D0E061
:1008A0008EE191E00E942703811148C05F9A289A47
:1008B00080910001909101010E949B0128988091F4
:1008C0000001909101010E949B01219749F70E942C
:1008D000FE014B015C018EE191E00E942703882319
:1008E00079F15F9A8AE191E00E94270394E6E92E6C
:1008F000F12C882319F086E9E82EF12C289AC701FB
:100900000E949B012898C7010E949B0182E00E94DF
:10091000B6008C01892BB1F0C03385E7D80709F404
:10092000B4CF0E94FE012196681979098A099B09B2
:10093000613777418105910508F3A7CF5F98B7CF5D
:100940005F98D0CF82E00E941703882329F310928A
:10095000B3021092B202C801DF91CF911F910F91A3
:10096000FF90EF90DF90CF90BF90AF909F908F90CF
:10097000089560E089E00E94DF008EE191E00E942E
:100980002703882381F060E083E00E94DF0070E0AD
:1009900060E085E00E943E0170E060E086E00E9439
:1009A0003E010C94F2030E944003FBCF0F931F9370
:1009B000CF93DF93EC0188819981009759F02A81C8
:1009C0003B812617370730F081E0DF91CF911F91EF
:1009D0000F9108958B016F5F7F4F0E94E71300977F
:1009E00059F0998388831B830A832C813D81232BB3
:1009F00059F7FC011082E8CF80E0E7CFEF92FF9239
:100A00000F931F93CF93DF936115710541F480E03D
:100A1000DF91CF911F910F91FF90EF9008954115B5
:100A20005105B1F07B01EC010C811D81040F151FF4
:100A3000B8010E94D604882351F3288139818C8122
:100A40009D81B701820F931F0E94CC141D830C83DC
:100A500081E0DECFCF93DF93EC018881998100970D
:100A600011F00E945E13198218821D821C821B8263
:100A70001A82DF91CF910895CF93DF93EC01FB01B0
:100A800001900020E9F73197AF01461B570B0E94F8
:100A9000FE04811103C0CE010E942A05CE01DF9120
:100AA000CF910895CF93DF93EC01FB0144815581F1
:100AB000608171810E94FE04811103C0CE010E94F9
:100AC0002A05CE01DF91CF910895EF92FF920F9307
:100AD0001F93CF93DF93EC017B018A01BA010E943F
:100AE000D60481110BC0CE010E942A05CE01DF91F0
:100AF000CF911F910F91FF90EF9008951D830C836C
:100B0000B701888199810E94CC14F0CFFB0101903C
:100B10000020E9F73197AF01461B570B0C94650590
:100B20000F931F93CF93DF93CDB7DEB762970FB6C6
:100B3000F894DEBF0FBECDBF8C01CB01F80111824E
:100B4000108213821282158214824AE0BE016F5F06
:100B50007F4F0E94860FBE016F5F7F4FC8010E94CA
:100B6000860562960FB6F894DEBF0FBECDBFDF914B
:100B7000CF911F910F910895CF93DF93EC01FB016B
:100B80008617970749F0608171816115710541F001
:100B9000448155810E946505CE01DF91CF91089572
:100BA0000E942A05F9CFFC01118210821382128261
:100BB00015821482FB0101900020E9F73197AF0103
:100BC000461B570B0C946505FC01808191810097B1
:100BD00011F00C945E1308950F931F93CF93DF933E
:100BE000CDB7DEB729970FB6F894DEBF0FBECDBFE5
:100BF0008B01682F83E194E00E94AA02F8018481AE
:100C000019866AE00E94B012805D8F83905D98879C
:100C1000BE01695F7F4FCE0101960E94D3054D81D1
:100C20005E8169817A8183E194E00E940A02CE01AB
:100C300001960E94E405F80144815581608171812B
:100C400083E194E00E940A026AE083E194E00E945A
:100C5000AA0229960FB6F894DEBF0FBECDBFDF9172
:100C6000CF911F910F9108952F923F924F925F92D3
:100C70006F927F928F929F92AF92BF92CF92DF92AC
:100C8000EF92FF920F931F93CF93DF93CDB7DEB711
:100C90002F970FB6F894DEBF0FBECDBF982F862FCB
:100CA0004B871901ED82FE82692F0E94DF0061E00F
:100CB00070E080E090E00E94CB01B401990C880BB9
:100CC000990B0E94CA0F69837A838B839C83B1013D
:100CD000032C000C880B990B0E94CA0F29813A81C2
:100CE0004B815C810E94A8116C877D878E879F87CE
:100CF000A6019501C601B5010E943C116F8378875A
:100D000089879A872D813E81A8016D817E81C801E6
:100D10000E9429102F81388549855A850E94A81183
:100D20002B013C01AC019B010E943C112C853D85AF
:100D30004E855F850E94501218160CF073C0A601F4
:100D400095016C857D858E859F850E9429100E9466
:100D50005B126D837E838C01310137FE03C08FEF00
:100D6000681A780A75946794F12CE12C21014618D1
:100D70005708E214F3040CF070C0E614F7040CF00A
:100D80005DC0B7010F2C000C880B990B0E94CA0F95
:100D900029813A814B815C810E94A8112F8138857D
:100DA00049855A850E9429100E945B125B016C01E3
:100DB00020E030E040E85FE3B501C6010E94C30FC8
:100DC00087FF06C0A12CB12C90E8C92E2FE3D22EAC
:100DD00061E08B850E94DF009501A60169817A811F
:100DE0008B819C810E9429109B01AC0160E074E220
:100DF00084E799E40E94A8110E9421124B015C0132
:100E0000B694A79497948794C4010E949B0160E0D4
:100E10008B850E94DF00C4010E949B018FEFE81ABE
:100E2000F80AA7CFA301920169817A818B819C8105
:100E30000E9429100E941A123B0196CFAD80BE80FD
:100E40006801E414F5040CF4B3CFB1016E197F0905
:100E5000072E000C880B990B99CF2F960FB6F8949C
:100E6000DEBF0FBECDBFDF91CF911F910F91FF90DD
:100E7000EF90DF90CF90BF90AF909F908F907F903A
:100E80006F905F904F903F902F9008958F929F9218
:100E9000AF92BF92CF92DF92EF92FF920F931F9388
:100EA000CF93DF938C01EB016733714014F0C6E3FD
:100EB000D1E0D7FF02C0D0E0C0E0BE01601B710BE3
:100EC00077FF03C0719561957109072E000C880B9F
:100ED000990B0E94CA0F28EF33E545E551E40E94C3
:100EE00029100E941A1251E00C171D070CF450E053
:100EF0008DE0882E912CA12C90ECB92E9FE0C92E6C
:100F000096E4D92EE12CF12C01E614E49B0148E093
:100F100067E0852F0E943406CE01DF91CF911F91AB
:100F20000F91FF90EF90DF90CF90BF90AF909F9088
:100F30008F9008958F929F92AF92BF92CF92DF923F
:100F4000EF92FF920F931F93CF93DF938C01EB01EE
:100F50008AE191E00E94270368E270E0882311F0A3
:100F600068EC70E0AE01401B510B57FF03C0519578
:100F70004195510981112AC081E00C171D070CF021
:100F800080E0E12CF12C0FEA13E4A12CE0ECBE2E62
:100F9000EFE0CE2EE6E4DE2E649F9001659F300DDB
:100FA000749F300D11244B0146E065E00E94340629
:100FB000CE01DF91CF911F910F91FF90EF90DF90C5
:100FC000CF90BF90AF909F908F90089581E00C17C5
:100FD0001D070CF480E0E12CF12C00EA12E4A12CB6
:100FE000B12C28E4C22E24E4D22ED6CF8F929F9229
:100FF000AF92BF92CF92DF92EF92FF920F931F9327
:10100000CF93DF93FC01EB01AB01481B590B57FF5A
:1010100003C051954195510988E2849F9001859FB5
:10102000300D112481E0EC17FD070CF080E098E210
:10103000892E912CA12C40ECB42E4FE0C42E46E416
:10104000D42EE12CF12C0FEA13E448E067E00E9473
:101050003406CE01DF91CF911F910F91FF90EF9059
:10106000DF90CF90BF90AF909F908F900895DF92C8
:10107000EF92FF920F931F93CF93DF93CDB7DEB71D
:101080006E970FB6F894DEBF0FBECDBF7C01D62E93
:101090008A0163E972E00E94D305EFEBED0DEA33BC
:1010A00008F06EC00E2E000CFF0BE75AF74F0C94A1
:1010B000BC12C30AD20AE10AF00AC008C008C0087C
:1010C000FF0AC008C008C008C008C008C008C0089F
:1010D000C008C008C008C008C008C008C008C008D0
:1010E000C008C008C008C008C008C008C008C008C0
:1010F000C008C008DF08C008BB08CF08C008C00887
:10110000C008230AC008C008C008B909C008910A6D
:10111000D509C008C008C008AA0A5F0A780A93085F
:10112000F5086A099109B801012E000C880B990B8A
:101130000E94CB01B801CE0107960E94900562E2A1
:1011400071E0CE0101960E94D305BE01695F7F4F19
:10115000CE0101960E94520564E371E00E943C05B5
:10116000BC01C7010E94BC05CE0101960E94E405A6
:10117000CE01079686C069E271E0C7010E9486052C
:10118000C7016E960FB6F894DEBF0FBECDBFDF91DC
:10119000CF911F910F91FF90EF90DF90089561E044
:1011A0000115110509F060E089E00E94DF00B80137
:1011B000CE0107960E94900569E371E0C2CFB801A5
:1011C000093E134014F068EE73E01616170614F08B
:1011D00061E070E07093010160930001CE01079619
:1011E0000E94900562E471E0ACCF8EE191E00E9434
:1011F0002703882361F01093B3020093B202B80171
:10120000CE0107960E9490056CE471E09ACF8AE1C6
:1012100091E00E942703811137C08CED90E0B80166
:1012200080179107A0F5CE0143960E94900560E5D6
:1012300071E0CE010D960E94D305BE016D5E7F4F19
:10124000CE010D960E94520565EF71E00E943C05AB
:1012500000E011E0BC01C7010E94BC05002341F081
:10126000CE0101960E94E405CE0107960E94E40596
:10127000112309F485CFCE010D960E94E405CE011D
:1012800043960E94E4057CCF8EE591E0C8CF809123
:10129000B2029091B3020E94F6079093B30280933A
:1012A000B202B801CE0107960E9490056CE471E08D
:1012B000CE0101960E94D305BE01695F7F4FCE012A
:1012C00001960E94520564E371E00E943C0501E032
:1012D00010E0C0CF8EE191E00E9427038823F1F057
:1012E000B801073381E0180738F0CE0143960E9419
:1012F000900568E571E09DCF809187039091880308
:101300000E9446079093880380938703B801CE011B
:1013100007960E94900560E671E0CACF64E671E02E
:101320002CCF8AE191E00E94270381110DC08EEB42
:1013300090E0B8018017910750F4CE0143960E94C7
:10134000900560E771E075CF80E590E0F2CF809185
:10135000B0029091B1020E949A079093B1028093DB
:10136000B002B801CE0107960E94900568E771E0CF
:101370009FCFC8010197029768F40E94F2030230E0
:10138000110571F0B801CE0107960E9490056CE737
:1013900071E0D7CE03301105A9F70E944003F2CFC8
:1013A0001092880310928703EDCF6091B002709184
:1013B000B102CE0143960E9490056091870370911F
:1013C0008803CE010D960E9490056091B202709143
:1013D000B302CE0107960E94900567E871E0CE0146
:1013E00001960E94D305BE01695F7F4FCE01019631
:1013F0000E9452056BE871E00E943C05BE01635FEC
:101400007F4F0E9452056FE871E00E943C05BE01CB
:101410006D5E7F4F0E94520565EF71E00E943C05B2
:10142000BC01C7010E94BC05CE0101960E94E405E3
:10143000CE0107960E94E405CE010D960E94E405B8
:10144000CE0143961ECF0130110581F482E00E9447
:10145000B60061E070E0892B11F070E060E0CE0131
:1014600007960E94900563E971E06BCE023011058A
:1014700081F482E00E94B60061E070E0892B11F0F7
:1014800070E060E0CE0107960E9490056EE971E081
:1014900058CE64EB71E00330110509F06ECE83E0A5
:1014A0000E94B60061E070E0892B11F070E060E00E
:1014B000CE0107960E94900569EA71E042CE8EE166
:1014C00091E00E942703882381F061E00115110556
:1014D00009F460E083E00E94DF00B801CE010796C6
:1014E0000E94900565EC71E02CCE6DEC71E045CE6C
:1014F0008EE191E00E942703882381F061E00115CD
:10150000110509F460E08FE00E94DF00B801CE0110
:1015100007960E9490056DED71E013CE66EE71E0C6
:101520002CCE8EE191E00E942703882381F00F3FAB
:10153000110509F060F4B80185E00E943E01B80190
:10154000CE0107960E94900567EF71E0FACD6DEF2E
:1015500071E013CE8EE191E00E942703882321F0F1
:101560000F3F110521F018F06BE072E006CEB801D4
:1015700086E00E943E01B801CE0107960E949005C8
:1015800069E172E0DECD81E00130110509F080E013
:101590008093AE02B801CE0107960E9490056FE1DC
:1015A00072E0CFCD81E00130110509F080E0809339
:1015B000AF02B801CE0107960E94900568E272E082
:1015C000C0CD81E00130110509F080E08093AD02CB
:1015D000B801CE0107960E94900565E372E0B1CD97
:1015E00081E00130110509F080E08093AC02B80180
:1015F000CE0107960E94900566E472E0A2CD60914C
:10160000AC0270E0CE0149960E9490056091AD0257
:1016100070E0CE0143960E9490056091AF0270E0A9
:10162000CE010D960E9490056091AE0270E0CE0151
:1016300007960E9490056FE172E0CE0101960E942C
:10164000D305BE01695F7F4FCE0101960E9452050E
:101650006FE472E00E943C05BE01635F7F4F0E9411
:1016600052056DE572E00E943C05BE016D5E7F4F44
:101670000E9452056FE672E00E943C05BE01675E63
:101680007F4F0E94520565EF71E00E943C05BC014E
:10169000C7010E94BC05CE0101960E94E405CE015F
:1016A00007960E94E405CE010D960E94E405CE0146
:1016B00043960E94E405CE014996E3CD1F920F9216
:1016C0000FB60F9211242F933F938F939F93AF9355
:1016D000BF9380910B0490910C04A0910D04B091E4
:1016E0000E0430910A0423E0230F2D3758F501969C
:1016F000A11DB11D20930A0480930B0490930C0448
:10170000A0930D04B0930E0480910F0490911004E7
:10171000A0911104B09112040196A11DB11D8093F6
:101720000F0490931004A0931104B0931204BF917E
:10173000AF919F918F913F912F910F900FBE0F907E
:101740001F90189526E8230F0296A11DB11DD2CF38
:101750001F920F920FB60F9211242F933F934F9326
:101760005F936F937F938F939F93AF93BF93EF9309
:10177000FF9383E194E00E948802FF91EF91BF9173
:10178000AF919F918F917F916F915F914F913F9119
:101790002F910F900FBE0F901F9018951F920F92D0
:1017A0000FB60F9211242F938F939F93EF93FF9374
:1017B000E0912304F09124048081E0912904F091C8
:1017C0002A0482FD1BC0908180912C048F5F8F734F
:1017D00020912D04821741F0E0912C04F0E0ED5EA1
:1017E000FB4F958F80932C04FF91EF919F918F91E8
:1017F0002F910F900FBE0F901F9018958081F4CFFE
:10180000E3E1F4E01382128288EE93E0A0E0B0E01E
:1018100084839583A683B7838CE091E09183808352
:1018200085EC90E09587848784EC90E097878687A5
:1018300080EC90E0918B808B81EC90E0938B828B9D
:1018400082EC90E0958B848B86EC90E0978B868B76
:10185000118E128E138E148E63E972E080EB94E089
:101860000C94D305CF93DF93CDB7DEB72C970FB68B
:10187000F894DEBF0FBECDBF789484B5826084BD7E
:1018800084B5816084BD85B5826085BD85B5816084
:1018900085BD80916E00816080936E001092810002
:1018A00080918100826080938100809181008160BD
:1018B000809381008091800081608093800080917E
:1018C000B10084608093B1008091B000816080930A
:1018D000B00080917A00846080937A0080917A00D1
:1018E000826080937A0080917A00816080937A0090
:1018F00080917A00806880937A001092C100E09114
:101900002304F091240482E08083E0911F04F0918D
:1019100020041082E0912104F091220480E1808370
:1019200010922B04E0912704F091280486E0808334
:10193000E0912504F0912604808180618083E0910C
:101940002504F0912604808188608083E09125043D
:10195000F0912604808180688083E0912504F091D5
:10196000260480818F7D808386E480937C00809133
:101970007A00806480937A0080917A0086FDFCCFA3
:101980006091780070917900072E000C880B990BFC
:101990000E94CA0F2AE038E240EA5BE30E94291065
:1019A0006B017C0124EA30E74DE75FE30E94C30F3F
:1019B0006DE872E01816D4F422E538EB4EEF5FE3E1
:1019C000C701B6010E94C30F6EE171E0181674F4EE
:1019D00029E23CE54FE350E4C701B6010E94C30F82
:1019E00069E872E0181614F46AE171E080EB94E0A3
:1019F0000E94860561E089E00E940D0161E089E0B6
:101A00000E94DF0061E088E00E940D0161E087E054
:101A10000E940D0162E082E00E940D018EE191E0E2
:101A20000E94270381110CC061E086E00E940D0135
:101A300061E085E00E940D0162E083E00E940D01FB
:101A40008EE191E00E942703882381F061E083E02A
:101A50000E940D0161E08FE00E940D0161E085E0D0
:101A60000E940D0161E086E00E940D0161E08DE0C1
:101A70000E940D0161E08DE00E94DF0083E194E0AF
:101A80000E946802892B09F412C283E194E00E944B
:101A90004602E09109048A3019F08D3009F0FBC14B
:101AA000EE2361F3F0E0E757FC4F108210918903B9
:101AB0001F3341F460EB74E081E30E94EC05109267
:101AC0000904DCCF61E972E0163709F473C01D36F2
:101AD000C1F58AE893E00E94680F7C0101970297A4
:101AE000E0F40E94F2038C0182E0E816F104F9F0C0
:101AF0000115110519F169E772E0CE0101960E9406
:101B0000D30580E3012B09F481E3BE016F5F7F4FB2
:101B10000E94EC05CE01019696C110E000E093E032
:101B2000E916F10459F40E9440038C01E1CF01153C
:101B3000110509F7109288031092870364E872E098
:101B4000DCCF133209F052C060E089E00E94DF0070
:101B50000E9440030E94F2031092880310928703B0
:101B600089E892E00E942703882369F16EE670E01D
:101B70008091B2029091B3020E94F6079093B30253
:101B80008093B2026FE070E08091B0029091B10258
:101B90000E949A079093B1028093B00270E060E0D7
:101BA00090E080E00E94460790938803809387032B
:101BB00064E872E0CE0101960E94D305BE016F5F1A
:101BC0007F4F81E3A5CF8AE191E00E94270388231C
:101BD00079F36EE170E08091B0029091B1020E94C1
:101BE0009A079093B1028093B002E2CF1D3319F4AB
:101BF0000E94B904DDCF1034D9F3113209F089C045
:101C00001092860364EBC62E62E0D62E70E4A72EF7
:101C100073E0B72EF12CAAE8B3E08C91882319F079
:101C2000E6E4FE122DC0F092860363E972E0CE0175
:101C300007960E94D30510E080918603181708F0DC
:101C4000FAC0812F90E0FC01EE0FFF1FEC54FD4F16
:101C500040815181805C9C4FFC016081CE010196E6
:101C60000E9437084D815E8169817A81CE01079695
:101C70000E94FE04CE0101960E94E4051F5FDCCFA6
:101C80008D01ED90F0E2EF16D9F38CE7E816C1F381
:101C90008E2D0E2C000C990B0E94A714892B19F283
:101CA000F501E1925F01F80181818D3201F10F5F51
:101CB0001F4FE12CF80120E030E0A901DF01019184
:101CC000002E000C110B005311090A301105A0F46D
:101CD000AAE0B0E00E94EA10012E000C220B330BA8
:101CE000A9019801260F371F481F591FE7CF0E5F24
:101CF0001F4FEE24E394DECFC901EE2021F08827A8
:101D00009927821B930BF601819391936F01F394B2
:101D100084CF6CE770E089E893E00E94B814892BC7
:101D200009F494C01092860334EBA32E32E0B32E54
:101D300040E4C42E43E0D42EF12C09E813E0F8016E
:101D4000E080EE2019F0F6E4FF122DC0F092860339
:101D500063E972E0CE0107960E94D30510E08091FE
:101D60008603181708F067C0812F90E0FC01EE0F82
:101D7000FF1FEC54FD4F40815181805C9C4FFC0162
:101D80006081CE0101960E9437084D815E81698194
:101D90007A81CE0107960E94FE04CE0101960E9430
:101DA000E4051F5FDCCF8E2D0E2C000C990B0E94DA
:101DB000A714892B59F2F601E1926F01F801818194
:101DC0008D3211F10F5F1F4FE12C480120E030E010
:101DD000A9018401F4018081FFEF8F1A9F0AE82F87
:101DE000082E000CFF0BF097EA30F10590F0B901D6
:101DF000E1101CC0F501619371935F018C3711F400
:101E00000F5F1F4FF3949BCF0E5F1F4FEE24E394A1
:101E1000DCCFAAE0B0E00E94EA109F01FF0F440B64
:101E2000550B260F371F481F591FD3CF662777271B
:101E3000621B730BDFCFBE01695F7F4F81E30E949E
:101E4000EC05CE0107960E94E40539CE812F012EC4
:101E5000000C990B0E94A714892B91F080918A03A2
:101E6000882359F08AE893E00E94680FAC01612F43
:101E7000CE0101960E943708A1CE90E080E0F6CF17
:101E800064E972E0CE0101960E94D305BE016F5F46
:101E90007F4F80E33DCEEF3708F0F0CD91E09E0F0D
:101EA00090930904F0E0E757FC4F8083E7CD80E092
:101EB00090E0892B09F4E2CD0E947402882309F492
:101EC000DDCD0E940000DACD80EB94E00C94E405B7
:101ED000FC0188279927E89421912032E9F32930E1
:101EE00010F02E30C8F32B3241F02D3239F46894C3
:101EF00004C00E94910F820F911D219120532A301E
:101F0000C0F31EF4909581959F4F0895BB274A30EA
:101F100031F4992322F4BDE2909581959F4F0C9462
:101F20009A0F7AE0979F902D879F802D910D112415
:101F30000895BB27FB015527AA27880F991FAA1FC1
:101F4000A41710F0A41B83955051B9F7A05DAA33D4
:101F500008F0A95DA193009779F7B111B19311929F
:101F6000CB010C94B30FDC01FC01672F7191772337
:101F7000E1F7329704C07C916D9370836291AE1744
:101F8000BF07C8F308950E94051008F481E0089582
:101F9000E89409C097FB3EF4909580957095619503
:101FA0007F4F8F4F9F4F9923A9F0F92F96E9BB27B9
:101FB0009395F695879577956795B795F111F8CF35
:101FC000FAF4BB0F11F460FF1BC06F5F7F4F8F4FA0
:101FD0009F4F16C0882311F096E911C0772321F096
:101FE0009EE8872F762F05C0662371F096E8862F2E
:101FF00070E060E02AF09A95660F771F881FDAF785
:10200000880F9695879597F90895990F0008550FB1
:10201000AA0BE0E8FEEF16161706E807F907C0F06E
:1020200012161306E407F50798F0621B730B840B76
:10203000950B39F40A2661F0232B242B252B21F450
:1020400008950A2609F4A140A6958FEF811D811DF0
:1020500008950E943C100C94B0100E94A21038F019
:102060000E94A91020F0952311F00C9499100C9463
:102070009F1011240C94E4100E94C11070F3959FDE
:10208000C1F3950F50E0551F629FF001729FBB276F
:10209000F00DB11D639FAA27F00DB11DAA1F649F0B
:1020A0006627B00DA11D661F829F2227B00DA11DBE
:1020B000621F739FB00DA11D621F839FA00D611D44
:1020C000221F749F3327A00D611D231F849F600D65
:1020D000211D822F762F6A2F11249F5750409AF08E
:1020E000F1F088234AF0EE0FFF1FBB1F661F771F1A
:1020F000881F91505040A9F79E3F510580F00C94E5
:1021000099100C94E4105F3FE4F3983ED4F3869565
:1021100077956795B795F795E7959F5FC1F7FE2B84
:10212000880F911D9695879597F908959927882787
:10213000089597F99F6780E870E060E008959FEF49
:1021400080EC089500240A9416161706180609064E
:10215000089500240A94121613061406050608951D
:10216000092E0394000C11F4882352F0BB0F40F4A5
:10217000BF2B11F460FF04C06F5F7F4F8F4F9F4FE5
:10218000089557FD9058440F551F59F05F3F71F067
:102190004795880F97FB991F61F09F3F79F08795CE
:1021A0000895121613061406551FF2CF4695F1DF57
:1021B00008C0161617061806991FF1CF86957105E7
:1021C000610508940895E894BB2766277727CB011B
:1021D00097F908950E942C11A59F900DB49F900D22
:1021E000A49F800D911D112408952F923F924F922C
:1021F0005F926F927F928F929F92AF92BF92CF9297
:10220000DF92EF92FF920F931F93CF93DF93CDB79F
:10221000DEB7CA1BDB0B0FB6F894DEBF0FBECDBF17
:1022200009942A88398848885F846E847D848C84E8
:102230009B84AA84B984C884DF80EE80FD800C81F1
:102240001B81AA81B981CE0FD11D0FB6F894DEBFD4
:102250000FBECDBFED010895A29FB001B39FC00195
:10226000A39F700D811D1124911DB29F700D811DC2
:102270001124911D08955058BB27AA270E9453117D
:102280000C94B0100E94A21038F00E94A91020F007
:1022900039F49F3F19F426F40C949F100EF4E09546
:1022A000E7FB0C949910E92F0E94C11058F3BA175C
:1022B000620773078407950720F079F4A6F50C945C
:1022C000E3100EF4E0950B2EBA2FA02D0B01B901EF
:1022D00090010C01CA01A0011124FF27591B99F09C
:1022E000593F50F4503E68F11A16F040A22F232FA8
:1022F000342F4427585FF3CF469537952795A795F8
:10230000F0405395C9F77EF41F16BA0B620B730B9E
:10231000840BBAF09150A1F0FF0FBB1F661F771F0F
:10232000881FC2F70EC0BA0F621F731F841F48F4C4
:10233000879577956795B795F7959E3F08F0B0CF4D
:102340009395880F08F09927EE0F97958795089534
:102350000E94BC110C94B0100E94A91058F00E9469
:10236000A21040F029F45F3F29F00C94991051110C
:102370000C94E4100C949F100E94C11068F39923F0
:10238000B1F3552391F3951B550BBB27AA27621771
:102390007307840738F09F5F5F4F220F331F441F7E
:1023A000AA1FA9F335D00E2E3AF0E0E832D09150B2
:1023B0005040E695001CCAF72BD0FE2F29D0660F9F
:1023C000771F881FBB1F261737074807AB07B0E8E2
:1023D00009F0BB0B802DBF01FF2793585F4F3AF0E8
:1023E0009E3F510578F00C9499100C94E4105F3FD7
:1023F000E4F3983ED4F3869577956795B795F7956E
:102400009F5FC9F7880F911D9695879597F9089555
:10241000E1E0660F771F881FBB1F621773078407F1
:10242000BA0720F0621B730B840BBA0BEE1F88F700
:10243000E09508950E9421126894B1110C94E41063
:1024400008950E94C91088F09F5798F0B92F9927D6
:10245000B751B0F0E1F0660F771F881F991F1AF08F
:10246000BA95C9F714C0B13091F00E94E310B1E001
:1024700008950C94E310672F782F8827B85F39F000
:10248000B93FCCF3869577956795B395D9F73EF428
:1024900090958095709561957F4F8F4F9F4F0895D0
:1024A0000E94051008F48FEF089519F416F40C94A7
:1024B0009F100C949B120E94C910B8F39923C9F382
:1024C000B6F39F57550B87FF0E94A9120024A0E680
:1024D00040EA900180585695979528F4805C660FE5
:1024E000771F881F20F026173707480730F4621B34
:1024F000730B840B202931294A2BA6951794079436
:10250000202531254A2758F7660F771F881F20F0AE
:1025100026173707480730F4620B730B840B200D26
:10252000311D411DA09581F7B901842F9158880F65
:102530009695879508959F3F31F0915020F48795A7
:1025400077956795B795880F911D9695879597F91B
:10255000089591505040660F771F881FD2F7089555
:10256000991B79E004C0991F961708F0961B881FE5
:102570007A95C9F780950895EE0FFF1F0590F491A5
:10258000E02D09940F931F93CF93DF938230910531
:1025900010F482E090E0E091B804F091B90430E0EA
:1025A00020E0B0E0A0E0309799F42115310509F45E
:1025B0004AC0281B390B24303105D8F58A819B810C
:1025C0006115710589F1FB0193838283FE0111C0BE
:1025D000408151810281138148175907E0F0481763
:1025E000590799F4109761F012960C93129713966D
:1025F0001C933296CF01DF91CF911F910F910895D7
:102600000093B8041093B904F4CF2115310551F0AB
:102610004217530738F0A901DB019A01BD01DF0120
:10262000F801C1CFEF01F9CF9093B9048093B804BA
:10263000CDCFFE01E20FF31F819391932250310918
:1026400039832883D7CF2091B6043091B704232B48
:1026500041F420910401309105013093B704209397
:10266000B60420910201309103012115310541F496
:102670002DB73EB74091060150910701241B350B41
:10268000E091B604F091B704E217F307A0F42E1B13
:102690003F0B2817390778F0AC014E5F5F4F2417C6
:1026A000350748F04E0F5F1F5093B7044093B604B0
:1026B000819391939FCFF0E0E0E09CCFCF93DF93A5
:1026C0000097E9F0FC01329713821282A091B804BE
:1026D000B091B904ED0130E020E01097A1F4208121
:1026E0003181820F931F2091B6043091B7042817CF
:1026F000390709F061C0F093B704E093B604DF91A5
:10270000CF910895EA01CE17DF07E8F54A815B8192
:102710009E0141155105B1F7E901FB83EA83499117
:102720005991C40FD51FEC17FD0761F48081918189
:102730000296840F951FE901998388838281938192
:102740009B838A83F0E0E0E012968D919C91139731
:102750000097B9F52D913C911197CD010296820F0A
:10276000931F2091B6043091B7042817390739F622
:10277000309751F51092B9041092B804B093B70491
:10278000A093B604BCCFD383C28340815181840F10
:10279000951FC817D90761F44E5F5F4F88819981F3
:1027A000480F591F518340838A819B819383828381
:1027B0002115310509F0B0CFF093B904E093B804C6
:1027C0009ECFFD01DC01C0CF13821282D7CFB0E0D3
:1027D000A0E0EDEEF3E10C94F7108C01009751F4BA
:1027E000CB010E94C2128C01C801CDB7DEB7E0E177
:1027F0000C941311FC01E60FF71F9C0122503109C4
:10280000E217F30708F49DC0D901CD91DC9111972F
:10281000C617D70798F0C530D10530F3CE0104971D
:102820008617970708F3C61BD70B2297C193D1933E
:102830006D937C93CF010E945E13D6CF5B01AC1ADF
:10284000BD0A4C018C0E9D1EA091B804B091B90434
:10285000512C412CF12CE12C109731F58091B604CC
:102860009091B7048815990509F05CC04616570683
:1028700008F058C08091020190910301009741F443
:102880008DB79EB74091060150910701841B950BAF
:10289000E817F90708F055C0F093B704E093B604C1
:1028A000F90171836083A0CF8D919C91119712964D
:1028B0006C90129713967C901397A815B90559F54B
:1028C0006C0142E0C40ED11CCA14DB0420F1AC013F
:1028D0004A195B09DA011296159780F062827382B9
:1028E00051834083D9016D937C93E114F10471F01D
:1028F000D7011396FC93EE93129776CF22968C0F06
:102900009D1FF90191838083F301EFCFF093B90408
:10291000E093B80469CF4816590608F42C017D01EC
:10292000D3019ACFCB010E94C2127C01009749F0DB
:10293000AE01B8010E94AF14C8010E945E13870166
:1029400053CF10E000E050CF85FD0C9496108062CC
:1029500091110C94961081568A51D8F70895FB0175
:10296000DC0102C001900D9241505040D8F708950B
:10297000FC018191861721F08823D9F799270895C2
:102980003197CF010895FB01DC018D9101908019F1
:102990000110D9F3990B0895FB01DC0101900D9210
:1029A0000020E1F7089510E0C2E6D0E004C0FE0187
:1029B0000E94BC122196C336D107C9F7F894FFCF05
:1029C00032000000BA04800000000000AA020A02DF
:1029D0003702F702680246025A0242454400504E4E
:1029E00045005B776169743A005B736F756E643A9A
:1029F000737475623A4F4B5D005B656E61626C6526
:102A00003A005B757344656C61793A005B783A0013
:102A10005B783A4F55543A005B793A4F55543A0037
:102A20005B793A005B793A4241445F434D445D0033
:102A30005B7A3A4F55543A005B7A3A005B66696EAE
:102A400064686F6D653A005B583A002C593A002C67
:102A50005A3A005B6973486F6D653A583A005B6992
:102A600073486F6D653A593A005B6973486F6D65DD
:102A70003A5A3A005B6973486F6D653A4241445F68
:102A80004152475D005B72656C61793A005B72652B
:102A90006C61793A4241445F434D445D005B72652D
:102AA0006C6179323A005B72656C6179323A42410D
:102AB000445F434D445D005B48426F3A005B4842CF
:102AC0006F3A4241445F434D445D005B4842743A73
:102AD0004241445F434D445D005B4842743A005BB1
:102AE0006861734245443A005B68617344494242FD
:102AF0004C45523A005B6861734449535452494211
:102B000055544F523A005B6861734E46433A002C6D
:102B100020686173444942424C45523A002C206877
:102B200061734449535452494255544F523A002C10
:102B3000206861734E46433A005B484F4D455F4500
:102B400052525D004F4B4F4B0041524D0053454E8A
:102B500000363000434F4D4D414E44204E4F5420DF
:0C2B60005245434F474E495A454400007F
:00000001FF
